:020000040800F2
:10000000A00C002005010008611E000879190008F5
:10001000F51D0008F70500089D26000800000000F7
:100020000000000000000000000000003D22000869
:100030001906000800000000D921000895220008D8
:100040001F0100081F0100081F0100081F01000810
:100050001F0100081F0100081F0100081F01000800
:100060001F0100081F0100081F0100081F010008F0
:100070001F0100081F0100081F0100081F010008E0
:100080001F0100081F0100081F0100081F010008D0
:100090001F0100081F0100081F0100081F010008C0
:1000A0001F0100081F0100081F0100081F010008B0
:1000B000F92200081F0100081F0100081F010008A5
:1000C0001F0100081F0100081F0100081F01000890
:1000D0001F0100081F0100081F0100081F01000880
:1000E0001F0100081F0100081F010008DFF810D0E1
:1000F00000F060FA0048004769290008AFF300806B
:10010000A00C00200648804706480047FEE7FEE7AF
:10011000FEE7FEE7FEE7FEE7FEE7FEE7FEE7FEE7B7
:10012000F7220008ED000008202A04DB203A21FA1B
:1001300002F00021704721FA02F3D040C2F1200200
:100140009140084319467047D2B201E000F8012BF4
:10015000491EFBD270470022F6E710B513460A4647
:1001600004461946FFF7F0FF204610BDF0B480EAC0
:100170000102D40F4200B2EB410F02D20246084600
:1001800011464A0042D0C30DDDB2C1F3C752AD1AC9
:10019000202D35DAC1F3160141F4000204B15242B8
:1001A000C5F1200602FA06F12A411044B3EBD05FF4
:1001B00023D0C4B1012DA0EBC35009DCF0BC4FF03B
:1001C000004202EAC352DBB200F5000000F067B95A
:1001D000400000F1807000EBC350A0F1807040EA55
:1001E000D170490009E0490841EAC071A0EBC35051
:1001F00000F50000400800EBC350F0BC00F046B929
:100200006142012202EB4101001BF6E7F0BC70479E
:1002100081F00041AAE780F00040A7E780EA0102F0
:1002200010B502F00043400022D04A001FD0010E5A
:1002300001EB1261C0F35600C2F3560240F4000015
:1002400042F40002A0FB022000047F39140400D015
:10025000401C50EA124001D44000491EC2B20C06B4
:1002600004EBD010401C4008802A02D003E000209C
:1002700010BD20F00100002900DA0020184310BD55
:10028000420005D0C0F3C7525242914201DC002027
:10029000704700EBC15070472DE9FE4F81EA03041F
:1002A00004F0004421F0004100944FF0000B23F0D3
:1002B000004350EA01045ED052EA03045BD0C3F36A
:1002C0000A54C1F30A552C44A4F2F3340194A0FB60
:1002D0000254C1F3130141F48011C3F3130343F437
:1002E000801301FB024400FB034E840A970A44EA90
:1002F000815447EA8357A4FB076802958D0A05FBE2
:1003000007854FEA932C04FB0C542705029D4FEA06
:10031000065847EA1637B5EB08056EEB070C870E53
:10032000920E47EA811742EA8312A7FB0201B6EB5D
:100330000B0164EB00042B0D43EA0C335E1844EB15
:100340001C50DA465146E7FB0201C5F313044FEA9D
:100350000B3343EA14534FEA0432019C43EA060389
:10036000A4F10C040294009CCDE900B400F0D4F890
:1003700003B0BDE8F08F00200146F9E770B521F029
:10038000004303430CD0C1F30A550024D5EB040508
:1003900064EB0403D617AD1AB34102DB002001461B
:1003A00070BD201841EB025170BDC10F80EAE070B2
:1003B0000844CA079623002100F071B80EB5C10F9A
:1003C00080EAE0700844CA07002140F233438DE818
:1003D0000E000A460B4600F09FF803B000BD0EB5B4
:1003E00040F2334102910021CDE900110A460B464B
:1003F00000F092F803B000BD00F0004220F0004091
:10040000C10DC0F3160040F400007F2901DA00207E
:100410007047962903DCC1F19601C84001E0963986
:100420008840002AF4D04042704701F0004330B4C5
:1004300021F0004150EA010206D00A0DA2F56072D7
:10044000C1F31301002A02DC30BC00207047440FC6
:1004500044EAC104C100E01830BC00EBC25000F017
:1004600015B80000002801DBC0F10040002901DBC5
:10047000C1F1004181427047002801DBC0F100401A
:10048000002901DBC1F10041884270470029A8BF63
:100490007047401C490008BF20F00100704710B4AD
:1004A000B0FA80FC00FA0CF050EA010404BF10BC62
:1004B000704749B1CCF1200421FA04F411FA0CF18F
:1004C00018BF012121430843A3EB0C01CB1D4FEAC8
:1004D00000614FEA102042BF002010BC704700EBC3
:1004E000C35010440029A4BF10BC7047401C4900F1
:1004F00008BF20F0010010BC704710B5141E73F146
:10050000000408DA401C41F1000192185B411A43D3
:1005100001D120F0010010BD2DE9F04D92469B461F
:1005200011B1B1FA81F202E0B0FA80F220329046C5
:1005300000F052F804460F4640EA0A0041EA0B0177
:1005400053465A46084313D0114653EA010019D0C6
:10055000C8F140025046FFF7E7FD05460E465046FB
:100560005946424600F038F8084305D0012004E01F
:1005700020463946BDE8F08D0020054346EAE07686
:100580002C4337430A986305E40AA0EB08000022D5
:10059000FD0A44EA47540A3002D500200146E9E743
:1005A000010510196941DDE9084500196941BDE8F7
:1005B000F04DA2E7064C074D06E0E06840F001036D
:1005C00094E8070098471034AC42F6D3FFF792FD49
:1005D0002449000844490008202A04DB203A00FA94
:1005E00002F1002070479140C2F1200320FA03F38A
:1005F000194390407047FEE710B5FFF7DFFE044A4D
:10060000044BFFF749FEBDE81040FFF70EBF0000A6
:10061000DE3B6A4C88B9843F70470000064908B544
:100620000968064AC908B1FBF2F14143009100BFD5
:10063000491E0091FBD208BD4000002040420F003F
:1006400072B6FEE707480068416A074A49421180CE
:1006500006490B685B6A5B4253800022426208686D
:1006600042627047C80500200000002010060020EC
:1006700070B5044600F010F90546601C02D004482D
:100680000078044400F008F9401BA042FAD370BD82
:10069000340000202DE9F84FDFF8B891002409F16B
:1006A000040A0AF1040B23460F270BF1040EC9E0DC
:1006B0000125A5402A40AA427DD1674ED1F804C049
:1006C000ACEB0608B44532D014DCBCF1030F3AD0D1
:1006D00009DCBCF1000F2AD0BCF1010F1CD0BCF129
:1006E000020F31D11DE0BCF1110F17D0BCF1120F78
:1006F0002AD119E0B8F5881F19D006DCB8F5803F7B
:1007000015D0B8F5801F1FD111E0B8F5001F0ED02D
:10071000B8F5041F18D10AE0CB6815E0CB681B1DA3
:1007200012E0CB6808330FE0CB680C330CE08B6829
:100730002BB1012B4FF0080303D0456104E00423E3
:1007400002E0056100E00023FF2A01D8064601E02F
:1007500000F104064FEA840501D9A5F12005D6F879
:10076000008007FA05FC28EA0C0803FA05F548EAB8
:100770000508C6F800804D68ED0062D5374DAE69BA
:1007800046F00106AE61AD6924F0030605F00105EF
:100790000095334D06EB050CDCF80850A607360F24
:1007A00007FA06F825EA0805DFF8B880404503D1C6
:1007B0004FF0000817E044E0DFF8AC80404502D17C
:1007C0004FF001080FE0DFF8A480404502D14FF060
:1007D000020808E0DFF89880404502D14FF0030896
:1007E00001E04FF0040808FA06F848EA0508CCF8DA
:1007F00008804D68D9F80060ED034D4601D51643D9
:1008000000E096432E604D68DAF80060AD0355466F
:1008100001D5164300E096432E604D68DBF800607A
:10082000ED025D4601D5164300E096432E604D680B
:10083000DEF80060AD02754601D5164300E0964330
:100840002E60641C0D682A46E5407FF431AFBDE898
:10085000F88F000000040140000011100010024059
:100860000000014000080140000C01400010014060
:10087000001401408068084000D001207047C26821
:1008800021EA02030A4043EA0241016170470AB1CA
:10089000016170470904FBE7014880687047000068
:1008A000340000200248816802781144816070475A
:1008B00034000020074810B5016841F010010160C4
:1008C000032000F075F80F2000F006F800F024F87F
:1008D000002010BD0020024070B50D4D04464FF4BD
:1008E0007A712878B1FBF0F00A490968B1FBF0F0A1
:1008F00000F0ECFA48B9102C07D200222146501E15
:1009000000F036F800206C6070BD012070BD000062
:1009100034000020400000200C4808B5816941F0F7
:1009200001018161816901F001010091C16941F01A
:100930008051C161C06900F0805000900448416856
:1009400021F0E06141F00071416008BD00100240FB
:1009500000000140002809DB00F01F020121914046
:100960004009800000F1E020C0F80011704700004D
:10097000F0B40E4B1B680C46C3F30223C3F107050A
:10098000042D00D90425191D072901D2002300E0F8
:10099000DB1E012606FA05F1491E214099409E40C2
:1009A000761E16403143F0BC01F0D6BE0CED00E0DF
:1009B000064900F0070208684FF6FF03184040EAB6
:1009C0000220034A10430860704700000CED00E06D
:1009D0000000FA052DE9F0470F46050061D0434EAF
:1009E000306800F00700B84209D2306820F00700F4
:1009F00038433060306800F00700B84251D12868B1
:100A00003B4C810712D5400703D5606840F4E06095
:100A100060602878000703D5606840F4605060602B
:100A20006068A96820F0F000084360602878C0077B
:100A300028D06868012810D02168022810D08907C2
:100A400000292EDA616821F0030101436160FFF79C
:100A500023FF804641F288390DE021688903EFE7E2
:100A60008901EDE7FFF718FFA0EB0801494502D91E
:100A70000320BDE8F0876068696800F00C00B0EB07
:100A8000810FEFD1306800F00700B8420BD9306811
:100A900020F0070038433060306800F00700B842AB
:100AA00001D00120E5E72878400705D56068E968AE
:100AB00020F4E060084360602878000706D560688D
:100AC000296920F4605040EAC100606000F038F805
:100AD0006168084AC1F30311515CC84006490860C7
:100AE00006480068FFF7F8FE0020C2E70020024039
:100AF000001002400C49000840000020380000208F
:100B00000448054900684968044AC1F30221515C60
:100B1000C840704740000020001002401C490008F7
:100B20000448054900684968044AC1F3C221515C80
:100B3000C840704740000020001002401C490008D7
:100B400012A185B00FC98DE80F0014A0144A0068E7
:100B500004905168134801F00C03042B10D0082BAB
:100B60000ED1C1F38343C9031DF803000AD55168B0
:100B700004AAC1F34041515C0A4A5043B0FBF1F072
:100B800005B0704708494843FAE70000020304052E
:100B9000060708090A0B0C0D0E0F101001020000C9
:100BA0000010024000127A0000093D002DE9F84FC4
:100BB000040070D02078C04DC00749D06868C0F3E9
:100BC0008100012807D06868C0F38100022809D19C
:100BD0006868C00306D52868800339D56068002896
:100BE000E7D035E06068B0F5803F0BD010B1B0F5CC
:100BF000A02F11D0286820F480302860286820F4C5
:100C0000802002E0286840F480302860606890B15D
:100C1000FFF742FE06460AE0286840F4802028607C
:100C2000F0E700BFFFF738FE801B642873D8286800
:100C30008003F7D50CE0FFF72FFE064605E000BF66
:100C4000FFF72AFE801B6428F0D828688003F7D4B9
:100C500020789A4E80074FF001094FF0000839D5EF
:100C6000686810F00C0F07D06868C0F38100022894
:100C700009D16868C00306D42868800714D52069A4
:100C8000012808D110E02069B0B1C6F80090FFF744
:100C900003FE074605E00AE1FFF7FEFDC01B022840
:100CA000C4D828688007F7D52868616920F0F80063
:100CB00040EAC10028600DE0C6F80080FFF7ECFDB7
:100CC000074604E0FFF7E8FDC01B022823D8286888
:100CD0008007F7D4207800072CD57948A169D9B1CD
:100CE000C0F80090FFF7D8FD074604E0FFF7D4FDF9
:100CF000C01B02280FD8686A8007F7D571484FF4E7
:100D0000FA510068B0FBF1F0009000BF0098411E5E
:100D10000091FAD20EE080E0C0F80080FFF7BCFD41
:100D2000074604E0FFF7B8FDC01B022875D8686AC3
:100D30008007F7D42078400760D5E8690027C00015
:100D400008D4E86940F08050E861E869012700F0C4
:100D5000805000905C480168C90513D4016883463F
:100D600041F480710160FFF797FD824606E000BF05
:100D7000FFF792FDA0EB0A0064284ED8DBF80000D4
:100D8000C005F5D5E06801280AD008B1052813D0C0
:100D9000286A20F001002862286A20F0040002E09E
:100DA000286A40F001002862E06841F2883B98B16F
:100DB000FFF772FD82460BE0286A40F004002862CB
:100DC000EEE700BFFFF768FDA0EB0A0159455AD8CE
:100DD000286A8007F6D50CE0FFF75EFD824605E045
:100DE000FFF75AFDA0EB0A0159454CD8286A800745
:100DF000F6D41FB1E86920F08050E861E06988B35B
:100E00006968C1F38101022944D00228C6F86080D4
:100E100004D0FFF741FD044638E034E0FFF73CFD25
:100E2000074604E0FFF738FDC01B02282BD82868CE
:100E30008001F7D4206AB0F5803F05D16868A168C9
:100E400020F4003008436860D4E908010843696869
:100E500021F4741108436860C6F86090FFF71CFD28
:100E6000044606E025E000BFFFF716FD001B022840
:100E700009D828688001F7D51BE000BFFFF70CFDFB
:100E8000001B022802D90320BDE8F88F28688001E2
:100E9000F4D40EE00128F7D06868226A00F48031AB
:100EA000914204D1616A00F47010884201D001209F
:100EB000EAE70020E8E7000000100240000042429C
:100EC00080044242400000200070004010B5401EE7
:100ED000B0F1807F01D3012010BD4FF0E0246061AC
:100EE0000F21601701F038FC0020A061072020616D
:100EF000002010BD7047704710B590F83C20012AC3
:100F000022D0012280F83C20CA688C6822F440720A
:100F100022434C6822F4806222430C6822F400626F
:100F200022430C6922F4805222434C6922F400527D
:100F30002243C969002322F480420A4301684A64BB
:100F400080F83C30002010BD022010BD70B590F834
:100F50003C20012A26D0012480F83C40022280F85F
:100F60003D2003685A689D6822F070060A68324383
:100F70005A600D4B02689A4208D0B2F1804F05D0FA
:100F80000A4B9A4202D00A4B9A4204D1496825F092
:100F900080031943916080F83D40002180F83C10A7
:100FA000084670BD022070BD002C014000040040C6
:100FB0000008004010B5040003D094F83D0010B1C3
:100FC00007E0012010BD002084F83C00204600F01E
:100FD0001FF8022084F83D00211D206801F092F9DD
:100FE000012084F8460084F83E0084F83F0084F82D
:100FF000400084F8410084F8420084F8430084F8FB
:10100000440084F8450084F83D00002010BD000035
:1010100008B5114A01681148914208D1816941F42B
:1010200000618161806900F40060009008BDB1F149
:10103000804FFBD1C16941F00101C161C06900224B
:1010400000F00100009011461C20FFF791FCBDE864
:1010500008401C20FFF77EBC002C0140001002401D
:1010600090F83D10012901D001207047022180F83D
:101070003D100168CA6842F00102CA6000680B496D
:10108000884208D0B0F1804F05D00949884202D08B
:101090000849884204D1816801F00701062903D07C
:1010A000016841F00101016000207047002C0140FF
:1010B000000400400008004070B5044690F83C0071
:1010C000012817D0012584F83C50022084F83D0007
:1010D0002068826822F0770222F47F4282600868EA
:1010E000502830D00DDC20284DD005DC98B31028D6
:1010F0003BD148E0022070BD302844D0402834D194
:1011000039E0602828D0702806D0B0F5805F2CD058
:10111000B0F5005F29D10AE0CB68D1E90121206850
:1011200001F033F92068816841F0770109E0CB686C
:10113000D1E90121206801F028F92068816841F493
:101140008041816011E0CA684968206801F0D2F9E5
:101150005021206807E016E0CA684968206801F05D
:10116000DAF96021206801F01AF984F83D50002076
:1011700084F83C0070BDCA684968206801F0BAF97B
:1011800040212068EFE7226801461046EBE72DE991
:10119000F0410D46040003D094F83D0018B108E07A
:1011A0000120BDE8F081002084F83C00204600F0DA
:1011B00041F8022084F83D002068816844F207026B
:1011C00091438160211D206801F09CF8226890689D
:1011D0009169166A2B68AF69034340F2033081437B
:1011E00041EA0721A868EF6908434FF6FC418843AC
:1011F000E96840EA0720014328692F6A000140EAB4
:101200000730084369686D6926F0220646EA05152D
:10121000294393602268906154F8460B01620120D3
:1012200004F81F09E0752076E0762077A07500208D
:10123000B7E7000000B585B000210091019102914F
:1012400003911F4B02681F491F489A421FD1CA6968
:1012500042F00202CA61CA6902F0020204928A697B
:1012600042F008028A61896901F008010491302185
:1012700000916946FFF70EFA1448416821F4406175
:1012800041F0E06141F40061416005B000BD104BE8
:101290009A42FAD1CA6942F00402CA61CA6902F0EC
:1012A000040204928A6942F008028A61896901F0A5
:1012B00008010491C02100916946FFF7EBF9E4E7CA
:1012C0000004004000100240000C014000000140FA
:1012D0000008004070B590F83E60044690F83F501A
:1012E00090F8423090F84320022021B104290ED01A
:1012F000012E1BD114E0012E18D1012B16D184F838
:101300003E0084F8420001220021206820E0012DE7
:101310000CD1012A0AD184F83F0084F8430014E07C
:10132000012D03D1012B01D1012A01D0012070BD73
:1013300084F83E0084F83F0084F8420084F84300BB
:1013400001220021206801F013F801220421206805
:1013500001F00EF82068016841F0010101600020F1
:1013600070BD704770B50446006801694FF0000514
:10137000C943890715D4C168C943890711D4E91E37
:10138000016101202077206880698007204602D013
:10139000FFF7E7FF04E000F0BFF8204600F04EF949
:1013A000257720680169C943490717D4C168C94333
:1013B000490713D46FF004010161022020772068EF
:1013C000806910F4407F204602D0FFF7CAFF04E096
:1013D00000F0A2F8204600F031F925772068016975
:1013E000C943090716D4C168C943090712D46FF06D
:1013F00008010161042020772068C0698007204629
:1014000002D0FFF7AEFF04E000F086F8204600F0BF
:1014100015F9257720680169C943C90617D4C16841
:10142000C943C90613D46FF0100101610820207769
:101430002068C06910F4407F204602D0FFF791FF7A
:1014400004E000F069F8204600F0F8F825772068FD
:101450000169C943C90708D1C168C943C90704D193
:10146000891E0161204600F039F920680169C943ED
:10147000090609D4C168C943090605D46FF0800183
:1014800001612046FFF736FD20680169C94349061E
:1014900009D4C168C943490605D46FF04001016110
:1014A000204600F0B1F920680169C94389060BD4D0
:1014B000C168C943890607D46FF020010161204645
:1014C000BDE87040FFF717BD70BD000000B585B0E6
:1014D0000021009101910291039100680B4988421B
:1014E00012D10B48816941F004018161806969462C
:1014F00000F0040004904FF440700090022001902E
:1015000003900448FFF7C6F805B000BD002C014069
:101510000010024000080140704770B5044690F882
:101520003C000D4601280AD0012084F83C0042B15D
:10153000042A18D0082A2AD00C2A4DD139E00220DA
:1015400070BD206800F034FF2068816941F0080117
:1015500081612068816921F00401816120688169CD
:101560002A69114311E0206800F04AFF2068816970
:1015700041F4006181612068816921F480618161A9
:10158000206881692A6941EA0221816124E020689A
:1015900000F062FF2068C16941F00801C161206864
:1015A000C16921F00401C1612068C1692A69114340
:1015B00011E0206800F07CFF2068C16941F40061FF
:1015C000C1612068C16921F48061C1612068C1697D
:1015D0002A6941EA0221C161002084F83C0070BD03
:1015E00010B5040003D094F83D0010B107E00120CD
:1015F00010BD002084F83C00204600F01EF80220B8
:1016000084F83D00211D206800F07CFE012084F854
:10161000460084F83E0084F83F0084F8400084F8D7
:10162000410084F8420084F8430084F8440084F8C0
:10163000450084F83D00002010BD70477047000051
:1016400010B50446022249B104290ED0082913D04E
:1016500094F84100012816D0012010BD94F83E00F6
:101660000128F9D184F83E200FE094F83F000128CA
:10167000F2D184F83F2008E094F840000128EBD133
:1016800084F8402001E084F841200122206800F025
:101690006FFE0F492068884203D1426C42F4004239
:1016A00042642068884208D0B0F1804F05D00949D3
:1016B000884202D00849884204D1816801F00701BC
:1016C000062903D0016841F001010160002010BD2E
:1016D000002C014000040040000800402DE9F041CA
:1016E0000068B0F1804F7DD1434CE069401CE0615F
:1016F000FEF7A8FF2546B5F90200FEF77DFF064676
:10170000B5F90000FEF778FF3C4D07462A46314602
:10171000286900F0C5FF05F12806324639463069D0
:1017200000F0BEFF606A002758B901F093F9344910
:10173000A069884205DA6FF03100E0620120606242
:1017400002E0606A01284BD1E06A4FF00201401CC0
:10175000E06200D52163322806D227636A6A963A8E
:101760006261726AC8322261A0F13202642A03D235
:101770006A6A6261726A2261A0F19602322A00D21C
:101780002163A0F1C801642906D22763696AC831C0
:101790006161716A96392161B0F5967F0ADB686AEA
:1017A0006061706A20614FF480611648FFF762F84B
:1017B000012802D0A06A00280CDDA06A401CA062AB
:1017C000696AC8396161716AFA312161642801D19D
:1017D000A7626762D4E9042194F8300000F00CFBA2
:1017E000E06900E005E0042803DDE76100F076F839
:1017F000A061BDE8F081000000000020C4040020CA
:1018000000000C4200080140704770B5040004D08D
:1018100094F83D00002510B106E0012070BD84F869
:101820003C50204600F022F8242084F83D00206837
:10183000C16821F40051C160204600F0D3FE206849
:10184000016921F4904101612068416921F02A0178
:1018500041612068C16841F40051C16025642020C5
:1018600084F83D0084F83E00002070BD30B585B09E
:10187000002400940194029403940068144988425F
:1018800024D11448C16941F48021C161C16901F4C6
:1018900080210491816941F00801816180690E4DC8
:1018A00000F0080004904FF4806000900220019046
:1018B0000320039069462846FEF7ECFEE814CDE9C4
:1018C0000004694628460294FEF7E4FE05B030BDE8
:1018D0000048004000100240000C01402DE9F0419A
:1018E0000122204C1603002531462046FEF7CFFF8B
:1018F0000F20FEF793FE002231462046FEF7C7FF79
:10190000194FE61408E001206D1CFEF787FEBD426A
:1019100002D91648BDE8F08131462046FEF7AAFFFD
:101920000028F0D0002508E001206D1CFEF776FEAF
:10193000BD4202D94FF04040ECE731462046FEF769
:1019400099FF0128F0D06800FEF749FD084A094BCD
:10195000FEF7A2FC4FF0FF32FEF710FDBDE8F041AC
:10196000FEF763BD00080140A0860100000080BFB3
:101970004C37894160E5A03FFEE7000070B50122C9
:101980000E4D540221462846FEF781FF0122160221
:1019900031462846FEF77BFF00F048F8002221463A
:1019A0002846FEF774FF00F041F800223146284631
:1019B000FEF76DFFBDE8704000F038B8000C014044
:1019C00070B50B4D4FF40074002221462846FEF7F7
:1019D0005EFF012211022846FEF759FF00F026F8AB
:1019E00021462846BDE870400122FEF750BF0000A6
:1019F000000C014070B50C4C012251022046FEF74C
:101A000046FF00F013F80122150229462046FEF792
:101A10003EFF00F00BF8002229462046FEF737FF74
:101A2000BDE8704000F002B8000C01400320401EE9
:101A3000C0B2FCD27047000010B5064C0022012154
:101A40002046FEF724FF20460122BDE81040022177
:101A5000FEF71DBF000C014010B5064C01221146D7
:101A60002046FEF714FF20460022BDE81040022168
:101A7000FEF70DBF000C014010B5064C01221146C7
:101A80002046FEF704FF20460122BDE81040022157
:101A9000FEF7FDBE000C01402DE9F04385B00024A7
:101AA0003C480094019402940394816941F0100130
:101AB0008161816901F010010491816941F0200187
:101AC0008161816901F020010491816941F0040183
:101AD0008161816901F004010491816941F008018B
:101AE000816180692C4F00F008004FF4C0450490DC
:101AF000002229463846FEF7CAFEDFF8A0900022F1
:101B00004FF482514846FEF7C2FE0122802148462A
:101B1000FEF7BDFEDFF88880012211464046FEF741
:101B2000B6FE002240F202314046FEF7B0FE0095BC
:101B3000022601250396CDE9015469463846FEF791
:101B4000A9FD4FF48650CDE90005CDE9024669466E
:101B50004846FEF79FFD40F20330CDE90005CDE990
:101B6000024669464046FEF795FD4FF47040CDE9C8
:101B70000004694640460294FEF78CFD4FF4406035
:101B8000CDE90004694648460294FEF783FD05B09E
:101B9000BDE8F08300100240001001400008014041
:101BA000000C014010B596B000240F9410941194CD
:101BB000129413941C2168461494FEF7CCFA202149
:101BC00007A8FEF7C8FA2C482A4901600321C0E99A
:101BD000011440F2E731C0E9031444618461FFF766
:101BE000E9F908B1FEF72CFD4FF480500F900FA9D2
:101BF0002148FFF761FA08B1FEF722FD1E48FFF702
:101C0000EFFC08B1FEF71CFD139413A91A481494B5
:101C1000FFF79CF908B1FEF713FD6020CDE9000441
:101C20000294039404940594002269461248069491
:101C3000FFF773FC08B1FEF703FD042269460E4866
:101C4000FFF76BFC08B1FEF7FBFC079408940994BE
:101C50004FF400500A94CDE90B4007A906480E94B2
:101C6000FFF74AF908B1FEF7EBFC0348FFF72EFC3B
:101C700016B010BD002C01403805002010B586B00C
:101C800000241748009401940294039404944FF0A4
:101C900080410594016040F2CF21C0E9011440F277
:101CA000CF71C0E903148461FFF784F908B1FEF72E
:101CB000C7FC4FF48050009069460948FFF7FCF9D3
:101CC00008B1FEF7BDFC049404A905480594FFF78C
:101CD0003DF9002801D0FEF7B3FC06B010BD0000AE
:101CE0008005002010B58CB024216846FEF733FA39
:101CF00000241648099414490A94C0E900144FF6C8
:101D0000FF71C0E902418021046181610320CDE9B6
:101D100000040120CDE902040494CDE905400794B4
:101D200069460A480894FFF732FA08B1FEF788FCC2
:101D3000099409A905480A94FFF708F9002801D079
:101D4000FEF77EFC0CB010BD00040040C80500206A
:101D500010B58CB024216846FEF7FDF90024164822
:101D6000099414490A94C0E900144FF6FF71C0E9C0
:101D700002418021046181610320CDE9000401203A
:101D8000CDE902040494CDE90540079469460A4868
:101D90000894FFF7FCF908B1FEF752FC099409A971
:101DA00005480A94FFF7D2F8002801D0FEF748FC56
:101DB0000CB010BD00080040100600200C4810B503
:101DC0000A4901604FF4E1314160002181600C2239
:101DD000C160C0E904128161C161FFF716FD0028EE
:101DE00003D0BDE81040FEF72BBC10BD00480040FA
:101DF00058060020FEE7000070B5184C15460E4648
:101E000005280CD2DFE800F0030C0F192100FFF7C2
:101E100023FE00F0F3F9206886632068456370BDF7
:101E2000FFF70AFE13E0FFF727FE00F0F7F921683D
:101E3000002048632168886370BDFFF7FDFD00F056
:101E4000DDF92068456320688663FFF705FE00F032
:101E5000C5F9206845632068866370BD3805002099
:101E6000FEE7000030B40021084B0A465FF0000096
:101E700003EBC004401CC0B262548028F8D3491C54
:101E8000C9B20829F2D330BC00F096B84400002053
:101E900030B5CC0801F0070301259D40EBB2064D9B
:101EA00005EBC005C808285C0AB1184302E063EAE4
:101EB0000000C043285530BD4400002010B53D4C03
:101EC000002204212046FEF7E2FCC820FEF7D0FBEA
:101ED000012204212046FEF7DAFC0021AE2000F0AA
:101EE0002FF90021084600F02BF90021102000F006
:101EF00027F90021402000F023F90021812000F083
:101F00001FF90021CF2000F01BF90021A12000F0D3
:101F100017F90021C82000F013F90021A62000F0D5
:101F20000FF90021A82000F00BF900213F2000F05C
:101F300007F90021D32000F003F90021084600F042
:101F4000FFF80021D52000F0FBF80021802000F0F0
:101F5000F7F80021D92000F0F3F80021F12000F07B
:101F6000EFF80021DA2000F0EBF80021122000F059
:101F7000E7F80021DB2000F0E3F80021302000F03A
:101F8000DFF80021202000F0DBF80021022000F023
:101F9000D7F800218D2000F0D3F80021142000F0A4
:101FA000CFF8FFF75FFF0021BDE81040AF2000F041
:101FB000C7B800000008014070B5184E002400BFEB
:101FC00004F1B000C0B2002100F0BAF800210846C8
:101FD00000F0B6F80021102000F0B2F8FFF7CEFCB8
:101FE000782000F02DF9FFF705FD402000F028F9DA
:101FF000FFF700FD5FF0000506EBC500005D00F097
:102000001FF9FFF7F7FC6D1CEDB2802DF4D3FFF73D
:10201000D7FC641CE4B2082CD2D370BD440000206D
:102020002DE9FC4F1C460E4682468B460190082B3C
:102030000DD0600700D0012000EBD40061084843B8
:10204000C0B28146203AD0B2009000204BE006207A
:10205000F7E7082C13D00C2C18D0102C1BD0182C00
:1020600044D10098234900EBC00000BF01EB800180
:10207000002711F80850E80712D00B9A13E00098D7
:102080001D4900EB400001EB4001F1E700981B49BE
:1020900000EB4000EAE71A49009801EB0011E7E77E
:1020A0000B9828B3002231465046FFF7F1FE761C0C
:1020B0007F1C6D08FFB2F6B2082FDCD30AF10100D5
:1020C00000F0FF0A082C0AD00199AAEB0100B0EB3E
:1020D000540F04D10BF108008A4600F0FF0B08F101
:1020E00001005E46C0B280464845B2D3BDE8FC8FD1
:1020F0000122D8E788370008FC2A0008242D0008B0
:10210000983100082DE9F8411E46154688460446D8
:10211000079F0BE03346414620460097FFF780FFBC
:10212000082E0AD004EB5600C4B26D1C2A78A2F126
:1021300020005E28EED9BDE8F881A41DE4B2F4E7E2
:1021400070B50C460546FFF719FC782000F078F8CA
:10215000FFF750FC0CB1402000E0002000F070F8C8
:10216000FFF748FC284600F06BF8FFF743FCBDE89A
:102170007040FFF725BC0000084901600849416034
:10218000084981600849C1600121416100218161E4
:10219000C161016241620549016170470000344438
:1021A000000007435C8F423E00801D44B81E053E80
:1021B0000749016000214FF07E52C0E90112054A33
:1021C000C2600122C0E904218161C16101627047DE
:1021D0000000C8C2000096437047000010B5064CCE
:1021E000012240212046FEF752FB20460022BDE896
:1021F00010408021FEF74BBB0008014010B5064C93
:10220000002240212046FEF742FB20460122BDE885
:1022100010408021FEF73BBB0008014010B5064C82
:10222000012240212046FEF732FB20460122BDE874
:1022300010408021FEF72BBB0008014070470000D2
:102240002DE9F041124F002405464FF40078BE15E9
:10225000280601D5012200E0002241463846FEF75B
:1022600016FBFFF7E3FB012231463846FEF70FFB72
:10227000FFF7DCFB002231463846FEF708FB680614
:10228000641C050EE4B2082CE2D3BDE8F081000026
:10229000000C0140FEF706BB30B58FB02821684620
:1022A000FDF759FF14210AA8FDF755FF0121080485
:1022B000CDE900100024029402250491CDE90750D5
:1022C0004FF4E01009906846FEF770FC08B172B652
:1022D000FEE70F20CDE90A054FF48060CDE90C4000
:1022E00002210AA80E94FEF775FB002801D072B6F1
:1022F000FEE70FB030BD70470148FFF733B800006C
:1023000080050020F0B50268164B174C174D4FF0B2
:102310008047984205D0B84203D0A04201D0A842DD
:1023200003D122F070064A683243984205D0B84281
:1023300003D0A04201D0A84203D122F44074CA685D
:1023400022434C6922F08002224302608A68C26202
:102350000A688262984201D10969016301214161E1
:10236000F0BD0000002C01400004004000080040C7
:1023700010B501F01F030121046A99408C430462E7
:10238000016A9A401143016210BD10B5846842EAA7
:10239000032224F47F440A432243826010BD8268F2
:1023A00022F070020A4342F007018160704700008A
:1023B00030B5026A22F001020262026A436884694F
:1023C00024F073050C682C4322F002058A682A4326
:1023D0000A4DA8420BD122F00805CA6823F44073C5
:1023E0002A434D6922F004021D438B692B4343604D
:1023F000846149684163026230BD0000002C0140E5
:1024000030B5026A22F010020262026A43688469EF
:102410000D6824F4E64444EA05248D6822F0200285
:1024200042EA05120B4DA8420ED1CD6822F080027F
:1024300042EA05124D6923F4406343EA85038D693E
:1024400022F0400243EA8503436084614968816366
:10245000026230BD002C014030B5026A22F4807265
:102460000262036A4268C46923F4007324F07305AE
:102470000C682C438D6843EA05230C4DA8420ED10D
:10248000CD6823F4006343EA05234D6922F44052EA
:1024900042EA05128D6923F4806342EA0512426024
:1024A000C4614968C163036230BD0000002C014073
:1024B00030B5026A22F480520262046A4268C3693B
:1024C0000D6823F4E64343EA05238D6824F40054A1
:1024D00044EA0534064DA84204D14D6922F48042F5
:1024E00042EA85124260C36149680164046230BDFA
:1024F000002C014010B5036A046A24F00104046250
:10250000846924F0F00444EA021423F00A020A4326
:102510008461026210BD10B5036A23F010030362E8
:102520008369046A23F4704343EA023224F0A0036F
:1025300043EA01118261016210BD2DE9F0411446A8
:102540001269012A04D02046BDE8F041FFF730BEF1
:10255000FDF75EFEA569064601212846FDF790FEBF
:102560003146FDF758FEE169FDF700FEA168FDF771
:1025700055FE074631466068FDF750FE8046294605
:102580003046FDF745FE2168FDF748FE4146FDF760
:10259000EDFD3946FDF7EAFD6169FDF7E7FD606194
:1025A000C4E90665FDF728FF2062FDF7FEFEE1683D
:1025B000FDF762FF03D2E068FDF71EFF2062E068CE
:1025C00080F00045206AFDF7F0FE2946FDF74AFF3E
:1025D00005D2E06880F00040FDF70EFF2062BDE804
:1025E000F081000070B5044600680169E26821F4DA
:1025F0004051114301612169A068084361690843A2
:102600002168CA6841F20C639A430243CA60206899
:102610004169A26921F44071114341611E4920685A
:10262000884202D1FEF77CFA01E0FEF769FA00EB7E
:10263000C00101EB0012606864218000B2FBF0F37E
:10264000B3FBF1F36FF018067343B2FBF0F5B2FB86
:10265000F0F605EB8305322303EB0515B5FBF1F529
:10266000B6FBF1F605F0F00505EB0615B2FBF0F64A
:10267000B2FBF0F0B0FBF1F06FF01802504306EB44
:10268000800003EB0010B0FBF1F0216800F00F00B8
:102690002844886070BD000000380140FEE700005B
:1026A0002DE9F04114465269012A04D02046BDE8C4
:1026B000F041FFF761BDFDF7ABFDE769054601217C
:1026C0003846FDF7DDFD2946FDF7A5FD216AFDF73A
:1026D0004DFDA168FDF7A2FD064629466068FDF79D
:1026E0009DFD804639462846FDF792FD2168FDF79D
:1026F00095FD4146FDF73AFD3146FDF737FDA169ED
:10270000FDF734FDA061E168FDF7B6FE01D3A069D5
:1027100001E0E068A06110F1FF4F01D30D48A06116
:10272000E069C4E90750A069FDF766FE6062FDF745
:102730003CFEE168FDF7A0FE01D3606A03E0E068BB
:10274000FDF75AFE6062002801DA00206062BDE8F1
:10275000F08100000000FA430907090E002804DB9D
:1027600000F1E02080F80014704700F00F0000F145
:10277000E02080F8141D704702E008C8121F08C14D
:10278000002AFAD170477047002001E001C1121FF2
:10279000002AFBD1704700002DE9F05F6D4C4FF42B
:1027A0008056002531462046FEF764F8DFF8A8B1D0
:1027B00067144FF480484FF400494FF4806AA8B979
:1027C00039462046FEF756F880B941462046FEF7C6
:1027D00051F801280AD149462046FEF74BF828B99E
:1027E00051465846FEF746F8002822D0314620468A
:1027F000FEF740F8012814D139462046FEF73AF892
:1028000001280ED141462046FEF734F848B9494622
:102810002046FEF72FF820B951465846FEF72AF811
:1028200030B131462046FEF725F8012802D015E0E8
:102830004A4D8CE039462046FEF71CF870B94146F7
:102840002046FEF717F848B949462046FEF712F829
:1028500020B951465846FEF70DF828B131462046BA
:10286000FEF708F810B116E03D4D70E039462046FD
:10287000FEF700F801280ED141462046FDF7FAFF89
:1028800048B949462046FDF7F5FF20B9514658465C
:10289000FDF7F0FF28B131462046FDF7EBFF18B1F8
:1028A00017E04FF0404552E039462046FDF7E2FF81
:1028B00078B941462046FDF7DDFF50B9494620462C
:1028C000FDF7D8FF012804D151465846FDF7D2FF45
:1028D00028B131462046FDF7CDFF18B117E04FF083
:1028E000804534E039462046FDF7C4FF78B94146BB
:1028F0002046FDF7BFFF50B949462046FDF7BAFF15
:1029000028B951465846FDF7B5FF012805D0314694
:102910002046FDF7AFFF18B119E04FF0814516E0F2
:1029200039462046FDF7A6FF88B941462046FDF707
:10293000A1FF60B949462046FDF79CFF012806D15A
:1029400051465846FDF796FF012800D1054D28460F
:10295000BDE8F09F000C014000080140000090C05D
:10296000000080C00000904008B5FDF7A3FF2F488D
:10297000FFF702FC2D482830FFF7FEFB2B485030B4
:10298000FFF716FCFFF788FCFFF798FAFFF784F8CB
:10299000FFF708F9FFF7A6F9FFF7DAF9FFF76EF985
:1029A000FFF70CFA2248FEF75BFB00212148FEF7F7
:1029B00047FE04211F48FEF743FE00211E48FEF794
:1029C00089FC04211C48FEF785FC00211B48FEF70A
:1029D00081FC04211948FEF77DFC17480168CA688C
:1029E00042F00102CA6015490A68D36843F0010346
:1029F000D360006847F23052426208684262104C6D
:102A00000125206A28B9FFF759FA1420FDF730FE96
:102A10002562002110230BA208460095FFF772FBE8
:102A20000120FDF725FEFFF7C7FAEAE7C4040020FE
:102A30008005002038050020C80500201006002071
:102A40000000002064697374616E63653A2032305F
:102A5000636D00002DE9F041244E254CA6F12807B6
:102A6000FFF79AFE0146606006F128020020FFF79A
:102A700064FD06F12800006AFDF797FC0546E0605A
:102A8000706AFDF792FC2946FDF7C2FBFDF7B4FC26
:102A90002061786AFDF789FC2946FDF767FBFDF7A1
:102AA000ABFC6061D4E90101FDF7DCFC13D1D4E992
:102AB0000110FDF7D7FC05D14FF480410D48FDF71B
:102AC000D9FE40B1726A0020796AFFF795F9606813
:102AD000A060BDE8F081D4E904210020FFF78CF963
:102AE0004FF400510448FDF7CAFEF0E7EC04002063
:102AF00000000020000C0140001001400000000018
:102B000000000000002F0000000007000700001474
:102B10007F147F1400242A7F2A1200626408132382
:102B200000364955225000000503000000001C2219
:102B30004100000041221C000014083E0814000857
:102B4000083E0808000000A0600000080808080807
:102B5000000060600000002010080402003E51499F
:102B6000453E0000427F400000426151494600213D
:102B700041454B31001814127F1000274545453957
:102B8000003C4A49493000017109050300364949B2
:102B9000493600064949291E00003636000000006B
:102BA00056360000000814224100001414141414B6
:102BB000000041221408000201510906003249595F
:102BC000513E007C1211127C007F49494936003E7B
:102BD00041414122007F4141221C007F4949494136
:102BE000007F09090901003E4149497A007F080830
:102BF000087F0000417F4100002040413F01007FED
:102C000008142241007F40404040007F020C027FB8
:102C1000007F0408107F003E4141413E007F0909CA
:102C20000906003E4151215E007F091929460046F0
:102C3000494949310001017F0101003F4040403FC7
:102C4000001F2040201F003F4038403F0063140811
:102C500014630007087008070061514945430000EC
:102C60007F41410000552A552A55000041417F000F
:102C70000004020102040040404040400000010204
:102C80000400002054545478007F484444380038ED
:102C90004444442000384444487F00385454541875
:102CA00000087E0901020018A4A4A47C007F080487
:102CB00004780000447D4000004080847D00007F57
:102CC000102844000000417F4000007C0418047874
:102CD000007C0804047800384444443800FC242470
:102CE00024180018242418FC007C08040408004858
:102CF0005454542000043F444020003C4040207C79
:102D0000001C2040201C003C4030403C0044281067
:102D10002844001CA0A0A07C004464544C4414141B
:102D20001414141400000000000000000000000053
:102D30000000FC000000000002000000000C020C7B
:102D4000020000000000000090D0BCD0BC90000346
:102D5000000300001824FE448C0003020702010057
:102D60001824D8B04C80000300010201C038E438B8
:102D7000E00001020201020208060000000000005B
:102D800000000000000000F804020000000102043E
:102D9000000204F800000004020100009060F860E6
:102DA00090000000010000002020FC202000000016
:102DB0000100000000000000000008060000000004
:102DC0002020202020000000000000000000000063
:102DD00000000002000000000080601C02000403EC
:102DE00000000000F8040404F800010202020100DF
:102DF0000008FC00000000020302000018844424C4
:102E0000180003020202020008042424D800010270
:102E10000202010040B088FC8000000000030200B4
:102E20003C242424C400010202020100F824242CC2
:102E3000C0000102020201000C04E41C04000000B6
:102E400003000000D8242424D8000102020201005B
:102E500038444444F800000302020100000010005E
:102E60000000000002000000000020000000000040
:102E7000060000000020508804020000000001024B
:102E800090909090900000000000000000020488E4
:102E900050200002010000001804C42418000000A3
:102EA00002000000F804E494F800010202020200AB
:102EB00000E09CF0800002030000030204FC2424D4
:102EC000D800020302020100F80404040C0001020D
:102ED0000202010004FC0404F800020302020100E3
:102EE00004FC24740C0002030202030004FC24749A
:102EF0000C00020302000000F0080444CC40000172
:102F00000202010004FC2020FC0402030000030272
:102F10000404FC040400020203020200000404FC96
:102F2000040406040403000004FC24D00C0402037F
:102F30000200030204FC0400000002030202020378
:102F4000FC3CC03CFC0003000300030004FC30C454
:102F5000FC04020302000300F8040404F800010268
:102F60000202010004FC24241800020302000000F5
:102F7000F8848404F80001020207050004FC2464BC
:102F80009800020302000302182424448C00030268
:102F9000020201000C04FC040C0000020302000009
:102FA00004FC0000FC04000102020100047C80E03B
:102FB0001C040000030000001CE03CE01C000003B7
:102FC00000030000049C609C040002030003020054
:102FD000041CE01C04000002030200000C84641CBA
:102FE00004000203020203000000FE0202000000CF
:102FF00007040400000E30C00000000000010200C1
:10300000000202FE000000040407000000040204A5
:1030100000000000000000000000000000000808A0
:10302000080808080000020000000000000000007E
:103030000040A0A0C00000010202030204FC202006
:10304000C00000030202010000C020206000000157
:103050000202020000C02024FC0000010202030260
:1030600000C0A0A0C0000001020202000020F8245D
:1030700024040002030202000040A0A06020000718
:103080000A0A0A0404FC2020C00002030200030212
:103090000020E4000000000203020000000020E421
:1030A000000008080807000004FC80E0202002035C
:1030B000020003020404FC000000020203020200FA
:1030C000E020E020C00003000300030020E02020F7
:1030D000C00002030200030200C02020C000000163
:1030E0000202010020E02020C000080F0A020100B7
:1030F00000C02020E0000001020A0F0820E040206C
:1031000020000203020000000060A0A020000002D6
:10311000020203000020F82000000000010202006B
:1031200020E00020E00000010202030220E02080F5
:1031300060200000030100006080E0806000000368
:1031400000030000206080602000020300030200F2
:1031500020E0208060200808070100000020A06017
:103160002000000203020200000020DE0200000036
:1031700000070400000000FF00000000000F000036
:103180000002DE200000000407000000020102042B
:103190000402000000000000000000000000000029
:1031A0000000000000000000000000F80000000027
:1031B000000000333000000000100C06100C060068
:1031C000000000000000000040C07840C0784000CF
:1031D000043F04043F040400007088FC0830000031
:1031E000001820FF211E0000F008F000E018000089
:1031F00000211C031E211E0000F008887000000042
:103200001E2123241927211010160E000000000093
:103210000000000000000000000000E018040200B0
:10322000000000071820400000020418E000000021
:103230000040201807000000404080F0804040001F
:103240000202010F01020200000000F00000000075
:103250000101011F01010100000000000000000049
:1032600080B07000000000000000000000000000BE
:103270000001010101010101000000000000000047
:1032800000303000000000000000000080601804E2
:10329000006018060100000000E010080810E000BF
:1032A000000F102020100F00001010F80000000088
:1032B0000020203F202000000070080808887000CF
:1032C000003028242221300000300888884830004F
:1032D0000018202020110E000000C02010F800006F
:1032E00000070424243F240000F808888808080008
:1032F0000019212020110E0000E01088881800001D
:10330000000F112020110E0000380808C8380800EE
:103310000000003F0000000000708808088870006E
:10332000001C222121221C0000E010080810E000EF
:103330000000312222110F00000000C0C000000078
:10334000000000303000000000000080000000009D
:103350000000806000000000000080402010080095
:10336000000102040810200040404040404040005E
:103370000404040404040400000810204080000039
:103380000020100804020100007048080808F0003E
:103390000000003036010000C030C828E810E0000E
:1033A0000718272423140B000000C038E000000099
:1033B000203C23020227382008F888888870000003
:1033C000203F202020110E00C030080808083800D7
:1033D000071820202010080008F808080810E0004E
:1033E000203F202020100F0008F88888E8081000EF
:1033F000203F20202320180008F88888E8081000C3
:10340000203F200003000000C030080808380000FA
:1034100007182020221E020008F808000008F808FB
:10342000203F210101213F20000808F80808000082
:103430000020203F2020000000000808F8080800B5
:10344000C08080807F00000008F888C0281808002D
:10345000203F20012638200008F808000000000066
:10346000203F20202020300008F8F800F8F808005D
:10347000203F003F003F200008F830C00008F80857
:10348000203F200007183F00E01008080810E00067
:103490000F10202020100F0008F808080808F0007E
:1034A000203F210101010000E01008080810E000A1
:1034B0000F18242438504F0008F888888888700036
:1034C000203F2000030C30200070880808083800D6
:1034D0000038202121221C00180808F808081800CC
:1034E0000000203F2000000008F808000008F8084D
:1034F000001F202020201F000878880000C83808FE
:10350000000007380E010000F80800F80008F80075
:10351000033C0700073C030008186880806818080F
:1035200020302C03032C30200838C800C83808008D
:103530000000203F2000000010080808C8380800DC
:103540002038262120201800000000FE0202020080
:103550000000007F40404000000C30C00000000030
:10356000000000010638C00000020202FE00000058
:10357000004040407F0000000000040202020400FE
:10358000000000000000000000000000000000003B
:103590008080808080808080000202040000000023
:1035A000000000000000000000008080808000001B
:1035B0000019242222223F2008F800808000000009
:1035C000003F112020110E000000008080800000CC
:1035D000000E112020201100000000808088F800DB
:1035E000000E112020103F2000008080808000000D
:1035F000001F222222221300008080F08888881871
:103600000020203F2020000000008080808080007B
:10361000006B94949493600008F800808080000010
:10362000203F210000203F200080989800000000EB
:103630000020203F2020000000000080989800001B
:1036400000C08080807F000008F80000808080003B
:10365000203F24022D302000000808F80000000060
:103660000020203F2020000080808080808080001B
:10367000203F20003F20003F8080008080800000AD
:10368000203F210000203F2000008080808000003B
:10369000001F202020201F0080800080800000006C
:1036A00080FFA12020110E0000000080808080009B
:1036B000000E112020A0FF8080808000808080008C
:1036C00020203F21200001000000808080808000B9
:1036D0000033242424241900008080E0808000002E
:1036E0000000001F2020000080800000008080007B
:1036F000001F202020103F208080800000808080DC
:1037000000010E300806010080800080008080806B
:103710000F300C030C300F00008080008080800090
:103720000020312E0E3120008080800000808080BB
:1037300080818E701806010000808080808080006B
:103740000021302C2221300000000000807C020289
:1037500000000000003F404000000000FF000000AB
:1037600000000000FF0000000002027C800000005A
:103770000040403F00000000000601010202040476
:103780000000000000000000000000000000000039
:103790000000000000000000000000000000000029
:1037A0000000000000000000000000000000000019
:1037B00000F0F0F0000000000000000000017F01B8
:1037C0000000000000000000001C1C1C00000000A5
:1037D00000008060301C8C60301C0C000000000079
:1037E00000000000000000000000000000000000D9
:1037F00000000000000000E00000000000E0000009
:103800000086E69F86868686E69F860000011F0169
:10381000010101011F010100000080C06020F820AB
:10382000E0C00000000003070C18FF70E1810000F9
:103830000000070F10107F100F070000806020604D
:1038400080000000E02000000F3020309F70DC3747
:103850001030C0000000100E0300071810180700F9
:103860000000C02020E0C0000000000080E01F3801
:10387000E88703C43C040000070F1810100B070D65
:103880001010080000808C4C380000000000000080
:103890000000000000000000000000000000000028
:1038A000000000000000000000000000000080E0B8
:1038B000300804000000000000FEFF0100000000CE
:1038C000000000000000030F182040000004083032
:1038D000E0800000000000000000000001FFFE008A
:1038E00000000000004020180F030000000000004E
:1038F000000000000000C0000000000000426666FA
:103900003C18FF183C6666420000000000000300FF
:103910000000000000000000000080000000000027
:10392000001010101010FF101010101000000000F8
:103930000000030000000000000000000000000084
:103940000000000000000000000000000000000077
:1039500000808C4C380000000000000000000000D7
:1039600000000000000000000010101010101010E7
:103970001010100000000000000000000000000017
:103980000000000000000000000000000000000037
:10399000000000000000000000001C1C1C000000D3
:1039A000000000000000000000000000E0380C00F3
:1039B0000000000080701C03000000000060380E52
:1039C0000100000000000000000080C060202060B6
:1039D000C080000000FEFF010000000001FFFE00AB
:1039E0000001070E181010180E070100000080805B
:1039F00080C0E000000000000000000000FFFF00A9
:103A00000000000000001010101F1F101010000018
:103A10000080402020202060C080000000030300C0
:103A2000804020381F070000001C1A1918181818A9
:103A3000181F00000080C020202060C0800000000F
:103A4000000303001010182FE780000000070F107C
:103A5000101010180F070000000000000000C0E068
:103A6000F000000000C0B088868180FFFF808000E9
:103A7000000000000010101F1F1010000000E06088
:103A8000606060606060000000003F100808081877
:103A9000F0E0000000070B101010101C0F030000D6
:103AA000000080C040202020E0C0000000FCFF217A
:103AB0001008080818F0E0000001070C181010109A
:103AC000080F03000000C0E06060606060E060001C
:103AD000000003000000E0180700000000000000E4
:103AE000001F1F00000000000080C0602020202078
:103AF00060C080000087EF2C1818303068CF83003A
:103B000000070F0810101010180F07000000C0C0A9
:103B100020202020C0800000001F3F604040402047
:103B200010FFFE0000000C1C101010080F03000016
:103B30000000000000000000000000000000000085
:103B4000000E0E0E0000000000000000001C1C1CF7
:103B50000000000000000000000000000000000065
:103B600000000000000C0C0000000000000000003D
:103B70000058380000000000000000000000008035
:103B800040201000000010284482010000000000C6
:103B90000000000000000102040810000000000006
:103BA0000000000000000000008484848484848479
:103BB0008484840000000000000000000000000079
:103BC0000000102040800000000000000000000005
:103BD00000000182442810000000100804020100C7
:103BE0000000000000C020201010101030E0C000C5
:103BF0000003030000F010080C07030000000000A1
:103C00001C1C1C0000000000000000C040602020C0
:103C10002040C00000FCFF01F00E03C1FE03807FC6
:103C20000001070E08111110110904020000000024
:103C300080E0E000000000000000807C4340477FFF
:103C4000F880000010181F1000000000131F1C1047
:103C500020E0E02020202060C080000000FFFF1056
:103C6000101010182FE78000101F1F1010101010D8
:103C7000180F0700000080C0402020202060E000D6
:103C800000FCFF0100000000000001000001070E21
:103C9000181010100804030020E0E020202020402D
:103CA000C080000000FFFF000000000001FFFE00D8
:103CB000101F1F10101018080E07010020E0E02050
:103CC000202020202060800000FFFF101010107CBA
:103CD00000000000101F1F10101010101018060018
:103CE00020E0E020202020206060800000FFFF1006
:103CF0001010107C00000100101F1F1000000000B9
:103D000000000000000080C06020202040E0000093
:103D100000FCFF0100004040C0C140400001070E10
:103D2000181010100F0F000020E0E020000000002D
:103D300020E0E02000FFFF101010101010FFFF0027
:103D4000101F1F1000000000101F1F100000202077
:103D500020E0E020202000000000000000FFFF0025
:103D60000000000000001010101F1F1010100000B5
:103D700000000000202020E0E020202000000000C3
:103D8000000000FFFF0000000060E0808080C07F36
:103D90003F00000020E0E020000020A06020200084
:103DA00000FFFF30187CE3C000000000101F1F1050
:103DB000000001131F1C181020E0E020000000008C
:103DC0000000000000FFFF000000000000000000F5
:103DD000101F1F10101010101018060020E0E0E057
:103DE00000000000E0E0E02000FF013FFEC0E01E18
:103DF00001FFFF00101F1000031F0300101F1F1002
:103E000020E0E0C0000000000020E02000FF0003F0
:103E1000071C78E08000FF00101F10000000000069
:103E2000030F1F00000080C060202060C0800000E1
:103E300000FEFF010000000000FFFE000001070E71
:103E4000181010180C07010020E0E020202020208E
:103E500060C0800000FFFF2020202020301F0F00C6
:103E6000101F1F100000000000000000000080C0B4
:103E700060202060C080000000FEFF010000000004
:103E800000FFFE000001070E1111133C7C672100AA
:103E900020E0E0202020202060C0800000FFFF10F4
:103EA0001030F0D0080F0700101F1F100000000393
:103EB0000F1C10100080C060202020204040E00037
:103EC00000070F0C1818303060E08100001F0C084C
:103ED00010101010180F07008060202020E0E02054
:103EE000202060800100000000FFFF0000000001B2
:103EF00000000000101F1F100000000020E0E02064
:103F0000000000000020E02000FFFF000000000093
:103F10000000FF0000070F18101010101008070015
:103F20002060E0E02000000020E060200000077F2B
:103F3000F88000807C03000000000000071F1C07C1
:103F40000000000020E0E02000E0E0200020E02071
:103F50000007FFF8E01FFFFCE01F00000000031F48
:103F60000300011F03000000002060E0A00000200B
:103F7000E0602000000000038F7CF8C60100000014
:103F80000010181E130001171F1810002060E0E039
:103F90002000000020E06020000001073EF8E0184B
:103FA0000700000000000010101F1F10100000008C
:103FB00000806020202020A0E0E020000000000021
:103FC000C0F03E0F0300000000101C1F171010105F
:103FD000101806000000000000FC040404040400A3
:103FE0000000000000FF00000000000000000000D2
:103FF000007F404040404000000010E00000000012
:104000000000000000000000031C608000000000B1
:1040100000000000000000030C7080000000040499
:10402000040404FC0000000000000000000000FF89
:1040300000000000000040404040407F00000000C1
:1040400000000010080C040C081000000000000024
:104050000000000000000000000000000000000060
:104060000000000000000000000000000000000050
:104070000000000000000000000000008080808040
:104080008080808080808080000000040408080018
:104090000000000000000000000000000000000020
:1040A0000000000000000000000000000000000010
:1040B0000000000000000000000098D844642424A0
:1040C000FCF80000000F1F18101010081F1F101818
:1040D0000020E0F000000000000000000000FFFFF2
:1040E000180804040CF8F00000001F0F181010103E
:1040F000180F030000000000000000000000000096
:1041000000E0F8180404043C3800000000030F0C21
:104110001010101008060000000000000000002031
:10412000E0F0000000E0F81C04040408FFFF0000B9
:1041300000030F18101010081F0F080000000000E7
:1041400000000000000000000000E0F84844444483
:104150004C7870000000030F0C18101010080400B9
:104160000000000080C0602020E0C00000040404C3
:10417000FFFF040404040000000010101F1F1010B3
:10418000100000000000000000000000000000001F
:10419000000070F88C04048CF874040C007076CF66
:1041A0008D8D8D89C87870000020E0F0000000003F
:1041B000000000000000FFFF08040404FCF80000F9
:1041C00000101F1F100000101F1F10000000000033
:1041D00000606000000000000000040404FCFC001B
:1041E0000000000000001010101F1F101010000031
:1041F00000000000000000606000000000000000FF
:10420000040404FCFC0000000000C0C08080C07FEB
:104210003F0000000020E0F000000000000000006F
:104220000000FFFF80C0F41C0404000000101F1FEA
:104230001100031F1C1010000000202020E0F000DF
:10424000000000000000000000FFFF000000000070
:1042500000001010101F1F101010000000000000C0
:10426000000000000000000004FCFC0804FCFC0846
:1042700004FCFC00101F1F10001F1F10001F1F1048
:104280000000000000000000000000000004FCFC32
:1042900008080404FCF8000000101F1F10000010A4
:1042A0001F1F1000000000000000000000000000C0
:1042B00000E0F0180C04040C18F0E00000030F0CF0
:1042C000101010100C0F0300000000000000000090
:1042D000000000000004FCFC080404040CF8F000DA
:1042E0000080FFFF889010101C0F030000000000EA
:1042F000000000000000000000E0F81C04040408B6
:10430000F8FC000000030F1810109088FFFF8000D9
:10431000000000000000000000000000040404FC95
:10432000FC100804040C0C001010101F1F101010BB
:10433000000000000000000000000000000000007D
:1043400000003078CCC48484840C1C0000001E184B
:1043500010101011190F06000000000000C000002E
:104360000000000000040404FFFF04040400000037
:10437000000000000F1F1010100C000000000000D3
:1043800000000000000000000004FCFE000000042B
:10439000FCFE000000000F1F181010081F0F08007F
:1043A00000000000000000000000000000040C3CC1
:1043B000FCC40000C43C0C0400000000010F1E0EF1
:1043C00001000000000000000000000000000000EC
:1043D000043CFCC400E47CFC84807C040000071FD7
:1043E000070000071F070000000000000000000099
:1043F000000000000004041C7CE4C0341C04040021
:104400000010101C1601131F1C18100000000000E3
:10441000000000000000000000040C3CFCC400C4CC
:104420003C0404000000C080C1370E010000000001
:1044300000000000000000000000000000001C045C
:1044400004C4F47C1C0400000000101C1F17111091
:1044500010180E0000000000000000F80C0400001E
:1044600000000000001028EF000000000000000025
:104470000000003F60400000000000000000FF005E
:1044800000000000000000000000FF00000000002D
:10449000000000000000FF00000000000000040C0D
:1044A000F80000000000000000000000EF281000ED
:1044B00000000000000040603F000000000000001D
:1044C0000018060202040810202030080000000036
:1044D00000000000000000000000000000000000DC
:1044E000000000000000F010101010FF101010105D
:1044F000F000000000000F04040404FF040404049E
:104500000F0000004040405F555555755555555FAB
:10451000404040000040200F094989790909090FEE
:104520002040000000FE02424ACA4A4ACA4A4A42A1
:1045300002FE000000FF40504C4340404F50505C92
:1045400040FF00000000F888888888FF88888888F5
:10455000F800000000001F080808087F8888888885
:104560009F80F00080828282828282E2A2928A868A
:1045700082808000000000000040807F000000007A
:1045800000000000101010FF109008888888FF8835
:10459000888808000444827F01808040432C1028D2
:1045A000468180000010101010D030FF30D0121C57
:1045B0001010000010080402010000FF00000102BA
:1045C0000408100004040484E43C2724242424E484
:1045D0000404040004020100FF0909090949897F54
:1045E0000000000000FE225A8600FE9292929292F3
:1045F000FE00000000FF04080700FF4020030C1429
:10460000224140000080402018068000071820400A
:10461000800000000100207028262120202438601E
:1046200000010100001012929292929292121202D4
:10463000FE0000000000003F101010103F004080FE
:104640007F000000000000C080808080808080FCAF
:1046500084808080808080C0C0000000000000FF57
:104660007F404040404040FF40404040404040FF8D
:104670007F00000000000000000000000000007F3C
:1046800070000000000000000000000000000000BA
:104690000000000000000000000000FCF800000026
:1046A000000000000000000000000000000000000A
:1046B000FFFE020202020202020202FFFF020202E7
:1046C000020202020202FF030000000000000000DC
:1046D0001F1F040404040404040404FFFF0404046E
:1046E0000404040404041F00000000000000000093
:1046F00000000000000000000000007F3F000000FC
:1047000000000000000000000000000000000000A9
:104710000000000000000000000000000000000099
:10472000000000000000000000F8F8F0F070200029
:104730000000000000000000000000000000000079
:104740000000000000000000000000000000000069
:1047500000000000800000000000000000000000D9
:10476000000000000000000000FFFFFFFF0000004D
:104770000000000000000000000000000000000039
:104780008080000000000000000000000000000029
:104790000000000000FFFFFE0606060606060606ED
:1047A000060606060606060606FFFFFFFF060606C5
:1047B000060606060606060606060606060606FFA0
:1047C000FFFFFF07020000000000000000000000E3
:1047D0000000000000FFFFFF0000000000000000DC
:1047E000000000000000000000FFFFFFFF000000CD
:1047F000000000000000000000000000000000FFBA
:10480000FFFFFF00000000000000000000000000AB
:104810000000000000FFFFFF1818181818181818DB
:10482000181818181818181818FFFFFFFF1818186C
:10483000181818181818181818181818181818FF11
:10484000FFFFFF000000000000000000000000006B
:104850000000000002010100000000000000000054
:10486000000000000000000000FFFFFFFF0000004C
:104870000000000000000000000000000000000137
:104880000100000000000000000000000000000027
:104890000000000000000000000000000000000018
:1048A000000000000000000000FFFFFFFF0000000C
:1048B00000000000000000000000000000000000F8
:1048C00000000000000000000000000000000000E8
:1048D00000000000000000000000000000000000D8
:1048E0000000000000000000001F1F0F0F0000006C
:1048F00000000000000000000000000000000000B8
:1049000000000000000000000000000000000000A7
:10491000000000000102030406070809000000006F
:104920000102030444490008000000204400000084
:104930007827000888490008440000205C0C00002B
:1049400088270008000000000000000000000000B0
:104950000000000000000000000000000000C8424D
:104960000000000000000000000000000000000047
:10497000CEFFFFFF0000000001000000100000005B
:08498000000000000024F40017
:04000005080000ED02
:00000001FF
