:020000040800F2
:10000000D00C00200501000809220008211D00086D
:100010009D2100085B090008452A00080000000037
:10002000000000000000000000000000E5250008BE
:100030007D09000800000000812500083D26000819
:100040001F0100081F0100081F0100081F01000810
:100050001F0100081F0100081F0100081F01000800
:100060001F0100081F0100081F0100081F010008F0
:100070001F0100081F0100081F0100081F010008E0
:100080001F0100081F0100081F0100081F010008D0
:100090001F0100081F0100081F0100081F010008C0
:1000A0001F0100081F0100081F0100081F010008B0
:1000B000A12600081F0100081F0100081F010008F9
:1000C0001F0100081F0100081F0100081F01000890
:1000D0001F0100081F0100081F0100081F01000880
:1000E0001F0100081F0100081F010008DFF810D0E1
:1000F00000F000FC00480047D1350008AFF3008055
:10010000D00C00200648804706480047FEE7FEE77F
:10011000FEE7FEE7FEE7FEE7FEE7FEE7FEE7FEE7B7
:100120009F260008ED000008202A04DB203A21FA6F
:1001300002F00021704721FA02F3D040C2F1200200
:100140009140084319467047D2B201E000F8012BF4
:10015000491EFBD270470022F6E710B513460A4647
:1001600004461946FFF7F0FF204610BDF0B480EAC0
:100170000102D40F4200B2EB410F02D20246084600
:1001800011464A0042D0C30DDDB2C1F3C752AD1AC9
:10019000202D35DAC1F3160141F4000204B15242B8
:1001A000C5F1200602FA06F12A411044B3EBD05FF4
:1001B00023D0C4B1012DA0EBC35009DCF0BC4FF03B
:1001C000004202EAC352DBB200F5000000F0C0B901
:1001D000400000F1807000EBC350A0F1807040EA55
:1001E000D170490009E0490841EAC071A0EBC35051
:1001F00000F50000400800EBC350F0BC00F09FB9D0
:100200006142012202EB4101001BF6E7F0BC70479E
:1002100081F00041AAE780F00040A7E780EA0102F0
:1002200010B502F00043400022D04A001FD0010E5A
:1002300001EB1261C0F35600C2F3560240F4000015
:1002400042F40002A0FB022000047F39140400D015
:10025000401C50EA124001D44000491EC2B20C06B4
:1002600004EBD010401C4008802A02D003E000209C
:1002700010BD20F00100002900DA0020184310BD55
:10028000420005D0C0F3C7525242914201DC002027
:10029000704700EBC15070472DE9FE4F81EA03041F
:1002A00004F0004421F0004100944FF0000B23F0D3
:1002B000004350EA01045ED052EA03045BD0C3F36A
:1002C0000A54C1F30A552C44A4F2F3340194A0FB60
:1002D0000254C1F3130141F48011C3F3130343F437
:1002E000801301FB024400FB034E840A970A44EA90
:1002F000815447EA8357A4FB076802958D0A05FBE2
:1003000007854FEA932C04FB0C542705029D4FEA06
:10031000065847EA1637B5EB08056EEB070C870E53
:10032000920E47EA811742EA8312A7FB0201B6EB5D
:100330000B0164EB00042B0D43EA0C335E1844EB15
:100340001C50DA465146E7FB0201C5F313044FEA9D
:100350000B3343EA14534FEA0432019C43EA060389
:10036000A4F10C040294009CCDE900B400F02DF936
:1003700003B0BDE8F08F00200146F9E770B521F029
:10038000004303430CD0C1F30A550024D5EB040508
:1003900064EB0403D617AD1AB34102DB002001461B
:1003A00070BD201841EB025170BDC10F80EAE070B2
:1003B0000844CA079623002100F0CAB80EB5C10F41
:1003C00080EAE0700844CA07002140F233438DE818
:1003D0000E000A460B4600F0F8F803B000BD0EB55B
:1003E00040F2334102910021CDE900110A460B464B
:1003F00000F0EBF803B000BD00F0004220F0004038
:10040000C10DC0F3160040F400007F2901DA00207E
:100410007047962903DCC1F19601C84001E0963986
:100420008840002AF4D04042704700F0004230F08B
:1004300000400AD0C10D01F56071C0F3160042EA18
:100440000151C20840071143704700200146704720
:1004500001F0004330B421F0004150EA010206D01F
:100460000A0DA2F56072C1F31301002A02DC30BC50
:1004700000207047440F44EAC104C100E01830BCBA
:1004800000EBC25000F05BB8002801DBC0F1004077
:10049000002901DBC1F1004181427047002801DBE6
:1004A000C0F10040002901DBC1F1004188427047E2
:1004B00030B50B46014600202022012409E021FA34
:1004C00002F59D4205D303FA02F5491B04FA02F531
:1004D0002844151EA2F10102F1DC30BD2DE9F05FC8
:1004E0000546002092469B468846064681464024A3
:1004F0001BE02846414647462246FFF715FE534675
:100500005A46C01A914110D311461846224600F0AF
:1005100003FA2D1A67EB01084F46224601200021FD
:1005200000F0FAF917EB00094E41201EA4F1010476
:10053000DFDC484631462A464346BDE8F09F0029A5
:10054000A8BF7047401C490008BF20F00100704759
:1005500010B4B0FA80FC00FA0CF050EA010404BFB9
:1005600010BC704749B1CCF1200421FA04F411FA0F
:100570000CF118BF012121430843A3EB0C01CB1D53
:100580004FEA00614FEA102042BF002010BC7047C4
:1005900000EBC35010440029A4BF10BC7047401C9E
:1005A000490008BF20F0010010BC704710B5141EB0
:1005B00073F1000408DA401C41F1000192185B411C
:1005C0001A4301D120F0010010BD2DE9F04D9246F3
:1005D0009B4611B1B1FA81F202E0B0FA80F220320A
:1005E000904600F099F904460F4640EA0A0041EAB5
:1005F0000B0153465A46084313D0114653EA0100F3
:1006000019D0C8F140025046FFF78EFD05460E4650
:1006100050465946424600F07FF9084305D0012074
:1006200004E020463946BDE8F08D0020054346EA47
:10063000E0762C4337430A986305E40AA0EB0800F0
:100640000022FD0A44EA47540A3002D50020014640
:10065000E9E7010510196941DDE90845001969411B
:10066000BDE8F04DA2E72DE9FE4F804681EA030088
:10067000C00F0C46009021F0004123F00045B8EB7C
:100680000200A94105D24046214690461C460B4631
:10069000024623F00040104347D0270DC7F30A005D
:1006A000C3F30A510290401A019040286BDAC3F359
:1006B000130040F4801B0098924620B10023D2EB37
:1006C000030A63EB0B0B01985946C0F140025046F8
:1006D00000F022F906460D4650465946019A00F0B0
:1006E0002AF910EB08006141002487EA115284EADC
:1006F000E7731A4340D0009A62B3019A012A4FEA85
:10070000075215DC001B61EB02014FF0004202EAC8
:100710000752CDE90042001C41F5801132462B46BC
:10072000FFF753FF03B0BDE8F08F40462146F9E7DD
:10073000001B61EB0201001C41F5801300185B41B6
:100740002018A2F5001747EB030140EAD570B6194F
:100750006D4111E06D084FEA360645EAC0754FEA73
:100760000752001B61EB0201001C41F58011490892
:100770004FEA30000019514132462B4603B0BDE824
:10078000F04FFFF713BF0098012240000023D0EB89
:10079000020263EBE073009821464FEAE074B8EB85
:1007A000000061EB0401E9E783F000435BE781F0BF
:1007B000004158E72DE9F04D81EA030404F0004BB5
:1007C00021F0004514464FF0000A23F0004150EAA2
:1007D000050220D054EA01021DD0C5F30A57024693
:1007E000C5F31303C1F31300C1F30A5640F4801597
:1007F00043F48013A7EB0608101BD64608F2FD3819
:1008000073EB050002D308F1010801E092185B4187
:10081000B8F1000F03DA00200146BDE8F08D00209A
:100820004FF48011064684460EE0171B73EB050754
:1008300005D3121B63EB050306434CEA010C490880
:100840004FEA300092185B4150EA0107EDD152EABD
:10085000030012D082EA040083EA0501084305D0B0
:10086000101BAB4106D20122002306E000224FF00C
:10087000004302E06FF0010253101AEB06004CEB4C
:10088000085110EB0A0041EB0B01BDE8F04DFFF7FA
:100890008DBEC1F30A52C1F3130140F2FF3341F49C
:1008A00080119A4202DA00200146704740F2334339
:1008B0009A42A2F2334202DC5242FFF735BC00F00A
:1008C0002BB8000030B5041E71F1000404DB4FF0BA
:1008D0000044404264EB0101141E73F1000405DB87
:1008E0001C464FF00043524263EB0403994208BF99
:1008F000904230BD064C074D06E0E06840F0010331
:1009000094E8070098471034AC42F6D3FFF7F2FBA7
:10091000E055000800560008202A04DB203A00FABF
:1009200002F1002070479140C2F1200320FA03F346
:10093000194390407047202A06DBCB17203A41FA32
:1009400002F043EAE07306E041FA02F3D040C2F15C
:1009500020029140084319467047FEE710B5FFF7A3
:100960002DFD044A044BFFF797FCBDE81040FFF74C
:100970006FBD0000DE3B6A4C88B9843F70470000C1
:10098000064908B50968064AC908B1FBF2F14143B6
:10099000009100BF491E0091FBD208BD5C00002001
:1009A00040420F0072B6FEE707480068416A074AF6
:1009B0004942118006490B685B6A5B425380002202
:1009C0004262086842627047F8050020000000207B
:1009D0004006002070B5044600F010F90546601C82
:1009E00002D004480078044400F008F9401BA042FB
:1009F000FAD370BD500000202DE9F84FDFF8B89110
:100A0000002409F1040A0AF1040B23460F270BF115
:100A1000040EC9E00125A5402A40AA427DD1674EB7
:100A2000D1F804C0ACEB0608B44532D014DCBCF1FC
:100A3000030F3AD009DCBCF1000F2AD0BCF1010F42
:100A40001CD0BCF1020F31D11DE0BCF1110F17D049
:100A5000BCF1120F2AD119E0B8F5881F19D006DCB5
:100A6000B8F5803F15D0B8F5801F1FD111E0B8F55B
:100A7000001F0ED0B8F5041F18D10AE0CB6815E0AE
:100A8000CB681B1D12E0CB6808330FE0CB680C333A
:100A90000CE08B682BB1012B4FF0080303D04561AC
:100AA00004E0042302E0056100E00023FF2A01D8EE
:100AB000064601E000F104064FEA840501D9A5F1DC
:100AC0002005D6F8008007FA05FC28EA0C0803FA8E
:100AD00005F548EA0508C6F800804D68ED0062D5C6
:100AE000374DAE6946F00106AE61AD6924F00306EC
:100AF00005F001050095334D06EB050CDCF80850B8
:100B0000A607360F07FA06F825EA0805DFF8B880C9
:100B1000404503D14FF0000817E044E0DFF8AC8017
:100B2000404502D14FF001080FE0DFF8A4804045B6
:100B300002D14FF0020808E0DFF89880404502D16A
:100B40004FF0030801E04FF0040808FA06F848EAFD
:100B50000508CCF808804D68D9F80060ED034D46D3
:100B600001D5164300E096432E604D68DAF8006028
:100B7000AD03554601D5164300E096432E604D68FF
:100B8000DBF80060ED025D4601D5164300E09643B8
:100B90002E604D68DEF80060AD02754601D5164343
:100BA00000E096432E60641C0D682A46E5407FF401
:100BB00031AFBDE8F88F00000004014000001110C3
:100BC000001002400000014000080140000C0140FC
:100BD00000100140001401408068084000D001204E
:100BE0007047C26821EA02030A4043EA02410161F8
:100BF00070470AB1016170470904FBE7014880684A
:100C000070470000500000200248816802781144BB
:100C10008160704750000020074810B5016841F01E
:100C200010010160032000F075F80F2000F006F8B5
:100C300000F024F8002010BD0020024070B50D4DDA
:100C400004464FF47A712878B1FBF0F00A4909683C
:100C5000B1FBF0F000F0ECFA48B9102C07D20022FA
:100C60002146501E00F036F800206C6070BD012057
:100C700070BD0000500000205C0000200C4808B54A
:100C8000816941F001018161816901F001010091F7
:100C9000C16941F08051C161C06900F0805000908D
:100CA0000448416821F0E06141F00071416008BDF5
:100CB0000010024000000140002809DB00F01F0284
:100CC000012191404009800000F1E020C0F80011AE
:100CD00070470000F0B40E4B1B680C46C3F30223B0
:100CE000C3F10705042D00D90425191D072901D2D8
:100CF000002300E0DB1E012606FA05F1491E214013
:100D000099409E40761E16403143F0BC01F00CBF66
:100D10000CED00E0064900F0070208684FF6FF03FB
:100D2000184040EA0220034A104308607047000060
:100D30000CED00E00000FA052DE9F0470F46050034
:100D400061D0434E306800F00700B84209D23068E5
:100D500020F0070038433060306800F00700B842E8
:100D600051D128683B4C810712D5400703D56068F4
:100D700040F4E06060602878000703D5606840F4C4
:100D8000605060606068A96820F0F000084360600F
:100D90002878C00728D06868012810D02168022868
:100DA00010D0890700292EDA616821F00301014380
:100DB0006160FFF723FF804641F288390DE021682A
:100DC0008903EFE78901EDE7FFF718FFA0EB0801C2
:100DD000494502D90320BDE8F0876068696800F0E2
:100DE0000C00B0EB810FEFD1306800F00700B84283
:100DF0000BD9306820F0070038433060306800F0CD
:100E00000700B84201D00120E5E72878400705D562
:100E10006068E96820F4E0600843606028780007B3
:100E200006D56068296920F4605040EAC10060601E
:100E300000F038F86168084AC1F30311515CC840FA
:100E40000649086006480068FFF7F8FE0020C2E780
:100E50000020024000100240C85500085C0000203D
:100E6000540000200448054900684968044AC1F359
:100E70000221515CC84070475C0000200010024015
:100E8000D85500080448054900684968044AC1F378
:100E9000C221515CC84070475C0000200010024035
:100EA000D855000812A185B00FC98DE80F0014A015
:100EB000144A006804905168134801F00C03042B95
:100EC00010D0082B0ED1C1F38343C9031DF80300D2
:100ED0000AD5516804AAC1F34041515C0A4A504303
:100EE000B0FBF1F005B0704708494843FAE700004D
:100EF00002030405060708090A0B0C0D0E0F10105B
:100F0000010200000010024000127A0000093D00BA
:100F10002DE9F84F040070D02078C04DC00749D0AB
:100F20006868C0F38100012807D06868C0F38100B9
:100F3000022809D16868C00306D52868800339D51E
:100F400060680028E7D035E06068B0F5803F0BD0DE
:100F500010B1B0F5A02F11D0286820F4803028609F
:100F6000286820F4802002E0286840F4803028605F
:100F7000606890B1FFF742FE06460AE0286840F438
:100F800080202860F0E700BFFFF738FE801B642850
:100F900073D828688003F7D50CE0FFF72FFE0646CC
:100FA00005E000BFFFF72AFE801B6428F0D8286800
:100FB0008003F7D420789A4E80074FF001094FF054
:100FC000000839D5686810F00C0F07D06868C0F3C6
:100FD0008100022809D16868C00306D42868800708
:100FE00014D52069012808D110E02069B0B1C6F8F5
:100FF0000090FFF703FE074605E00AE1FFF7FEFD5C
:10100000C01B0228C4D828688007F7D52868616902
:1010100020F0F80040EAC10028600DE0C6F800802A
:10102000FFF7ECFD074604E0FFF7E8FDC01B0228D0
:1010300023D828688007F7D4207800072CD5794872
:10104000A169D9B1C0F80090FFF7D8FD074604E0C8
:10105000FFF7D4FDC01B02280FD8686A8007F7D5B8
:1010600071484FF4FA510068B0FBF1F0009000BFF6
:101070000098411E0091FAD20EE080E0C0F8008096
:10108000FFF7BCFD074604E0FFF7B8FDC01B0228D0
:1010900075D8686A8007F7D42078400760D5E8697A
:1010A0000027C00008D4E86940F08050E861E86992
:1010B000012700F0805000905C480168C90513D4F6
:1010C0000168834641F480710160FFF797FD824615
:1010D00006E000BFFFF792FDA0EB0A0064284ED89F
:1010E000DBF80000C005F5D5E06801280AD008B19A
:1010F000052813D0286A20F001002862286A20F011
:10110000040002E0286A40F001002862E06841F231
:10111000883B98B1FFF772FD82460BE0286A40F0E9
:1011200004002862EEE700BFFFF768FDA0EB0A01AC
:1011300059455AD8286A8007F6D50CE0FFF75EFDBE
:10114000824605E0FFF75AFDA0EB0A0159454CD84D
:10115000286A8007F6D41FB1E86920F08050E86162
:10116000E06988B36968C1F38101022944D002288B
:10117000C6F8608004D0FFF741FD044638E034E053
:10118000FFF73CFD074604E0FFF738FDC01B0228CF
:101190002BD828688001F7D4206AB0F5803F05D1AC
:1011A0006868A16820F4003008436860D4E9080149
:1011B0000843696821F4741108436860C6F86090B8
:1011C000FFF71CFD044606E025E000BFFFF716FD13
:1011D000001B022809D828688001F7D51BE000BF52
:1011E000FFF70CFD001B022802D90320BDE8F88F91
:1011F00028688001F4D40EE00128F7D06868226ADC
:1012000000F48031914204D1616A00F47010884288
:1012100001D00120EAE70020E8E7000000100240CA
:1012200000004242800442425C0000200070004006
:1012300010B5401EB0F1807F01D3012010BD4FF0EA
:10124000E02460610F21601701F06EFC0020A061B6
:1012500007202061002010BD7047704710B590F83E
:101260003C20012A22D0012280F83C20CA688C68E8
:1012700022F4407222434C6822F4806222430C68BC
:1012800022F4006222430C6922F4805222434C690A
:1012900022F400522243C969002322F480420A4307
:1012A00001684A6480F83C30002010BD022010BD67
:1012B00070B590F83C20012A26D0012480F83C40EB
:1012C000022280F83D2003685A689D6822F070066B
:1012D0000A6832435A600D4B02689A4208D0B2F154
:1012E000804F05D00A4B9A4202D00A4B9A4204D151
:1012F000496825F080031943916080F83D40002142
:1013000080F83C10084670BD022070BD002C0140E2
:10131000000400400008004010B5040003D094F819
:101320003D0010B107E0012010BD002084F83C0012
:10133000204600F01FF8022084F83D00211D20689F
:1013400001F0B4F9012084F8460084F83E0084F8E6
:101350003F0084F8400084F8410084F8420084F89B
:10136000430084F8440084F8450084F83D000020E0
:1013700010BD000008B5114A01681148914208D11A
:10138000816941F400618161806900F4006000902E
:1013900008BDB1F1804FFBD1C16941F00101C161CC
:1013A000C069002200F00100009011461C20FFF7E8
:1013B00091FCBDE808401C20FFF77EBC002C0140DA
:1013C0000010024090F83D10012901D00120704723
:1013D000022180F83D100168CA6842F00102CA602B
:1013E00000680B49884208D0B0F1804F05D0094908
:1013F000884202D00849884204D1816801F007017F
:10140000062903D0016841F0010101600020704706
:10141000002C0140000400400008004070B5044664
:1014200090F83C00012817D0012584F83C50022098
:1014300084F83D002068826822F0770222F47F421F
:1014400082600868502830D00DDC20284DD005DCA3
:1014500098B310283BD148E0022070BD302844D01A
:10146000402834D139E0602828D0702806D0B0F563
:10147000805F2CD0B0F5005F29D10AE0CB68D1E9BC
:101480000121206801F055F92068816841F0770159
:1014900009E0CB68D1E90121206801F04AF9206810
:1014A000816841F48041816011E0CA684968206820
:1014B00001F0F4F95021206807E016E0CA68496895
:1014C000206801F0FCF96021206801F03CF984F803
:1014D0003D50002084F83C0070BDCA68496820680F
:1014E00001F0DCF940212068EFE722680146104650
:1014F000EBE72DE9F0410D46040003D094F83D00E0
:1015000018B108E00120BDE8F081002084F83C001B
:10151000204600F041F8022084F83D0020688168F0
:1015200044F2070291438160211D206801F0BEF85A
:10153000226890689169166A2B68AF69034340F28C
:101540000330814341EA0721A868EF6908434FF659
:10155000FC418843E96840EA0720014328692F6A73
:10156000000140EA0730084369686D6926F02206E9
:1015700046EA0515294393602268906154F8460BAA
:101580000162012004F81F09E0752076E0762077DB
:10159000A0750020B7E7000000B585B000210091DC
:1015A0000191029103911F4B02681F491F489A4203
:1015B0001FD1CA6942F00202CA61CA6902F002027E
:1015C00004928A6942F008028A61896901F008017F
:1015D0000491302100916946FFF70EFA14484168E2
:1015E00021F4406141F0E06141F40061416005B0E7
:1015F00000BD104B9A42FAD1CA6942F00402CA6196
:10160000CA6902F0040204928A6942F008028A61FF
:10161000896901F008010491C02100916946FFF732
:10162000EBF9E4E70004004000100240000C014028
:10163000000001400008004070B590F83E6004468C
:1016400090F83F5090F8423090F84320022021B1AA
:1016500004290ED0012E1BD114E0012E18D1012B2C
:1016600016D184F83E0084F842000122002120684F
:1016700020E0012D0CD1012A0AD184F83F0084F822
:10168000430014E0012D03D1012B01D1012A01D027
:10169000012070BD84F83E0084F83F0084F84200C9
:1016A00084F8430001220021206801F035F801226E
:1016B0000421206801F030F82068016841F0010140
:1016C0000160002070BD704770B504460068016974
:1016D0004FF00005C943890715D4C168C94389077C
:1016E00011D4E91E016101202077206880698007FC
:1016F000204602D0FFF7E7FF04E000F0BFF82046E5
:1017000000F04EF9257720680169C943490717D4CD
:10171000C168C943490713D46FF004010161022075
:1017200020772068806910F4407F204602D0FFF7C0
:10173000CAFF04E000F0A2F8204600F031F9257756
:1017400020680169C943090716D4C168C94309075C
:1017500012D46FF008010161042020772068C0696D
:101760008007204602D0FFF7AEFF04E000F086F8C5
:10177000204600F015F9257720680169C943C9069C
:1017800017D4C168C943C90613D46FF010010161B1
:10179000082020772068C06910F4407F204602D0DE
:1017A000FFF791FF04E000F069F8204600F0F8F838
:1017B000257720680169C943C90708D1C168C943B1
:1017C000C90704D1891E0161204600F039F920685B
:1017D0000169C943090609D4C168C943090605D48A
:1017E0006FF0800101612046FFF736FD2068016936
:1017F000C943490609D4C168C943490605D46FF0F5
:1018000040010161204600F0D3F920680169C94315
:1018100089060BD4C168C943890607D46FF020013B
:1018200001612046BDE87040FFF717BD70BD0000A4
:1018300000B585B0002100910191029103910068EB
:101840000B49884212D10B48816941F00401816142
:101850008069694600F0040004904FF440700090E5
:101860000220019003900448FFF7C6F805B000BDC0
:10187000002C01400010024000080140704770B584
:10188000044690F83C000D4601280AD0012084F857
:101890003C0042B1042A18D0082A2AD00C2A4DD183
:1018A00039E0022070BD206800F056FF2068816991
:1018B00041F0080181612068816921F004018161A2
:1018C000206881692A69114311E0206800F06CFFEB
:1018D0002068816941F4006181612068816921F497
:1018E00080618161206881692A6941EA0221816100
:1018F00024E0206800F084FF2068C16941F00801FD
:10190000C1612068C16921F00401C1612068C16919
:101910002A69114311E0206800F09EFF2068C16928
:1019200041F40061C1612068C16921F48061C16135
:101930002068C1692A6941EA0221C161002084F856
:101940003C0070BD10B5040003D094F83D0010B108
:1019500007E0012010BD002084F83C00204600F084
:101960001EF8022084F83D00211D206800F09EFE34
:10197000012084F8460084F83E0084F83F0084F893
:10198000400084F8410084F8420084F8430084F861
:10199000440084F8450084F83D00002010BD7047E5
:1019A0007047000010B50446022249B104290ED048
:1019B000082913D094F84100012816D0012010BD49
:1019C00094F83E000128F9D184F83E200FE094F805
:1019D0003F000128F2D184F83F2008E094F840004D
:1019E0000128EBD184F8402001E084F84120012255
:1019F000206800F091FE0F492068884203D1426CB4
:101A000042F4004242642068884208D0B0F1804F1E
:101A100005D00949884202D00849884204D181682A
:101A200001F00701062903D0016841F001010160BE
:101A3000002010BD002C01400004004000080040C0
:101A40002DE9F0410068B0F1804F32D1534C20466F
:101A5000226BD0E90D10012A29D0002A29D10129B1
:101A600027D1002825D1E069401CE061FEF79CFFEA
:101A70004A4DB5F90200FEF771FF0646B5F90000C0
:101A8000FEF76CFF464D07462A463146286900F0AE
:101A9000DBFF05F1280632463946306900F0D4FFF5
:101AA000E16B606A4FF00007084304D00FE00029A3
:101AB000D7D0BDE8F08101F02BFE3A49A0698842F9
:101AC00005DA6FF03100E0620120606202E0606AD6
:101AD00001285AD1E06BE8BBE06A4FF00201401CDC
:101AE000E06200D52164322807D227646A6AC83AC6
:101AF0006261726A02F58C722261A0F132028C2A54
:101B000003D26A6A6261726A2261A0F1BE020A2A85
:101B100000D22164A0F1C801642906D22764696A51
:101B2000DC316161716A963921614FF496784045E4
:101B300015DB4FF480611C48FFF74EF818B9686A4E
:101B40006061706A2061E06A404508DB4FF4004143
:101B5000164800E019E0FFF73FF8012802D0A06A1C
:101B600000280CDDA06A401CA062696A78396161B6
:101B7000716A8C312161962801D1A7626762D4E92C
:101B8000042194F8400000F00BFBE069042890DD8C
:101B9000E76100F077F8A0618BE70000000000200B
:101BA000F40400200000F84100080140000C01404E
:101BB000704770B5040004D094F83D00002510B1C2
:101BC00006E0012070BD84F83C50204600F022F869
:101BD000242084F83D002068C16821F40051C160D0
:101BE000204600F0D3FE2068016921F49041016194
:101BF0002068416921F02A0141612068C16841F4EF
:101C00000051C1602564202084F83D0084F83E0026
:101C1000002070BD30B585B000240094019402947A
:101C2000039400681449884224D11448C16941F4DE
:101C30008021C161C16901F480210491816941F071
:101C40000801816180690E4D00F0080004904FF496
:101C5000806000900220019003200390694628468E
:101C6000FEF7CAFEE814CDE900046946284602944E
:101C7000FEF7C2FE05B030BD004800400010024033
:101C8000000C01402DE9F0410122204C16030025F3
:101C900031462046FEF7ADFF0F20FEF771FE002211
:101CA00031462046FEF7A5FF194FE61408E0012053
:101CB0006D1CFEF765FEBD4202D91648BDE8F081F5
:101CC00031462046FEF788FF0028F0D0002508E0C6
:101CD00001206D1CFEF754FEBD4202D94FF040407A
:101CE000ECE731462046FEF777FF0128F0D0680088
:101CF000FEF775FB084A094BFEF7CEFA4FF0FF32AC
:101D0000FEF73CFBBDE8F041FEF7A2BB0008014036
:101D1000A0860100000080BF4C37894160E5A03FEC
:101D2000FEE7000070B501220E4D54022146284600
:101D3000FEF75FFF0122160231462846FEF759FFE3
:101D400000F048F8002221462846FEF752FF00F036
:101D500041F8002231462846FEF74BFFBDE87040AF
:101D600000F038B8000C014070B50B4D4FF4007412
:101D7000002221462846FEF73CFF01221102284698
:101D8000FEF737FF00F026F821462846BDE87040F0
:101D90000122FEF72EBF0000000C014070B50C4C74
:101DA000012251022046FEF724FF00F013F8012221
:101DB000150229462046FEF71CFF00F00BF8002212
:101DC00029462046FEF715FFBDE8704000F002B836
:101DD000000C01400320401EC0B2FCD2704700003E
:101DE00010B5064C002201212046FEF702FF2046D6
:101DF0000122BDE810400221FEF7FBBE000C0140AD
:101E000010B5064C012211462046FEF7F2FE204690
:101E10000022BDE810400221FEF7EBBE000C01409D
:101E200010B5064C012211462046FEF7E2FE204680
:101E30000122BDE810400221FEF7DBBE000C01408C
:101E40002DE9F04385B000243C48009401940294AD
:101E50000394816941F010018161816901F01001F1
:101E60000491816941F020018161816901F02001C3
:101E70000491816941F004018161816901F00401EB
:101E80000491816941F00801816180692C4F00F063
:101E900008004FF4C0450490002229463846FEF75A
:101EA000A8FEDFF8A09000224FF482514846FEF7CA
:101EB000A0FE012280214846FEF79BFEDFF88880C5
:101EC000012211464046FEF794FE002240F2023104
:101ED0004046FEF78EFE0095022601250396CDE9C9
:101EE000015469463846FEF787FD4FF48650CDE928
:101EF0000005CDE9024669464846FEF77DFD40F201
:101F00000330CDE90005CDE9024669464046FEF7BB
:101F100073FD4FF47040CDE90004694640460294D9
:101F2000FEF76AFD4FF44060CDE90004694648467B
:101F30000294FEF761FD05B0BDE8F0830010024099
:101F40000010014000080140000C014010B596B09F
:101F500000240F9410941194129413941C21684639
:101F60001494FEF7F8F8202107A8FEF7F4F82C489F
:101F70002A4901600321C0E9011440F2E731C0E9B8
:101F8000031444618461FFF7C7F908B1FEF70AFD45
:101F90004FF480500F900FA92148FFF73FFA08B186
:101FA000FEF700FD1E48FFF7CDFC08B1FEF7FAFC76
:101FB000139413A91A481494FFF77AF908B1FEF79D
:101FC000F1FC6020CDE9000402940394049405948C
:101FD0000022694612480694FFF751FC08B1FEF74B
:101FE000E1FC042269460E48FFF749FC08B1FEF700
:101FF000D9FC0794089409944FF400500A94CDE951
:102000000B4007A906480E94FFF728F908B1FEF720
:10201000C9FC0348FFF70CFC16B010BD002C0140B2
:102020006805002010B586B000241748009401947C
:102030000294039404944FF080410594016040F2AF
:10204000CF21C0E9011440F2CF71C0E903148461CB
:10205000FFF762F908B1FEF7A5FC4FF4805000903D
:1020600069460948FFF7DAF908B1FEF79BFC0494CA
:1020700004A905480594FFF71BF9002801D0FEF7D5
:1020800091FC06B010BD0000B005002010B58CB06A
:1020900024216846FEF75FF8002416480994144985
:1020A0000A94C0E900144FF6FF71C0E90241802193
:1020B000046181610320CDE900040120CDE902041F
:1020C0000494CDE90540079469460A480894FFF74F
:1020D00010FA08B1FEF766FC099409A905480A94AC
:1020E000FFF7E6F8002801D0FEF75CFC0CB010BD4D
:1020F00000040040F805002010B58CB0242168468B
:10210000FEF729F800241648099414490A94C0E9F6
:1021100000144FF6FF71C0E9024180210461816122
:102120000320CDE900040120CDE902040494CDE9A7
:102130000540079469460A480894FFF7DAF908B1A0
:10214000FEF730FC099409A905480A94FFF7B0F896
:10215000002801D0FEF726FC0CB010BD000800409E
:10216000400600200C4810B50A4901604FF4E131E7
:102170004160002181600C22C160C0E904128161CC
:10218000C161FFF716FD002803D0BDE81040FEF73F
:1021900009BC10BD0048004088060020FEE7000092
:1021A00070B5184C15460E4605280CD2DFE800F035
:1021B000030C0F192100FFF723FE00F0F3F920684C
:1021C00086632068456370BDFFF70AFE13E0FFF7E2
:1021D00027FE00F0F7F92168002048632168886332
:1021E00070BDFFF7FDFD00F0DDF920684563206854
:1021F0008663FFF705FE00F0C5F920684563206897
:10220000866370BD68050020FEE7000030B4002141
:10221000084B0A465FF0000003EBC004401CC0B24C
:1022200062548028F8D3491CC9B20829F2D330BCC3
:1022300000F096B86000002030B5CC0801F007032C
:1022400001259D40EBB2064D05EBC005C808285C92
:102250000AB1184302E063EA0000C043285530BDCC
:102260006000002010B53D4C002204212046FEF7FE
:10227000C0FCC820FEF7AEFB012204212046FEF779
:10228000B8FC0021AE2000F02FF90021084600F034
:102290002BF90021102000F027F90021402000F048
:1022A00023F90021812000F01FF90021CF2000F048
:1022B0001BF90021A12000F017F90021C82000F02F
:1022C00013F90021A62000F00FF90021A82000F04A
:1022D0000BF900213F2000F007F90021D32000F086
:1022E00003F90021084600F0FFF80021D52000F096
:1022F000FBF80021802000F0F7F80021D92000F041
:10230000F3F80021F12000F0EFF80021DA2000F0CE
:10231000EBF80021122000F0E7F80021DB2000F0AC
:10232000E3F80021302000F0DFF80021202000F049
:10233000DBF80021022000F0D7F800218D2000F00A
:10234000D3F80021142000F0CFF8FFF75FFF002141
:10235000BDE81040AF2000F0C7B800000008014001
:1023600070B5184E002400BF04F1B000C0B20021C7
:1023700000F0BAF80021084600F0B6F8002110205D
:1023800000F0B2F8FFF7CEFC782000F02DF9FFF74F
:1023900005FD402000F028F9FFF700FD5FF0000583
:1023A00006EBC500005D00F01FF9FFF7F7FC6D1CA0
:1023B000EDB2802DF4D3FFF7D7FC641CE4B2082CF7
:1023C000D2D370BD600000202DE9FC4F1C460E46A4
:1023D00082468B460190082B0DD0600700D001206B
:1023E00000EBD40061084843C0B28146203AD0B225
:1023F000009000204BE00620F7E7082C13D00C2CAF
:1024000018D0102C1BD0182C44D10098234900EB75
:10241000C00000BF01EB8001002711F80850E80759
:1024200012D00B9A13E000981D4900EB400001EB1D
:102430004001F1E700981B4900EB4000EAE71A4928
:10244000009801EB0011E7E70B9828B30022314612
:102450005046FFF7F1FE761C7F1C6D08FFB2F6B206
:10246000082FDCD30AF1010000F0FF0A082C0AD083
:102470000199AAEB0100B0EB540F04D10BF1080055
:102480008A4600F0FF0B08F101005E46C0B28046AC
:102490004845B2D3BDE8FC8F0122D8E74444000888
:1024A000B8370008E0390008543E00082DE9F8412B
:1024B0001E46154688460446079F0BE033464146B4
:1024C00020460097FFF780FF082E0AD004EB560045
:1024D000C4B26D1C2A78A2F120005E28EED9BDE8B6
:1024E000F881A41DE4B2F4E770B50C460546FFF789
:1024F00019FC782000F078F8FFF750FC0CB1402070
:1025000000E0002000F070F8FFF748FC284600F0DB
:102510006BF8FFF743FCBDE87040FFF725BC0000F7
:102520000849016008494160084981600849C16063
:102530000121416100218161C1610162416205495E
:102540000161704700003444000007435C8F423E45
:1025500000801D44B81E053E0749016000214FF070
:102560007E52C0E90112054AC2600122C0E904217D
:102570008161C161016270470000C8C200009643DA
:102580007047000010B5064C012240212046FEF79E
:1025900030FB20460022BDE810408021FEF729BB19
:1025A0000008014010B5064C002240212046FEF7ED
:1025B00020FB20460122BDE810408021FEF719BB18
:1025C0000008014010B5064C012240212046FEF7CC
:1025D00010FB20460122BDE810408021FEF709BB18
:1025E00000080140704700002DE9F041124F00241F
:1025F00005464FF40078BE15280601D5012200E0FB
:10260000002241463846FEF7F4FAFFF7E3FB0122C9
:1026100031463846FEF7EDFAFFF7DCFB0022314683
:102620003846FEF7E6FA6806641C050EE4B2082C8C
:10263000E2D3BDE8F0810000000C0140FEF7E4BAEF
:1026400030B58FB028216846FDF785FD14210AA812
:10265000FDF781FD01210804CDE90010002402945A
:1026600002250491CDE907504FF4E0100990684627
:10267000FEF74EFC08B172B6FEE70F20CDE90A0561
:102680004FF48060CDE90C4002210AA80E94FEF7B9
:1026900053FB002801D072B6FEE70FB030BD704783
:1026A0000148FFF711B80000B0050020F0B502683E
:1026B000164B174C174D4FF08047984205D0B84243
:1026C00003D0A04201D0A84203D122F070064A688C
:1026D0003243984205D0B84203D0A04201D0A8426C
:1026E00003D122F44074CA6822434C6922F080026C
:1026F000224302608A68C2620A688262984201D1FB
:102700000969016301214161F0BD0000002C014015
:10271000000400400008004010B501F01F03012133
:10272000046A99408C430462016A9A401143016231
:1027300010BD10B5846842EA032224F47F440A43A2
:102740002243826010BD826822F070020A4342F088
:10275000070181607047000030B5026A22F0010273
:102760000262026A4368846924F073050C682C4392
:1027700022F002058A682A430A4DA8420BD122F0B2
:102780000805CA6823F440732A434D6922F0040205
:102790001D438B692B434360846149684163026236
:1027A00030BD0000002C014030B5026A22F010025A
:1027B0000262026A436884690D6824F4E64444EACC
:1027C00005248D6822F0200242EA05120B4DA84232
:1027D0000ED1CD6822F0800242EA05124D6923F441
:1027E000406343EA85038D6922F0400243EA850392
:1027F0004360846149688163026230BD002C0140FE
:1028000030B5026A22F480720262036A4268C469C7
:1028100023F4007324F073050C682C438D6843EA9D
:1028200005230C4DA8420ED1CD6823F4006343EA82
:1028300005234D6922F4405242EA05128D6923F4C2
:10284000806342EA05124260C4614968C163036261
:1028500030BD0000002C014030B5026A22F48052E5
:102860000262046A4268C3690D6823F4E64343EADE
:1028700005238D6824F4005444EA0534064DA8422B
:1028800004D14D6922F4804242EA85124260C3615C
:1028900049680164046230BD002C014010B5036A30
:1028A000046A24F001040462846924F0F00444EA18
:1028B000021423F00A020A438461026210BD10B5BB
:1028C000036A23F0100303628369046A23F47043EC
:1028D00043EA023224F0A00343EA0111826101625B
:1028E00010BD2DE9F04114461269012A04D020469A
:1028F000BDE8F041FFF730BEFDF78AFCA56906464A
:1029000001212846FDF7BCFC3146FDF784FCE16956
:10291000FDF72CFCA168FDF781FC07463146606895
:10292000FDF77CFC804629463046FDF771FC2168A6
:10293000FDF774FC4146FDF719FC3946FDF716FC1E
:102940006169FDF713FC6061C4E90665FDF754FD9C
:102950002062FDF72AFDE168FDF7A0FD03D2E068E3
:10296000FDF74AFD2062E06880F00045206AFDF72F
:102970001CFD2946FDF788FD05D2E06880F0004087
:10298000FDF73AFD2062BDE8F081000070B5044615
:1029900000680169E26821F4405111430161216935
:1029A000A0680843616908432168CA6841F20C6362
:1029B0009A430243CA6020684169A26921F44071C8
:1029C000114341611E492068884202D1FEF75AFA3C
:1029D00001E0FEF747FA00EBC00101EB001260686E
:1029E00064218000B2FBF0F3B3FBF1F36FF0180643
:1029F0007343B2FBF0F5B2FBF0F605EB830532232F
:102A000003EB0515B5FBF1F5B6FBF1F605F0F005A6
:102A100005EB0615B2FBF0F6B2FBF0F0B0FBF1F0FF
:102A20006FF01802504306EB800003EB0010B0FB80
:102A3000F1F0216800F00F002844886070BD0000AC
:102A400000380140FEE700002DE9F04114465269CC
:102A5000012A04D02046BDE8F041FFF761BDFDF733
:102A6000D7FBE769054601213846FDF709FC2946F1
:102A7000FDF7D1FB216AFDF779FBA168FDF7CEFBDD
:102A8000064629466068FDF7C9FB80463946284658
:102A9000FDF7BEFB2168FDF7C1FB4146FDF766FB74
:102AA0003146FDF763FBA169FDF760FBA061E168BA
:102AB000FDF7F4FC01D3A06901E0E068A06110F12A
:102AC000FF4F01D30D48A061E069C4E90750A06938
:102AD000FDF792FC6062FDF768FCE168FDF7DEFC43
:102AE00001D3606A03E0E068FDF786FC60620028BD
:102AF00001DA00206062BDE8F08100000000FA43C6
:102B00000FB4084B10B504A902AA039800F0EEF820
:102B1000044602A9002000F06CFC204610BC5DF8C1
:102B200014FB0000F33300080907090E002804DB3A
:102B300000F1E02080F80014704700F00F0000F171
:102B4000E02080F8141D704702E008C8121F08C179
:102B5000002AFAD170477047002001E001C1121F1E
:102B6000002AFBD1704700002DE9FF5F82B00021F1
:102B7000DDE90430020DDDF840B0034318D044F61F
:102B80001050A2F2FF3242431514119801281FD0B1
:102B9000A5EB0B00401C5FEA000A4FF000064E4F09
:102BA000DFF83891B046504615D5CAF1000413E05D
:102BB000119801244AA3012801D16FEA0B01029860
:102BC000119AC0E90031C0E9024206B0BDE8F09FA9
:102BD000CBF10000DFE704460021404A491842EBF0
:102BE0000450CDE9001012E0E00707D032463B4622
:102BF00040464946FDF750FB8046894632463B46F3
:102C000010461946FDF748FB06460F466410002C97
:102C1000EAD1DDE90401DDE90023BAF1000F06DAAB
:102C2000FDF73AFB42464B46FDF736FB05E0FDF764
:102C3000C1FD42464B46FDF7BDFD04460E4600224F
:102C4000284BFDF73FFE03D84FF0FF30014607E069
:102C50000022254B20463146FDF705FDFDF719FE04
:102C6000102409E0002C0ADB0A220023FDF736FCC1
:102C7000039B30321A55641E50EA0102F2D1641CE3
:102C8000039AC4F111031444119A012A03D00122BA
:102C900008430DD10AE0084304D000204FF0110B87
:102CA000119072E7A3EB0B056D1E0DE05B4504DD93
:102CB0004FF0000205F1010504E003DA4FF00002D5
:102CC000A5F10105002AECD002981199C0E9023162
:102CD000C0E9004579E70000000014400000F03F23
:102CE000300000000000F0430000E03F2DE9FF4FFE
:102CF00095B09A46884606460025EEE1252877D10C
:102D000000242746F94A0121039400E0044316F801
:102D1000013F203B01FA03F01042F7D130782A2816
:102D200011D06FF02F033078A0F13002092A16D8A5
:102D3000039A44F0020402EB820203EB42021044C5
:102D4000761C0390EFE758F8042B0392002A03DA6D
:102D5000504244F40054039044F00204761C30784E
:102D60002E2816D116F8010F44F004042A280DD09D
:102D70006FF02F023078A0F13003092B09D807EB50
:102D8000870302EB4303C718761CF3E758F8047B6C
:102D9000761C30786C280FD006DC4C2817D06828B9
:102DA0000DD06A2814D104E0742810D07A280FD1ED
:102DB0000DE044F400140AE044F4801401E044F40B
:102DC00040147278824202D104F58014761C761C7D
:102DD000307866280BD013DC582877D009DC00281F
:102DE00075D04528F6D04628F4D047281AD193E16B
:102DF00018E0632835D0642879D0652812D18BE19A
:102E0000702873D008DC6728F1D069286FD06E284D
:102E10000DD06F2806D1ACE073282CD0752874D063
:102E2000782853D05246179990476D1C54E1C4F34B
:102E30000250022809D003280DD0D8F80010042829
:102E40000DD00D6008F1040846E1D8F80010EA172B
:102E5000C1E90052F6E7D8F800100D80F2E70D70D6
:102E6000F0E718F8041B8DF8001000208DF8010021
:102E7000EB46012003E058F804BB4FF0FF30610738
:102E80004FF0000102D40DE009F101018946B94279
:102E90000FDA8145F8DB1BF809100029F4D108E0AE
:102EA00009F1010189468142FADB1BF8091000296A
:102EB000F6D103985346A0EB090721463846179AE6
:102EC00000F080FA284400EB090507E044E008E13F
:102ED0000DE01BF8010B524617999047B9F1010913
:102EE000F7D2534621463846179AF2E039E00A21D4
:102EF000C4F302524FF0000B0091022A06D058F89A
:102F0000040BC117032A09D00AE023E008F10700E7
:102F100020F00702F2E80201904605E000B2C11776
:102F2000042A01D140B2C117002906DA0A4600215D
:102F3000404261EB02012D2202E0220504D52B2242
:102F40008DF80420012203E0E20701D02022F7E7F8
:102F5000914657E00A2100E010214FF0000B00914C
:102F60000BE010214FF0000B44F0040408270091FF
:102F700003E008204FF0000B0090C4F30252022A35
:102F800005D058F8040B0021032A08D008E008F106
:102F9000070020F00702F2E80201904603E080B249
:102FA000042A00D1C0B24FF0000922072AD5327896
:102FB000702A07D0DDF800C08CF0100C5CEA0B0C16
:102FC00005D00EE040228DF80420012208E050EAEE
:102FD000010306D030238DF804308DF8052002223D
:102FE0009146009B83F0080353EA0B030AD150EA91
:102FF000010201D1620705D530228DF804204FF07F
:1030000001097F1E3278582A04D039A20C920CAAEA
:1030100002920BE03BA2F9E75B46009AFDF75EFAED
:103020000C9B9B5C029A521E0292137050EA0102A2
:10303000F2D1029804A9081A00F1200B600702D50A
:1030400024F4803400E001275F4502DDA7EB0B008C
:1030500000E0002000EB0B01009003984944401A67
:103060000390E00306D453462146179A039800F0D4
:10307000A9F90544002706E001A85246C05D17994A
:1030800090476D1C7F1C4F45F6DBE0030CD5534683
:103090002146179A039800F095F9054404E0302082
:1030A0005246179990476D1C0099481E00900029C0
:1030B000F5DC08E00298029952460078491C02911A
:1030C000179990476D1CBBF10001ABF1010BF1DCCE
:1030D0005BE100F065F90544761C307800287FF448
:1030E0000DAE19B02846BDE8F08F00000928010098
:1030F000303132333435363738396162636465666E
:10310000000000003031323334353637383941422F
:103110004344454600000000600700D4062708F13C
:10312000070020F00700F0E80223804603F0004C7F
:103130005FEA0C0001D097A009E0200501D596A018
:1031400005E0E00701D095A001E0AFF24C0013903C
:10315000307823F0004365280CD006DC452809D0E0
:1031600046281DD047287FD13BE0662818D0672825
:103170007AD136E00021112F01DB112000E0781C0C
:10318000CDE9000104A90CA8FFF7EEFCDDE90D0173
:103190000C9A4FF0000B07F10109109200914EE0DC
:1031A0004FF000400097CDE9011004A90CA8FFF7EB
:1031B000DBFCDDE90D020C9B0F994FF0000B9146F3
:1031C0001093009211B9791C00EB0109B7EB0900CB
:1031D00003D4C0F1FF3B07F10109A9EB07000190FF
:1031E00042E0012F00DA01270021112F01DD11201B
:1031F00000E03846CDE9000104A90CA8FFF7B4FCB3
:10320000DDE90D010C9A00914FF0000BB9461092C8
:1032100021070FD4009A4A4503DA914601E0A9F14B
:103220000109B9F1010F05DD109AA9F10101515C05
:103230003029F4D0B84202DA10F1040F03DA012188
:10324000CDE9011010E0002803DC8344A9EB000164
:1032500002E0411C494500DD8946A0EB0B00401C03
:1032600001904FF000400290200705D40198484596
:1032700002DB4FF0FF30019000208DF84B000298E8
:103280000DF14B07B0F1004F25D002200C902B2000
:103290000D90029800280CDA404202902D200D90EB
:1032A00007E00A210298FDF703F93031029007F890
:1032B000011D0C99481E0C900029F2DC0298002890
:1032C000EFD1791E0D980870307800F0200040F0A2
:1032D000450007F8020D11A8C01BC01D02901398ED
:1032E000007800B1012000EB0901019801EBE071C9
:1032F000029801440398401A401E0390E00306D44C
:1033000053462146179A039800F05CF80544139839
:10331000007818B15246179990476D1CE00323D5E9
:1033200053462146179A039800F04CF805441BE0D9
:10333000BBF1000F07DB0098584504DD1098179982
:1033400010F80B0001E01799302052469047019881
:103350000BF1010B401E05F10105019004D12E2057
:103360005246179990476D1CB9F10001A9F1010966
:10337000DEDC05E017F8010B5246179990476D1CEB
:103380000299481E02900029F4DC53462146179A00
:1033900003989EE62D0000002B0000002000000096
:1033A0002DE9F041044600251E461746880404D442
:1033B00005E039462020B0476D1C641EF9D528462B
:1033C000BDE8F0812DE9F041044600251E469046F7
:1033D000C80301D5302700E02027880404D505E084
:1033E00041463846B0476D1C641EF9D52846BDE8F5
:1033F000F0810A68531C0B60107070472DE9F05F74
:103400006D4C4FF48056002531462046FDF7E4FB15
:10341000DFF8A8B167144FF480484FF400494FF427
:10342000806AA8B939462046FDF7D6FB80B94146E7
:103430002046FDF7D1FB01280AD149462046FDF779
:10344000CBFB28B951465846FDF7C6FB002822D0D1
:1034500031462046FDF7C0FB012814D139462046ED
:10346000FDF7BAFB01280ED141462046FDF7B4FB1B
:1034700048B949462046FDF7AFFB20B951465846AA
:10348000FDF7AAFB30B131462046FDF7A5FB012828
:1034900002D015E04A4D8BE039462046FDF79CFBF3
:1034A00070B941462046FDF797FB48B9494620468A
:1034B000FDF792FB20B951465846FDF78DFB28B128
:1034C00031462046FDF788FB10B116E03D4D6FE018
:1034D00039462046FDF780FB01280ED141462046A3
:1034E000FDF77AFB48B949462046FDF775FB20B940
:1034F00051465846FDF770FB28B131462046FDF78E
:103500006BFB18B117E04FF0404551E039462046BB
:10351000FDF762FB78B941462046FDF75DFB50B9E7
:1035200049462046FDF758FB012804D1514658462C
:10353000FDF752FB28B131462046FDF74DFB10B197
:1035400016E0214D34E039462046FDF745FB78B9B9
:1035500041462046FDF740FB50B949462046FDF75D
:103560003BFB28B951465846FDF736FB012805D0EC
:1035700031462046FDF730FB18B119E04FF0814588
:1035800016E039462046FDF727FB88B9414620461C
:10359000FDF722FB60B949462046FDF71DFB0128D7
:1035A00006D151465846FDF717FB012800D1074DBB
:1035B0002846BDE8F09F0000000C014000080140D3
:1035C000000090C0000080C000004040000090401B
:1035D0001CB5FDF721FB3748FEF7A2FF3548283020
:1035E000FEF79EFF33485030FEF7B6FFFFF728F88E
:1035F000FEF738FEFEF724FCFEF7A8FCFEF746FDBA
:10360000FEF77AFDFEF70EFDFEF7ACFD2A48FDF74A
:10361000D9FE00212948FEF7C5F904212748FEF705
:10362000C1F900212648FEF707F804212448FEF7D7
:1036300003F800212348FDF7FFFF04212148FDF78F
:10364000FBFF1F480168CA6842F00102CA601D49B9
:103650000A68D36843F00103D360006847F2305230
:10366000426208684262184C0125206A28B9FEF7B8
:10367000F9FD1420FDF7AEF92562A069FCF7D5FE2F
:10368000CDE90001104A0B48443210A11438FFF76D
:1036900037FA084A00211023143A08460095FEF72D
:1036A00005FF0120FDF796F9FEF75AFE00F012F82B
:1036B000DBE70000F4040020B005002068050020CE
:1036C000F805002040060020000000202573252E6C
:1036D0003266000070B50A4901200B4CC8630948E6
:1036E000206104F1280509482861C820FDF772F916
:1036F0006A6A616ABDE870400020FEF751BD0000B3
:10370000000000209A99193EF4040020AE47E13DE4
:103710002DE9F041244E254CA6F12807FFF76EFE57
:103720000146606006F128020020FFF7DAF806F192
:103730002800006AFCF739FE0546E060706AFCF775
:1037400034FE2946FCF764FDFCF756FE2061786ADA
:10375000FCF72BFE2946FCF709FDFCF74DFE6061E6
:10376000D4E90101FCF790FE13D1D4E90110FCF774
:103770008BFE05D14FF480410D48FDF72DFA40B185
:10378000726A0020796AFEF70BFD6068A060BDE8F0
:10379000F081D4E904210020FEF702FD4FF400512E
:1037A0000448FDF71EFAF0E71C0500200000002089
:1037B000000C01400010014000000000000000006B
:1037C000002F000000000700070000147F147F1482
:1037D00000242A7F2A120062640813230036495508
:1037E000225000000503000000001C2241000000E0
:1037F00041221C000014083E08140008083E080876
:10380000000000A0600000080808080800006060D0
:103810000000002010080402003E5149453E00000F
:10382000427F4000004261514946002141454B31F1
:10383000001814127F10002745454539003C4A49BD
:10384000493000017109050300364949493600062F
:103850004949291E00003636000000005636000097
:103860000008142241000014141414140000412212
:10387000140800020151090600324959513E007CEA
:103880001211127C007F49494936003E41414122D4
:10389000007F4141221C007F49494941007F0909BD
:1038A0000901003E4149497A007F0808087F00006D
:1038B000417F4100002040413F01007F0814224128
:1038C000007F40404040007F020C027F007F0408E0
:1038D000107F003E4141413E007F09090906003E3C
:1038E0004151215E007F0919294600464949493165
:1038F0000001017F0101003F4040403F001F204088
:10390000201F003F4038403F006314081463000745
:103910000870080700615149454300007F4141009C
:1039200000552A552A55000041417F00000402013C
:10393000020400404040404000000102040000201A
:1039400054545478007F4844443800384444442058
:1039500000384444487F00385454541800087E0905
:1039600001020018A4A4A47C007F080404780000CD
:10397000447D4000004080847D00007F102844008A
:103980000000417F4000007C04180478007C08049B
:10399000047800384444443800FC242424180018D7
:1039A000242418FC007C08040408004854545420C3
:1039B00000043F444020003C4040207C001C20404C
:1039C000201C003C4030403C004428102844001C8F
:1039D000A0A0A07C004464544C4414141414141487
:1039E0000000000000000000000000000000FC00DB
:1039F0000000000002000000000C020C02000000A9
:103A00000000000090D0BCD0BC9000030003000078
:103A10001824FE448C000302070201001824D8B0C9
:103A20004C80000300010201C038E438E0000102CC
:103A30000201020208060000000000000000000071
:103A4000000000F80402000000010204000204F873
:103A500000000004020100009060F8609000000087
:103A6000010000002020FC202000000001000000D8
:103A700000000000000008060000000020202020B8
:103A80002000000000000000000000000000000214
:103A9000000000000080601C020004030000000021
:103AA000F8040404F8000102020201000008FC000E
:103AB00000000002030200001884442418000302DE
:103AC0000202020008042424D800010202020100BC
:103AD00040B088FC80000000000302003C24242445
:103AE000C400010202020100F824242CC0000102DB
:103AF000020201000C04E41C0400000003000000AA
:103B0000D8242424D800010202020100384444448D
:103B1000F800000302020100000010000000000095
:103B2000020000000000200000000000060000006D
:103B30000020508804020000000001029090909044
:103B400090000000000000000002048850200002E5
:103B5000010000001804C424180000000200000046
:103B6000F804E494F80001020202020000E09CF074
:103B7000800002030000030204FC2424D800020396
:103B800002020100F80404040C0001020202010018
:103B900004FC0404F80002030202010004FC247483
:103BA0000C0002030202030004FC24740C00020354
:103BB00002000000F0080444CC40000102020100B1
:103BC00004FC2020FC040203000003020404FC04A3
:103BD0000400020203020200000404FC04040604C0
:103BE0000403000004FC24D00C04020302000302BE
:103BF00004FC04000000020302020203FC3CC03C7F
:103C0000FC0003000300030004FC30C4FC040203B6
:103C100002000300F8040404F8000102020201009B
:103C200004FC24241800020302000000F884840429
:103C3000F80001020207050004FC24649800020356
:103C400002000302182424448C0003020202010033
:103C50000C04FC040C0000020302000004FC000041
:103C6000FC04000102020100047C80E01C0400004E
:103C7000030000001CE03CE01C0000030003000007
:103C8000049C609C0400020300030200041CE01C6E
:103C900004000002030200000C84641C0400020300
:103CA000020203000000FE020200000007040400FC
:103CB000000E30C00000000000010200000202FE01
:103CC00000000004040700000004020400000000DB
:103CD00000000000000000000000080808080808B4
:103CE0000000020000000000000000000040A0A052
:103CF000C00000010202030204FC2020C0000003F7
:103D00000202010000C02020600000010202020047
:103D100000C02024FC0000010202030200C0A0A099
:103D2000C0000001020202000020F8242404000266
:103D3000030202000040A0A0602000070A0A0A0453
:103D400004FC2020C0000203020003020020E40063
:103D50000000000203020000000020E40000080848
:103D60000807000004FC80E0202002030200030298
:103D70000404FC000000020203020200E020E02034
:103D8000C00003000300030020E02020C000020365
:103D90000200030200C02020C00000010202010056
:103DA00020E02020C000080F0A02010000C02020EF
:103DB000E0000001020A0F0820E04020200002037A
:103DC000020000000060A0A0200000020202030028
:103DD0000020F820000000000102020020E0002086
:103DE000E00000010202030220E0208060200000C9
:103DF000030100006080E080600000030003000019
:103E000020608060200002030003020020E0208088
:103E100060200808070100000020A06020000002C8
:103E200003020200000020DE020000000007040080
:103E3000000000FF00000000000F00000002DE2074
:103E40000000000407000000020102040402000058
:103E50000000000000000000000000000000000062
:103E600000000000000000F8000000000000003327
:103E70003000000000100C06100C060000000000CE
:103E80000000000040C07840C0784000043F0404B7
:103E90003F040400007088FC08300000001820FF78
:103EA000211E0000F008F000E018000000211C03B3
:103EB0001E211E0000F00888700000001E2123242F
:103EC0001927211010160E0000000000000000004D
:103ED00000000000000000E01804020000000007DD
:103EE0001820400000020418E000000000402018E4
:103EF00007000000404080F0804040000202010FB7
:103F000001020200000000F0000000000101011F9A
:103F100001010100000000000000000080B07000FE
:103F2000000000000000000000000000000101018E
:103F3000010101010000000000000000003030001D
:103F400000000000000000008060180400601806F7
:103F50000100000000E010080810E000000F102031
:103F600020100F00001010F8000000000020203F7B
:103F70002020000000700808088870000030282405
:103F800022213000003008888848300000182020A6
:103F900020110E000000C02010F8000000070424CB
:103FA000243F240000F80888880808000019212010
:103FB00020110E0000E0108888180000000F11206A
:103FC00020110E0000380808C83808000000003F23
:103FD000000000000070880808887000001C222182
:103FE00021221C0000E010080810E000000031222F
:103FF00022110F00000000C0C000000000000030CF
:104000003000000000000080000000000000806020
:1040100000000000000080402010080000010204A1
:104020000810200040404040404040000404040488
:104030000404040000081020408000000020100844
:1040400004020100007048080808F0000000003079
:1040500036010000C030C828E810E0000718272407
:1040600023140B000000C038E0000000203C2302B5
:104070000227382008F8888888700000203F202018
:1040800020110E00C030080808083800071820204A
:104090002010080008F808080810E000203F202041
:1040A00020100F0008F88888E8081000203F202022
:1040B0002320180008F88888E8081000203F200016
:1040C00003000000C030080808380000071820204E
:1040D000221E020008F808000008F808203F21010D
:1040E00001213F20000808F8080800000020203FB8
:1040F0002020000000000808F8080800C080808028
:104100007F00000008F888C028180800203F200120
:104110002638200008F8080000000000203F20207A
:104120002020300008F8F800F8F80800203F003F91
:10413000003F200008F830C00008F808203F2000A9
:1041400007183F00E01008080810E0000F102020BA
:1041500020100F0008F808080808F000203F21018F
:1041600001010000E01008080810E0000F182424E6
:1041700038504F0008F8888888887000203F200059
:10418000030C30200070880808083800003820210F
:1041900021221C00180808F8080818000000203F19
:1041A0002000000008F808000008F808001F202080
:1041B00020201F000878880000C838080000073851
:1041C0000E010000F80800F80008F800033C0700A2
:1041D000073C0300081868808068180820302C030A
:1041E000032C30200838C800C83808000000203FE1
:1041F0002000000010080808C838080020382621D0
:1042000020201800000000FE020202000000007FD3
:1042100040404000000C30C00000000000000001E1
:104220000638C00000020202FE00000000404040CC
:104230007F000000000004020202040000000000F1
:10424000000000000000000000000000808080806E
:104250008080808000020204000000000000000056
:1042600000000000000080808080000000192422EF
:1042700022223F2008F8008080000000003F11202B
:1042800020110E000000008080800000000E112030
:1042900020201100000000808088F800000E11200E
:1042A00020103F200000808080800000001F22221C
:1042B00022221300008080F0888888180020203F88
:1042C000202000000000808080808000006B94949B
:1042D0009493600008F8008080800000203F210057
:1042E00000203F2000809898000000000020203F20
:1042F00020200000000000809898000000C080800E
:10430000807F000008F8000080808000203F2402A9
:104310002D302000000808F8000000000020203F99
:10432000202000008080808080808000203F20004E
:104330003F20003F8080008080800000203F2100DF
:1043400000203F200000808080800000001F20208F
:1043500020201F00808000808000000080FFA120BE
:1043600020110E000000008080808000000E1120CF
:1043700020A0FF80808080008080800020203F215E
:104380002000010000008080808080000033242411
:1043900024241900008080E0808000000000001FBD
:1043A000202000008080000000808000001F20206E
:1043B00020103F20808080000080808000010E302F
:1043C0000806010080800080008080800F300C0390
:1043D0000C300F0000808000808080000020312E93
:1043E0000E312000808080000080808080818E706F
:1043F0001806010000808080808080000021302C21
:104400002221300000000000807C02020000000039
:10441000003F404000000000FF00000000000000DE
:10442000FF0000000002027C800000000040403FCE
:104430000000000000060101020204040000000068
:10444000000000000000000000000000000000006C
:10445000000000000000000000000000000000005C
:1044600000000000000000000000000000F0F0F07C
:10447000000000000000000000017F0100000000BB
:1044800000000000001C1C1C0000000000008060F8
:10449000301C8C60301C0C0000000000000000008C
:1044A000000000000000000000000000000000000C
:1044B000000000E00000000000E000000086E69F31
:1044C00086868686E69F860000011F0101010101A4
:1044D0001F010100000080C06020F820E0C0000043
:1044E000000003070C18FF70E18100000000070FB7
:1044F00010107F100F070000806020608000000017
:10450000E02000000F3020309F70DC371030C000FA
:104510000000100E03000718101807000000C0204C
:1045200020E0C0000000000080E01F38E88703C4DE
:104530003C040000070F1810100B070D10100800A6
:1045400000808C4C380000000000000000000000DB
:10455000000000000000000000000000000000005B
:104560000000000000000000000080E030080400AF
:104570000000000000FEFF0100000000000000003D
:104580000000030F1820400000040830E080000005
:10459000000000000000000001FFFE00000000001D
:1045A000004020180F030000000000000000000081
:1045B0000000C00000000000004266663C18FF18C2
:1045C0003C6666420000000000000300000000009E
:1045D000000000000000800000000000001010102B
:1045E0001010FF1010101010000000000000030059
:1045F00000000000000000000000000000000000BB
:1046000000000000000000000000000000808C4C52
:104610003800000000000000000000000000000062
:1046200000000000001010101010101010101000EA
:10463000000000000000000000000000000000007A
:10464000000000000000000000000000000000006A
:104650000000000000001C1C1C0000000000000006
:104660000000000000000000E0380C000000000026
:1046700080701C03000000000060380E0100000084
:1046800000000000000080C060202060C0800000AA
:1046900000FEFF010000000001FFFE000001070E08
:1046A000181010180E0701000000808080C0E00084
:1046B000000000000000000000FFFF0000000000FC
:1046C00000001010101F1F1010100000008040206C
:1046D00020202060C08000000003030080402038BC
:1046E0001F070000001C1A1918181818181F0000BE
:1046F0000080C020202060C0800000000003030074
:104700001010182FE780000000070F10101010186D
:104710000F070000000000000000C0E0F0000000F3
:1047200000C0B088868180FFFF808000000000000C
:104730000010101F1F1010000000E060606060603B
:104740006060000000003F1008080818F0E000005A
:1047500000070B101010101C0F030000000080C099
:1047600040202020E0C0000000FCFF2110080808C5
:1047700018F0E0000001070C18101010080F0300DB
:104780000000C0E06060606060E060000000030066
:104790000000E0180700000000000000001F1F00DC
:1047A000000000000080C0602020202060C0800049
:1047B0000087EF2C1818303068CF830000070F08EF
:1047C00010101010180F07000000C0C0202020207B
:1047D000C0800000001F3F604040402010FFFE00EE
:1047E00000000C1C101010080F0300000000000057
:1047F000000000000000000000000000000E0E0E8F
:104800000000000000000000001C1C1C0000000054
:104810000000000000000000000000000000000098
:10482000000C0C00000000000000000000583800E0
:104830000000000000000000000000804020100088
:104840000000102844820100000000000000000069
:104850000000010204081000000000000000000039
:104860000000000000848484848484848484840020
:104870000000000000000000000000000000102008
:1048800040800000000000000000000000000182E5
:10489000442810000000100804020100000000007D
:1048A00000C020201010101030E0C00000030300F2
:1048B00000F010080C070300000000001C1C1C0086
:1048C00000000000000000C0406020202040C00028
:1048D00000FCFF01F00E03C1FE03807F0001070E04
:1048E00008111110110904020000000080E0E0002E
:1048F000000000000000807C4340477FF8800000FB
:1049000010181F1000000000131F1C1020E0E020F2
:1049100020202060C080000000FFFF101010101841
:104920002FE78000101F1F1010101010180F070025
:10493000000080C0402020202060E00000FCFF013B
:1049400000000000000001000001070E1810101008
:104950000804030020E0E02020202040C080000068
:1049600000FFFF000000000001FFFE00101F1F10ED
:10497000101018080E07010020E0E0202020202061
:104980002060800000FFFF101010107C000000006D
:10499000101F1F10101010101018060020E0E0204B
:1049A000202020206060800000FFFF101010107C8D
:1049B00000000100101F1F10000000000000000098
:1049C000000080C06020202040E0000000FCFF01CB
:1049D00000004040C0C140400001070E18101010F8
:1049E0000F0F000020E0E0200000000020E0E020A9
:1049F00000FFFF101010101010FFFF00101F1F10FD
:104A000000000000101F1F100000202020E0E02008
:104A1000202000000000000000FFFF000000000058
:104A200000001010101F1F101010000000000000E8
:104A3000202020E0E020202000000000000000FFF7
:104A4000FF0000000060E0808080C07F3F00000029
:104A500020E0E020000020A06020200000FFFF30C8
:104A6000187CE3C000000000101F1F10000001139D
:104A70001F1C181020E0E0200000000000000000D3
:104A800000FFFF000000000000000000101F1F10CA
:104A9000101010101018060020E0E0E000000000E8
:104AA000E0E0E02000FF013FFEC0E01E01FFFF004C
:104AB000101F1000031F0300101F1F1020E0E0C094
:104AC000000000000020E02000FF0003071C78E049
:104AD0008000FF00101F100000000000030F1F00E7
:104AE000000080C060202060C080000000FEFF0148
:104AF0000000000000FFFE000001070E1810101853
:104B00000C07010020E0E0202020202060C0800071
:104B100000FFFF2020202020301F0F00101F1F103B
:104B20000000000000000000000080C06020206045
:104B3000C080000000FEFF010000000000FFFE003A
:104B40000001070E1111133C7C67210020E0E020DA
:104B50002020202060C0800000FFFF101030F0D027
:104B6000080F0700101F1F10000000030F1C10107B
:104B70000080C060202020204040E00000070F0C93
:104B80001818303060E08100001F0C081010101061
:104B9000180F07008060202020E0E02020206080A7
:104BA0000100000000FFFF00000000010000000005
:104BB000101F1F100000000020E0E0200000000097
:104BC0000020E02000FFFF00000000000000FF00C8
:104BD00000070F1810101010100807002060E0E008
:104BE0002000000020E060200000077FF8800080A7
:104BF0007C03000000000000071F1C0700000000ED
:104C000020E0E02000E0E0200020E0200007FFF8A6
:104C1000E01FFFFCE01F00000000031F0300011F56
:104C200003000000002060E0A0000020E060200001
:104C3000000000038F7CF8C6010000000010181E61
:104C4000130001171F1810002060E0E02000000092
:104C500020E06020000001073EF8E0180700000097
:104C600000000010101F1F101000000000806020C6
:104C7000202020A0E0E0200000000000C0F03E0F57
:104C80000300000000101C1F171010101018060061
:104C90000000000000FC0404040404000000000004
:104CA00000FF00000000000000000000007F404006
:104CB00040404000000010E0000000000000000044
:104CC00000000000031C60800000000000000000E5
:104CD000000000030C70800000000404040404FCC5
:104CE0000000000000000000000000FF00000000C5
:104CF000000040404040407F0000000000000010E5
:104D0000080C040C08100000000000000000000067
:104D10000000000000000000000000000000000093
:104D20000000000000000000000000000000000083
:104D30000000000000000000808080808080808073
:104D4000808080800000000404080800000000004B
:104D50000000000000000000000000000000000053
:104D60000000000000000000000000000000000043
:104D700000000000000098D844642424FCF80000DF
:104D8000000F1F18101010081F1F10180020E0F04F
:104D900000000000000000000000FFFF18080404ED
:104DA0000CF8F00000001F0F18101010180F03006F
:104DB00000000000000000000000000000E0F81803
:104DC0000404043C3800000000030F0C1010101005
:104DD000080600000000000000000020E0F00000D5
:104DE00000E0F81C04040408FFFF000000030F1893
:104DF000101010081F0F0800000000000000000045
:104E0000000000000000E0F8484444444C78700082
:104E10000000030F0C181010100804000000000020
:104E200080C0602020E0C00000040404FFFF0404F0
:104E300004040000000010101F1F101010000000DC
:104E4000000000000000000000000000000070F8FA
:104E50008C04048CF874040C007076CF8D8D8D89D1
:104E6000C87870000020E0F00000000000000000A2
:104E70000000FFFF08040404FCF8000000101F1FDE
:104E8000100000101F1F10000000000000606000F4
:104E9000000000000000040404FCFC00000000000E
:104EA00000001010101F1F10101000000000000064
:104EB000000000606000000000000000040404FC2A
:104EC000FC0000000000C0C08080C07F3F000000E8
:104ED0000020E0F000000000000000000000FFFFE4
:104EE00080C0F41C0404000000101F1F1100031FE9
:104EF0001C1010000000202020E0F0000000000046
:104F00000000000000FFFF00000000000000101083
:104F1000101F1F1010100000000000000000000013
:104F20000000000004FCFC0804FCFC0804FCFC007D
:104F3000101F1F10001F1F10001F1F100000000077
:104F400000000000000000000004FCFC080804044D
:104F5000FCF8000000101F1F100000101F1F1000A1
:104F600000000000000000000000000000E0F01859
:104F70000C04040C18F0E00000030F0C10101010CB
:104F80000C0F030000000000000000000000000003
:104F90000004FCFC080404040CF8F0000080FFFF8F
:104FA000889010101C0F030000000000000000009B
:104FB0000000000000E0F81C04040408F8FC0000F5
:104FC00000030F1810109088FFFF80000000000001
:104FD0000000000000000000040404FCFC100804B1
:104FE000040C0C001010101F1F1010100000000007
:104FF0000000000000000000000000000000307809
:10500000CCC48484840C1C0000001E1810101011E5
:10501000190F06000000000000C0000000000000A2
:1050200000040404FFFF040404000000000000006A
:105030000F1F1010100C0000000000000000000006
:10504000000000000004FCFE00000004FCFE000064
:1050500000000F1F181010081F0F080000000000AC
:10506000000000000000000000040C3CFCC4000034
:10507000C43C0C0400000000010F1E0E01000000E3
:10508000000000000000000000000000043CFCC420
:1050900000E47CFC84807C040000071F07000007FC
:1050A0001F070000000000000000000000000000DA
:1050B0000004041C7CE4C0341C0404000010101C18
:1050C0001601131F1C181000000000000000000053
:1050D0000000000000040C3CFCC400C43C040400BC
:1050E0000000C080C1370E01000000000000000079
:1050F000000000000000000000001C0404C4F47C58
:105100001C0400000000101C1F17111010180E00C6
:1051100000000000000000F80C0400000000000087
:10512000001028EF00000000000000000000003F19
:1051300060400000000000000000FF0000000000D0
:10514000000000000000FF00000000000000000060
:105150000000FF00000000000000040CF800000048
:105160000000000000000000EF2810000000000018
:10517000000040603F000000000000000018060230
:105180000204081020203008000000000000000089
:10519000000000000000000000000000000000000F
:1051A0000000F010101010FF10101010F0000000A0
:1051B00000000F04040404FF040404040F000000B2
:1051C0004040405F555555755555555F404040002E
:1051D0000040200F094989790909090F2040000082
:1051E00000FE02424ACA4A4ACA4A4A4202FE000035
:1051F00000FF40504C4340404F50505C40FF000087
:105200000000F888888888FF88888888F80000006F
:1052100000001F080808087F888888889F80F000A1
:1052200080828282828282E2A2928A86828080004A
:10523000000000000040807F00000000000000002F
:10524000101010FF109008888888FF888888080050
:105250000444827F01808040432C102846818000D6
:105260000010101010D030FF30D0121C10100000B1
:1052700010080402010000FF0000010204081000F1
:1052800004040484E43C2724242424E404040400C7
:1052900004020100FF0909090949897F0000000093
:1052A00000FE225A8600FE9292929292FE00000028
:1052B00000FF04080700FF4020030C1422414000B7
:1052C0000080402018068000071820408000000061
:1052D00001002070282621202024386000010100D0
:1052E000001012929292929292121202FE0000000C
:1052F0000000003F101010103F0040807F000000B1
:10530000000000C080808080808080FC848080805D
:10531000808080C0C0000000000000FF7F4040404F
:10532000404040FF40404040404040FF7F00000080
:1053300000000000000000000000007F700000007E
:10534000000000000000000000000000000000005D
:1053500000000000000000FCF80000000000000059
:10536000000000000000000000000000FFFE02023C
:1053700002020202020202FFFF0202020202020213
:105380000202FF0300000000000000001F1F0404D1
:1053900004040404040404FFFF04040404040404D7
:1053A00004041F00000000000000000000000000D6
:1053B000000000000000007F3F000000000000002F
:1053C00000000000000000000000000000000000DD
:1053D00000000000000000000000000000000000CD
:1053E0000000000000F8F8F0F0702000000000005D
:1053F00000000000000000000000000000000000AD
:10540000000000000000000000000000000000009C
:10541000800000000000000000000000000000000C
:105420000000000000FFFFFFFF0000000000000080
:10543000000000000000000000000000808000006C
:10544000000000000000000000000000000000005C
:1054500000FFFFFE06060606060606060606060608
:105460000606060606FFFFFFFF06060606060606F8
:105470000606060606060606060606FFFFFFFF07E7
:10548000020000000000000000000000000000001A
:1054900000FFFFFF0000000000000000000000000F
:1054A0000000000000FFFFFFFF0000000000000000
:1054B0000000000000000000000000FFFFFFFF00F0
:1054C00000000000000000000000000000000000DC
:1054D00000FFFFFF181818181818181818181818AF
:1054E0001818181818FFFFFFFF18181818181818A0
:1054F0001818181818181818181818FFFFFFFF00A8
:10550000000000000000000000000000000000009B
:105510000201010000000000000000000000000087
:105520000000000000FFFFFFFF000000000000007F
:105530000000000000000000000000010100000069
:10554000000000000000000000000000000000005B
:10555000000000000000000000000000000000004B
:105560000000000000FFFFFFFF000000000000003F
:10557000000000000000000000000000000000002B
:10558000000000000000000000000000000000001B
:10559000000000000000000000000000000000000B
:1055A00000000000001F1F0F0F000000000000009F
:1055B00000000000000000000000000000000000EB
:1055C00000000000000000000000000000000000DB
:1055D0000102030406070809000000000102030499
:1055E000005600080000002060000000482B000862
:1055F0006056000860000020700C0000582B000866
:10560000000000000000000000000000000000009A
:1056100000000000000000000000C8420000000080
:10562000000000000000000000000000CEFFFFFFAF
:10563000000000000000000000000000000000006A
:105640000000000064697374616E63653A200000B5
:105650000100000010000000000000000024F40021
:04000005080000ED02
:00000001FF
