:020000040800F2
:10000000C80C002005010008F9210008111D000896
:100010008D2100085B090008352A00080000000057
:10002000000000000000000000000000D5250008CE
:100030007D09000800000000712500082D26000839
:100040001F0100081F0100081F0100081F01000810
:100050001F0100081F0100081F0100081F01000800
:100060001F0100081F0100081F0100081F010008F0
:100070001F0100081F0100081F0100081F010008E0
:100080001F0100081F0100081F0100081F010008D0
:100090001F0100081F0100081F0100081F010008C0
:1000A0001F0100081F0100081F0100081F010008B0
:1000B000912600081F0100081F0100081F01000809
:1000C0001F0100081F0100081F0100081F01000890
:1000D0001F0100081F0100081F0100081F01000880
:1000E0001F0100081F0100081F010008DFF810D0E1
:1000F00000F000FC00480047E1350008AFF3008045
:10010000C80C00200648804706480047FEE7FEE787
:10011000FEE7FEE7FEE7FEE7FEE7FEE7FEE7FEE7B7
:100120008F260008ED000008202A04DB203A21FA7F
:1001300002F00021704721FA02F3D040C2F1200200
:100140009140084319467047D2B201E000F8012BF4
:10015000491EFBD270470022F6E710B513460A4647
:1001600004461946FFF7F0FF204610BDF0B480EAC0
:100170000102D40F4200B2EB410F02D20246084600
:1001800011464A0042D0C30DDDB2C1F3C752AD1AC9
:10019000202D35DAC1F3160141F4000204B15242B8
:1001A000C5F1200602FA06F12A411044B3EBD05FF4
:1001B00023D0C4B1012DA0EBC35009DCF0BC4FF03B
:1001C000004202EAC352DBB200F5000000F0C0B901
:1001D000400000F1807000EBC350A0F1807040EA55
:1001E000D170490009E0490841EAC071A0EBC35051
:1001F00000F50000400800EBC350F0BC00F09FB9D0
:100200006142012202EB4101001BF6E7F0BC70479E
:1002100081F00041AAE780F00040A7E780EA0102F0
:1002200010B502F00043400022D04A001FD0010E5A
:1002300001EB1261C0F35600C2F3560240F4000015
:1002400042F40002A0FB022000047F39140400D015
:10025000401C50EA124001D44000491EC2B20C06B4
:1002600004EBD010401C4008802A02D003E000209C
:1002700010BD20F00100002900DA0020184310BD55
:10028000420005D0C0F3C7525242914201DC002027
:10029000704700EBC15070472DE9FE4F81EA03041F
:1002A00004F0004421F0004100944FF0000B23F0D3
:1002B000004350EA01045ED052EA03045BD0C3F36A
:1002C0000A54C1F30A552C44A4F2F3340194A0FB60
:1002D0000254C1F3130141F48011C3F3130343F437
:1002E000801301FB024400FB034E840A970A44EA90
:1002F000815447EA8357A4FB076802958D0A05FBE2
:1003000007854FEA932C04FB0C542705029D4FEA06
:10031000065847EA1637B5EB08056EEB070C870E53
:10032000920E47EA811742EA8312A7FB0201B6EB5D
:100330000B0164EB00042B0D43EA0C335E1844EB15
:100340001C50DA465146E7FB0201C5F313044FEA9D
:100350000B3343EA14534FEA0432019C43EA060389
:10036000A4F10C040294009CCDE900B400F02DF936
:1003700003B0BDE8F08F00200146F9E770B521F029
:10038000004303430CD0C1F30A550024D5EB040508
:1003900064EB0403D617AD1AB34102DB002001461B
:1003A00070BD201841EB025170BDC10F80EAE070B2
:1003B0000844CA079623002100F0CAB80EB5C10F41
:1003C00080EAE0700844CA07002140F233438DE818
:1003D0000E000A460B4600F0F8F803B000BD0EB55B
:1003E00040F2334102910021CDE900110A460B464B
:1003F00000F0EBF803B000BD00F0004220F0004038
:10040000C10DC0F3160040F400007F2901DA00207E
:100410007047962903DCC1F19601C84001E0963986
:100420008840002AF4D04042704700F0004230F08B
:1004300000400AD0C10D01F56071C0F3160042EA18
:100440000151C20840071143704700200146704720
:1004500001F0004330B421F0004150EA010206D01F
:100460000A0DA2F56072C1F31301002A02DC30BC50
:1004700000207047440F44EAC104C100E01830BCBA
:1004800000EBC25000F05BB8002801DBC0F1004077
:10049000002901DBC1F1004181427047002801DBE6
:1004A000C0F10040002901DBC1F1004188427047E2
:1004B00030B50B46014600202022012409E021FA34
:1004C00002F59D4205D303FA02F5491B04FA02F531
:1004D0002844151EA2F10102F1DC30BD2DE9F05FC8
:1004E0000546002092469B468846064681464024A3
:1004F0001BE02846414647462246FFF715FE534675
:100500005A46C01A914110D311461846224600F0AF
:1005100003FA2D1A67EB01084F46224601200021FD
:1005200000F0FAF917EB00094E41201EA4F1010476
:10053000DFDC484631462A464346BDE8F09F0029A5
:10054000A8BF7047401C490008BF20F00100704759
:1005500010B4B0FA80FC00FA0CF050EA010404BFB9
:1005600010BC704749B1CCF1200421FA04F411FA0F
:100570000CF118BF012121430843A3EB0C01CB1D53
:100580004FEA00614FEA102042BF002010BC7047C4
:1005900000EBC35010440029A4BF10BC7047401C9E
:1005A000490008BF20F0010010BC704710B5141EB0
:1005B00073F1000408DA401C41F1000192185B411C
:1005C0001A4301D120F0010010BD2DE9F04D9246F3
:1005D0009B4611B1B1FA81F202E0B0FA80F220320A
:1005E000904600F099F904460F4640EA0A0041EAB5
:1005F0000B0153465A46084313D0114653EA0100F3
:1006000019D0C8F140025046FFF78EFD05460E4650
:1006100050465946424600F07FF9084305D0012074
:1006200004E020463946BDE8F08D0020054346EA47
:10063000E0762C4337430A986305E40AA0EB0800F0
:100640000022FD0A44EA47540A3002D50020014640
:10065000E9E7010510196941DDE90845001969411B
:10066000BDE8F04DA2E72DE9FE4F804681EA030088
:10067000C00F0C46009021F0004123F00045B8EB7C
:100680000200A94105D24046214690461C460B4631
:10069000024623F00040104347D0270DC7F30A005D
:1006A000C3F30A510290401A019040286BDAC3F359
:1006B000130040F4801B0098924620B10023D2EB37
:1006C000030A63EB0B0B01985946C0F140025046F8
:1006D00000F022F906460D4650465946019A00F0B0
:1006E0002AF910EB08006141002487EA115284EADC
:1006F000E7731A4340D0009A62B3019A012A4FEA85
:10070000075215DC001B61EB02014FF0004202EAC8
:100710000752CDE90042001C41F5801132462B46BC
:10072000FFF753FF03B0BDE8F08F40462146F9E7DD
:10073000001B61EB0201001C41F5801300185B41B6
:100740002018A2F5001747EB030140EAD570B6194F
:100750006D4111E06D084FEA360645EAC0754FEA73
:100760000752001B61EB0201001C41F58011490892
:100770004FEA30000019514132462B4603B0BDE824
:10078000F04FFFF713BF0098012240000023D0EB89
:10079000020263EBE073009821464FEAE074B8EB85
:1007A000000061EB0401E9E783F000435BE781F0BF
:1007B000004158E72DE9F04D81EA030404F0004BB5
:1007C00021F0004514464FF0000A23F0004150EAA2
:1007D000050220D054EA01021DD0C5F30A57024693
:1007E000C5F31303C1F31300C1F30A5640F4801597
:1007F00043F48013A7EB0608101BD64608F2FD3819
:1008000073EB050002D308F1010801E092185B4187
:10081000B8F1000F03DA00200146BDE8F08D00209A
:100820004FF48011064684460EE0171B73EB050754
:1008300005D3121B63EB050306434CEA010C490880
:100840004FEA300092185B4150EA0107EDD152EABD
:10085000030012D082EA040083EA0501084305D0B0
:10086000101BAB4106D20122002306E000224FF00C
:10087000004302E06FF0010253101AEB06004CEB4C
:10088000085110EB0A0041EB0B01BDE8F04DFFF7FA
:100890008DBEC1F30A52C1F3130140F2FF3341F49C
:1008A00080119A4202DA00200146704740F2334339
:1008B0009A42A2F2334202DC5242FFF735BC00F00A
:1008C0002BB8000030B5041E71F1000404DB4FF0BA
:1008D0000044404264EB0101141E73F1000405DB87
:1008E0001C464FF00043524263EB0403994208BF99
:1008F000904230BD064C074D06E0E06840F0010331
:1009000094E8070098471034AC42F6D3FFF7F2FBA7
:10091000EC5700080C580008202A04DB203A00FAA3
:1009200002F1002070479140C2F1200320FA03F346
:10093000194390407047202A06DBCB17203A41FA32
:1009400002F043EAE07306E041FA02F3D040C2F15C
:1009500020029140084319467047FEE710B5FFF7A3
:100960002DFD044A044BFFF797FCBDE81040FFF74C
:100970006FBD0000DE3B6A4C88B9843F70470000C1
:10098000064908B50968064AC908B1FBF2F14143B6
:10099000009100BF491E0091FBD208BD5800002005
:1009A00040420F0072B6FEE707480068416A074AF6
:1009B0004942118006490B685B6A5B425380002202
:1009C0004262086842627047F4050020000000207F
:1009D0003C06002070B5044600F010F90546601C86
:1009E00002D004480078044400F008F9401BA042FB
:1009F000FAD370BD4C0000202DE9F84FDFF8B89114
:100A0000002409F1040A0AF1040B23460F270BF115
:100A1000040EC9E00125A5402A40AA427DD1674EB7
:100A2000D1F804C0ACEB0608B44532D014DCBCF1FC
:100A3000030F3AD009DCBCF1000F2AD0BCF1010F42
:100A40001CD0BCF1020F31D11DE0BCF1110F17D049
:100A5000BCF1120F2AD119E0B8F5881F19D006DCB5
:100A6000B8F5803F15D0B8F5801F1FD111E0B8F55B
:100A7000001F0ED0B8F5041F18D10AE0CB6815E0AE
:100A8000CB681B1D12E0CB6808330FE0CB680C333A
:100A90000CE08B682BB1012B4FF0080303D04561AC
:100AA00004E0042302E0056100E00023FF2A01D8EE
:100AB000064601E000F104064FEA840501D9A5F1DC
:100AC0002005D6F8008007FA05FC28EA0C0803FA8E
:100AD00005F548EA0508C6F800804D68ED0062D5C6
:100AE000374DAE6946F00106AE61AD6924F00306EC
:100AF00005F001050095334D06EB050CDCF80850B8
:100B0000A607360F07FA06F825EA0805DFF8B880C9
:100B1000404503D14FF0000817E044E0DFF8AC8017
:100B2000404502D14FF001080FE0DFF8A4804045B6
:100B300002D14FF0020808E0DFF89880404502D16A
:100B40004FF0030801E04FF0040808FA06F848EAFD
:100B50000508CCF808804D68D9F80060ED034D46D3
:100B600001D5164300E096432E604D68DAF8006028
:100B7000AD03554601D5164300E096432E604D68FF
:100B8000DBF80060ED025D4601D5164300E09643B8
:100B90002E604D68DEF80060AD02754601D5164343
:100BA00000E096432E60641C0D682A46E5407FF401
:100BB00031AFBDE8F88F00000004014000001110C3
:100BC000001002400000014000080140000C0140FC
:100BD00000100140001401408068084000D001204E
:100BE0007047C26821EA02030A4043EA02410161F8
:100BF00070470AB1016170470904FBE7014880684A
:100C0000704700004C0000200248816802781144BF
:100C1000816070474C000020074810B5016841F022
:100C200010010160032000F075F80F2000F006F8B5
:100C300000F024F8002010BD0020024070B50D4DDA
:100C400004464FF47A712878B1FBF0F00A4909683C
:100C5000B1FBF0F000F0ECFA48B9102C07D20022FA
:100C60002146501E00F036F800206C6070BD012057
:100C700070BD00004C000020580000200C4808B552
:100C8000816941F001018161816901F001010091F7
:100C9000C16941F08051C161C06900F0805000908D
:100CA0000448416821F0E06141F00071416008BDF5
:100CB0000010024000000140002809DB00F01F0284
:100CC000012191404009800000F1E020C0F80011AE
:100CD00070470000F0B40E4B1B680C46C3F30223B0
:100CE000C3F10705042D00D90425191D072901D2D8
:100CF000002300E0DB1E012606FA05F1491E214013
:100D000099409E40761E16403143F0BC01F004BF6E
:100D10000CED00E0064900F0070208684FF6FF03FB
:100D2000184040EA0220034A104308607047000060
:100D30000CED00E00000FA052DE9F0470F46050034
:100D400061D0434E306800F00700B84209D23068E5
:100D500020F0070038433060306800F00700B842E8
:100D600051D128683B4C810712D5400703D56068F4
:100D700040F4E06060602878000703D5606840F4C4
:100D8000605060606068A96820F0F000084360600F
:100D90002878C00728D06868012810D02168022868
:100DA00010D0890700292EDA616821F00301014380
:100DB0006160FFF723FF804641F288390DE021682A
:100DC0008903EFE78901EDE7FFF718FFA0EB0801C2
:100DD000494502D90320BDE8F0876068696800F0E2
:100DE0000C00B0EB810FEFD1306800F00700B84283
:100DF0000BD9306820F0070038433060306800F0CD
:100E00000700B84201D00120E5E72878400705D562
:100E10006068E96820F4E0600843606028780007B3
:100E200006D56068296920F4605040EAC10060601E
:100E300000F038F86168084AC1F30311515CC840FA
:100E40000649086006480068FFF7F8FE0020C2E780
:100E50000020024000100240D45700085800002033
:100E6000500000200448054900684968044AC1F35D
:100E70000221515CC8407047580000200010024019
:100E8000E45700080448054900684968044AC1F36A
:100E9000C221515CC8407047580000200010024039
:100EA000E457000812A185B00FC98DE80F0014A007
:100EB000144A006804905168134801F00C03042B95
:100EC00010D0082B0ED1C1F38343C9031DF80300D2
:100ED0000AD5516804AAC1F34041515C0A4A504303
:100EE000B0FBF1F005B0704708494843FAE700004D
:100EF00002030405060708090A0B0C0D0E0F10105B
:100F0000010200000010024000127A0000093D00BA
:100F10002DE9F84F040070D02078C04DC00749D0AB
:100F20006868C0F38100012807D06868C0F38100B9
:100F3000022809D16868C00306D52868800339D51E
:100F400060680028E7D035E06068B0F5803F0BD0DE
:100F500010B1B0F5A02F11D0286820F4803028609F
:100F6000286820F4802002E0286840F4803028605F
:100F7000606890B1FFF742FE06460AE0286840F438
:100F800080202860F0E700BFFFF738FE801B642850
:100F900073D828688003F7D50CE0FFF72FFE0646CC
:100FA00005E000BFFFF72AFE801B6428F0D8286800
:100FB0008003F7D420789A4E80074FF001094FF054
:100FC000000839D5686810F00C0F07D06868C0F3C6
:100FD0008100022809D16868C00306D42868800708
:100FE00014D52069012808D110E02069B0B1C6F8F5
:100FF0000090FFF703FE074605E00AE1FFF7FEFD5C
:10100000C01B0228C4D828688007F7D52868616902
:1010100020F0F80040EAC10028600DE0C6F800802A
:10102000FFF7ECFD074604E0FFF7E8FDC01B0228D0
:1010300023D828688007F7D4207800072CD5794872
:10104000A169D9B1C0F80090FFF7D8FD074604E0C8
:10105000FFF7D4FDC01B02280FD8686A8007F7D5B8
:1010600071484FF4FA510068B0FBF1F0009000BFF6
:101070000098411E0091FAD20EE080E0C0F8008096
:10108000FFF7BCFD074604E0FFF7B8FDC01B0228D0
:1010900075D8686A8007F7D42078400760D5E8697A
:1010A0000027C00008D4E86940F08050E861E86992
:1010B000012700F0805000905C480168C90513D4F6
:1010C0000168834641F480710160FFF797FD824615
:1010D00006E000BFFFF792FDA0EB0A0064284ED89F
:1010E000DBF80000C005F5D5E06801280AD008B19A
:1010F000052813D0286A20F001002862286A20F011
:10110000040002E0286A40F001002862E06841F231
:10111000883B98B1FFF772FD82460BE0286A40F0E9
:1011200004002862EEE700BFFFF768FDA0EB0A01AC
:1011300059455AD8286A8007F6D50CE0FFF75EFDBE
:10114000824605E0FFF75AFDA0EB0A0159454CD84D
:10115000286A8007F6D41FB1E86920F08050E86162
:10116000E06988B36968C1F38101022944D002288B
:10117000C6F8608004D0FFF741FD044638E034E053
:10118000FFF73CFD074604E0FFF738FDC01B0228CF
:101190002BD828688001F7D4206AB0F5803F05D1AC
:1011A0006868A16820F4003008436860D4E9080149
:1011B0000843696821F4741108436860C6F86090B8
:1011C000FFF71CFD044606E025E000BFFFF716FD13
:1011D000001B022809D828688001F7D51BE000BF52
:1011E000FFF70CFD001B022802D90320BDE8F88F91
:1011F00028688001F4D40EE00128F7D06868226ADC
:1012000000F48031914204D1616A00F47010884288
:1012100001D00120EAE70020E8E7000000100240CA
:10122000000042428004424258000020007000400A
:1012300010B5401EB0F1807F01D3012010BD4FF0EA
:10124000E02460610F21601701F066FC0020A061BE
:1012500007202061002010BD7047704710B590F83E
:101260003C20012A22D0012280F83C20CA688C68E8
:1012700022F4407222434C6822F4806222430C68BC
:1012800022F4006222430C6922F4805222434C690A
:1012900022F400522243C969002322F480420A4307
:1012A00001684A6480F83C30002010BD022010BD67
:1012B00070B590F83C20012A26D0012480F83C40EB
:1012C000022280F83D2003685A689D6822F070066B
:1012D0000A6832435A600D4B02689A4208D0B2F154
:1012E000804F05D00A4B9A4202D00A4B9A4204D151
:1012F000496825F080031943916080F83D40002142
:1013000080F83C10084670BD022070BD002C0140E2
:10131000000400400008004010B5040003D094F819
:101320003D0010B107E0012010BD002084F83C0012
:10133000204600F01FF8022084F83D00211D20689F
:1013400001F0ACF9012084F8460084F83E0084F8EE
:101350003F0084F8400084F8410084F8420084F89B
:10136000430084F8440084F8450084F83D000020E0
:1013700010BD000008B5114A01681148914208D11A
:10138000816941F400618161806900F4006000902E
:1013900008BDB1F1804FFBD1C16941F00101C161CC
:1013A000C069002200F00100009011461C20FFF7E8
:1013B00091FCBDE808401C20FFF77EBC002C0140DA
:1013C0000010024090F83D10012901D00120704723
:1013D000022180F83D100168CA6842F00102CA602B
:1013E00000680B49884208D0B0F1804F05D0094908
:1013F000884202D00849884204D1816801F007017F
:10140000062903D0016841F0010101600020704706
:10141000002C0140000400400008004070B5044664
:1014200090F83C00012817D0012584F83C50022098
:1014300084F83D002068826822F0770222F47F421F
:1014400082600868502830D00DDC20284DD005DCA3
:1014500098B310283BD148E0022070BD302844D01A
:10146000402834D139E0602828D0702806D0B0F563
:10147000805F2CD0B0F5005F29D10AE0CB68D1E9BC
:101480000121206801F04DF92068816841F0770161
:1014900009E0CB68D1E90121206801F042F9206818
:1014A000816841F48041816011E0CA684968206820
:1014B00001F0ECF95021206807E016E0CA6849689D
:1014C000206801F0F4F96021206801F034F984F813
:1014D0003D50002084F83C0070BDCA68496820680F
:1014E00001F0D4F940212068EFE722680146104658
:1014F000EBE72DE9F0410D46040003D094F83D00E0
:1015000018B108E00120BDE8F081002084F83C001B
:10151000204600F041F8022084F83D0020688168F0
:1015200044F2070291438160211D206801F0B6F862
:10153000226890689169166A2B68AF69034340F28C
:101540000330814341EA0721A868EF6908434FF659
:10155000FC418843E96840EA0720014328692F6A73
:10156000000140EA0730084369686D6926F02206E9
:1015700046EA0515294393602268906154F8460BAA
:101580000162012004F81F09E0752076E0762077DB
:10159000A0750020B7E7000000B585B000210091DC
:1015A0000191029103911F4B02681F491F489A4203
:1015B0001FD1CA6942F00202CA61CA6902F002027E
:1015C00004928A6942F008028A61896901F008017F
:1015D0000491302100916946FFF70EFA14484168E2
:1015E00021F4406141F0E06141F40061416005B0E7
:1015F00000BD104B9A42FAD1CA6942F00402CA6196
:10160000CA6902F0040204928A6942F008028A61FF
:10161000896901F008010491C02100916946FFF732
:10162000EBF9E4E70004004000100240000C014028
:10163000000001400008004070B590F83E6004468C
:1016400090F83F5090F8423090F84320022021B1AA
:1016500004290ED0012E1BD114E0012E18D1012B2C
:1016600016D184F83E0084F842000122002120684F
:1016700020E0012D0CD1012A0AD184F83F0084F822
:10168000430014E0012D03D1012B01D1012A01D027
:10169000012070BD84F83E0084F83F0084F84200C9
:1016A00084F8430001220021206801F02DF8012276
:1016B0000421206801F028F82068016841F0010148
:1016C0000160002070BD704770B504460068016974
:1016D0004FF00005C943890715D4C168C94389077C
:1016E00011D4E91E016101202077206880698007FC
:1016F000204602D0FFF7E7FF04E000F0BFF82046E5
:1017000000F04EF9257720680169C943490717D4CD
:10171000C168C943490713D46FF004010161022075
:1017200020772068806910F4407F204602D0FFF7C0
:10173000CAFF04E000F0A2F8204600F031F9257756
:1017400020680169C943090716D4C168C94309075C
:1017500012D46FF008010161042020772068C0696D
:101760008007204602D0FFF7AEFF04E000F086F8C5
:10177000204600F015F9257720680169C943C9069C
:1017800017D4C168C943C90613D46FF010010161B1
:10179000082020772068C06910F4407F204602D0DE
:1017A000FFF791FF04E000F069F8204600F0F8F838
:1017B000257720680169C943C90708D1C168C943B1
:1017C000C90704D1891E0161204600F039F920685B
:1017D0000169C943090609D4C168C943090605D48A
:1017E0006FF0800101612046FFF736FD2068016936
:1017F000C943490609D4C168C943490605D46FF0F5
:1018000040010161204600F0CBF920680169C9431D
:1018100089060BD4C168C943890607D46FF020013B
:1018200001612046BDE87040FFF717BD70BD0000A4
:1018300000B585B0002100910191029103910068EB
:101840000B49884212D10B48816941F00401816142
:101850008069694600F0040004904FF440700090E5
:101860000220019003900448FFF7C6F805B000BDC0
:10187000002C01400010024000080140704770B584
:10188000044690F83C000D4601280AD0012084F857
:101890003C0042B1042A18D0082A2AD00C2A4DD183
:1018A00039E0022070BD206800F04EFF2068816999
:1018B00041F0080181612068816921F004018161A2
:1018C000206881692A69114311E0206800F064FFF3
:1018D0002068816941F4006181612068816921F497
:1018E00080618161206881692A6941EA0221816100
:1018F00024E0206800F07CFF2068C16941F0080105
:10190000C1612068C16921F00401C1612068C16919
:101910002A69114311E0206800F096FF2068C16930
:1019200041F40061C1612068C16921F48061C16135
:101930002068C1692A6941EA0221C161002084F856
:101940003C0070BD10B5040003D094F83D0010B108
:1019500007E0012010BD002084F83C00204600F084
:101960001EF8022084F83D00211D206800F096FE3C
:10197000012084F8460084F83E0084F83F0084F893
:10198000400084F8410084F8420084F8430084F861
:10199000440084F8450084F83D00002010BD7047E5
:1019A0007047000010B50446022249B104290ED048
:1019B000082913D094F84100012816D0012010BD49
:1019C00094F83E000128F9D184F83E200FE094F805
:1019D0003F000128F2D184F83F2008E094F840004D
:1019E0000128EBD184F8402001E084F84120012255
:1019F000206800F089FE0F492068884203D1426CBC
:101A000042F4004242642068884208D0B0F1804F1E
:101A100005D00949884202D00849884204D181682A
:101A200001F00701062903D0016841F001010160BE
:101A3000002010BD002C01400004004000080040C0
:101A40002DE9F0470068B0F1804F2FD1504C20466F
:101A5000226BD0E90D10012A26D0002A26D10129B7
:101A600024D1002822D1E069401CE061FEF79CFFF0
:101A7000474DB5F90200FEF771FF0646B5F90000C3
:101A8000FEF76CFF434D07462A463146286900F0B1
:101A9000D3FF05F1280632463946306900F0CCFF05
:101AA000606A002720B10FE00029DAD0BDE8F08796
:101AB00001F034FF3849A069884205DA6FF031003F
:101AC000E0620120606202E0606A012857D1E06AAA
:101AD0004FF00201401CE06200D5E163322806D2DB
:101AE000E7636A6A963A6261726A96322261A0F18D
:101AF0003202642A03D26A6A6261726A2261A0F1C8
:101B00009602322A00D2E163A0F1C801642906D20C
:101B1000E763696AC8316161716A963921614FF47E
:101B20009678404515DBDFF874A04FF4806949468C
:101B30005046FFF751F818B9686A6061706A206111
:101B4000E06A404505DB49465046FFF745F8012865
:101B500002D0A06A00280CDDA06A401CA062696A5D
:101B6000C8396161716AFA312161962801D1A76291
:101B70006762D4E9042194F83C0000F009FBE069B5
:101B8000042893DDE76100F075F8A0618EE700009E
:101B900000000020F00400200000C84100080140BF
:101BA000704770B5040004D094F83D00002510B1D2
:101BB00006E0012070BD84F83C50204600F022F879
:101BC000242084F83D002068C16821F40051C160E0
:101BD000204600F0D3FE2068016921F490410161A4
:101BE0002068416921F02A0141612068C16841F4FF
:101BF0000051C1602564202084F83D0084F83E0037
:101C0000002070BD30B585B000240094019402948A
:101C1000039400681449884224D11448C16941F4EE
:101C20008021C161C16901F480210491816941F081
:101C30000801816180690E4D00F0080004904FF4A6
:101C4000806000900220019003200390694628469E
:101C5000FEF7D2FEE814CDE9000469462846029456
:101C6000FEF7CAFE05B030BD00480040001002403B
:101C7000000C01402DE9F0410122204C1603002503
:101C800031462046FEF7B5FF0F20FEF779FE002211
:101C900031462046FEF7ADFF194FE61408E001205B
:101CA0006D1CFEF76DFEBD4202D91648BDE8F081FD
:101CB00031462046FEF790FF0028F0D0002508E0CE
:101CC00001206D1CFEF75CFEBD4202D94FF0404082
:101CD000ECE731462046FEF77FFF0128F0D0680090
:101CE000FEF77DFB084A094BFEF7D6FA4FF0FF32AC
:101CF000FEF744FBBDE8F041FEF7AABB0008014037
:101D0000A0860100000080BF4C37894160E5A03FFC
:101D1000FEE7000070B501220E4D54022146284610
:101D2000FEF767FF0122160231462846FEF761FFE3
:101D300000F048F8002221462846FEF75AFF00F03E
:101D400041F8002231462846FEF753FFBDE87040B7
:101D500000F038B8000C014070B50B4D4FF4007422
:101D6000002221462846FEF744FF012211022846A0
:101D7000FEF73FFF00F026F821462846BDE87040F8
:101D80000122FEF736BF0000000C014070B50C4C7C
:101D9000012251022046FEF72CFF00F013F8012229
:101DA000150229462046FEF724FF00F00BF800221A
:101DB00029462046FEF71DFFBDE8704000F002B83E
:101DC000000C01400320401EC0B2FCD2704700004E
:101DD00010B5064C002201212046FEF70AFF2046DE
:101DE0000122BDE810400221FEF703BF000C0140B4
:101DF00010B5064C012211462046FEF7FAFE204699
:101E00000022BDE810400221FEF7F3BE000C0140A5
:101E100010B5064C012211462046FEF7EAFE204688
:101E20000122BDE810400221FEF7E3BE000C014094
:101E30002DE9F04385B000243C48009401940294BD
:101E40000394816941F010018161816901F0100101
:101E50000491816941F020018161816901F02001D3
:101E60000491816941F004018161816901F00401FB
:101E70000491816941F00801816180692C4F00F073
:101E800008004FF4C0450490002229463846FEF76A
:101E9000B0FEDFF8A09000224FF482514846FEF7D2
:101EA000A8FE012280214846FEF7A3FEDFF88880C5
:101EB000012211464046FEF79CFE002240F202310C
:101EC0004046FEF796FE0095022601250396CDE9D1
:101ED000015469463846FEF78FFD4FF48650CDE930
:101EE0000005CDE9024669464846FEF785FD40F209
:101EF0000330CDE90005CDE9024669464046FEF7CC
:101F00007BFD4FF47040CDE90004694640460294E1
:101F1000FEF772FD4FF44060CDE900046946484683
:101F20000294FEF769FD05B0BDE8F08300100240A1
:101F30000010014000080140000C014010B596B0AF
:101F400000240F9410941194129413941C21684649
:101F50001494FEF700F9202107A8FEF7FCF82C489E
:101F60002A4901600321C0E9011440F2E731C0E9C8
:101F7000031444618461FFF7CFF908B1FEF712FD45
:101F80004FF480500F900FA92148FFF747FA08B18E
:101F9000FEF708FD1E48FFF7D5FC08B1FEF702FD6D
:101FA000139413A91A481494FFF782F908B1FEF7A5
:101FB000F9FC6020CDE90004029403940494059494
:101FC0000022694612480694FFF759FC08B1FEF753
:101FD000E9FC042269460E48FFF751FC08B1FEF700
:101FE000E1FC0794089409944FF400500A94CDE959
:101FF0000B4007A906480E94FFF730F908B1FEF729
:10200000D1FC0348FFF714FC16B010BD002C0140B2
:102010006405002010B586B0002417480094019490
:102020000294039404944FF080410594016040F2BF
:10203000CF21C0E9011440F2CF71C0E903148461DB
:10204000FFF76AF908B1FEF7ADFC4FF4805000903D
:1020500069460948FFF7E2F908B1FEF7A3FC0494CA
:1020600004A905480594FFF723F9002801D0FEF7DD
:1020700099FC06B010BD0000AC05002010B58CB076
:1020800024216846FEF767F800241648099414498D
:102090000A94C0E900144FF6FF71C0E902418021A3
:1020A000046181610320CDE900040120CDE902042F
:1020B0000494CDE90540079469460A480894FFF75F
:1020C00018FA08B1FEF76EFC099409A905480A94AC
:1020D000FFF7EEF8002801D0FEF764FC0CB010BD4D
:1020E00000040040F405002010B58CB0242168469F
:1020F000FEF731F800241648099414490A94C0E9FF
:1021000000144FF6FF71C0E9024180210461816132
:102110000320CDE900040120CDE902040494CDE9B7
:102120000540079469460A480894FFF7E2F908B1A8
:10213000FEF738FC099409A905480A94FFF7B8F896
:10214000002801D0FEF72EFC0CB010BD00080040A6
:102150003C0600200C4810B50A4901604FF4E131FB
:102160004160002181600C22C160C0E904128161DC
:10217000C161FFF716FD002803D0BDE81040FEF74F
:1021800011BC10BD0048004084060020FEE700009E
:1021900070B5184C15460E4605280CD2DFE800F045
:1021A000030C0F192100FFF723FE00F0F3F920685C
:1021B00086632068456370BDFFF70AFE13E0FFF7F2
:1021C00027FE00F0F7F92168002048632168886342
:1021D00070BDFFF7FDFD00F0DDF920684563206864
:1021E0008663FFF705FE00F0C5F9206845632068A7
:1021F000866370BD64050020FEE7000030B4002156
:10220000084B0A465FF0000003EBC004401CC0B25C
:1022100062548028F8D3491CC9B20829F2D330BCD3
:1022200000F096B85C00002030B5CC0801F0070340
:1022300001259D40EBB2064D05EBC005C808285CA2
:102240000AB1184302E063EA0000C043285530BDDC
:102250005C00002010B53D4C002204212046FEF712
:10226000C8FCC820FEF7B6FB012204212046FEF779
:10227000C0FC0021AE2000F02FF90021084600F03C
:102280002BF90021102000F027F90021402000F058
:1022900023F90021812000F01FF90021CF2000F058
:1022A0001BF90021A12000F017F90021C82000F03F
:1022B00013F90021A62000F00FF90021A82000F05A
:1022C0000BF900213F2000F007F90021D32000F096
:1022D00003F90021084600F0FFF80021D52000F0A6
:1022E000FBF80021802000F0F7F80021D92000F051
:1022F000F3F80021F12000F0EFF80021DA2000F0DF
:10230000EBF80021122000F0E7F80021DB2000F0BC
:10231000E3F80021302000F0DFF80021202000F059
:10232000DBF80021022000F0D7F800218D2000F01A
:10233000D3F80021142000F0CFF8FFF75FFF002151
:10234000BDE81040AF2000F0C7B800000008014011
:1023500070B5184E002400BF04F1B000C0B20021D7
:1023600000F0BAF80021084600F0B6F8002110206D
:1023700000F0B2F8FFF7CEFC782000F02DF9FFF75F
:1023800005FD402000F028F9FFF700FD5FF0000593
:1023900006EBC500005D00F01FF9FFF7F7FC6D1CB0
:1023A000EDB2802DF4D3FFF7D7FC641CE4B2082C07
:1023B000D2D370BD5C0000202DE9FC4F1C460E46B8
:1023C00082468B460190082B0DD0600700D001207B
:1023D00000EBD40061084843C0B28146203AD0B235
:1023E000009000204BE00620F7E7082C13D00C2CBF
:1023F00018D0102C1BD0182C44D10098234900EB86
:10240000C00000BF01EB8001002711F80850E80769
:1024100012D00B9A13E000981D4900EB400001EB2D
:102420004001F1E700981B4900EB4000EAE71A4938
:10243000009801EB0011E7E70B9828B30022314622
:102440005046FFF7F1FE761C7F1C6D08FFB2F6B216
:10245000082FDCD30AF1010000F0FF0A082C0AD093
:102460000199AAEB0100B0EB540F04D10BF1080065
:102470008A4600F0FF0B08F101005E46C0B28046BC
:102480004845B2D3BDE8FC8F0122D8E7504600088A
:10249000C4390008EC3B0008604000082DE9F84111
:1024A0001E46154688460446079F0BE033464146C4
:1024B00020460097FFF780FF082E0AD004EB560055
:1024C000C4B26D1C2A78A2F120005E28EED9BDE8C6
:1024D000F881A41DE4B2F4E770B50C460546FFF799
:1024E00019FC782000F078F8FFF750FC0CB1402080
:1024F00000E0002000F070F8FFF748FC284600F0EC
:102500006BF8FFF743FCBDE87040FFF725BC000007
:102510000849016008494160084981600849C16073
:102520000121416100218161C1610162416205496E
:102530000161704700003444000007435C8F423E55
:1025400000801D44B81E053E0749016000214FF080
:102550007E52C0E90112054AC2600122C0E904218D
:102560008161C161016270470000C8C200009643EA
:102570007047000010B5064C012240212046FEF7AE
:1025800038FB20460022BDE810408021FEF731BB19
:102590000008014010B5064C002240212046FEF7FD
:1025A00028FB20460122BDE810408021FEF721BB18
:1025B0000008014010B5064C012240212046FEF7DC
:1025C00018FB20460122BDE810408021FEF711BB18
:1025D00000080140704700002DE9F041124F00242F
:1025E00005464FF40078BE15280601D5012200E00B
:1025F000002241463846FEF7FCFAFFF7E3FB0122D2
:1026000031463846FEF7F5FAFFF7DCFB002231468B
:102610003846FEF7EEFA6806641C050EE4B2082C94
:10262000E2D3BDE8F0810000000C0140FEF7ECBAF7
:1026300030B58FB028216846FDF78DFD14210AA81A
:10264000FDF789FD01210804CDE900100024029462
:1026500002250491CDE907504FF4E0100990684637
:10266000FEF756FC08B172B6FEE70F20CDE90A0569
:102670004FF48060CDE90C4002210AA80E94FEF7C9
:102680005BFB002801D072B6FEE70FB030BD70478B
:102690000148FFF719B80000AC050020F0B502684A
:1026A000164B174C174D4FF08047984205D0B84253
:1026B00003D0A04201D0A84203D122F070064A689C
:1026C0003243984205D0B84203D0A04201D0A8427C
:1026D00003D122F44074CA6822434C6922F080027C
:1026E000224302608A68C2620A688262984201D10B
:1026F0000969016301214161F0BD0000002C014026
:10270000000400400008004010B501F01F03012143
:10271000046A99408C430462016A9A401143016241
:1027200010BD10B5846842EA032224F47F440A43B2
:102730002243826010BD826822F070020A4342F098
:10274000070181607047000030B5026A22F0010283
:102750000262026A4368846924F073050C682C43A2
:1027600022F002058A682A430A4DA8420BD122F0C2
:102770000805CA6823F440732A434D6922F0040215
:102780001D438B692B434360846149684163026246
:1027900030BD0000002C014030B5026A22F010026A
:1027A0000262026A436884690D6824F4E64444EADC
:1027B00005248D6822F0200242EA05120B4DA84242
:1027C0000ED1CD6822F0800242EA05124D6923F451
:1027D000406343EA85038D6922F0400243EA8503A2
:1027E0004360846149688163026230BD002C01400E
:1027F00030B5026A22F480720262036A4268C469D8
:1028000023F4007324F073050C682C438D6843EAAD
:1028100005230C4DA8420ED1CD6823F4006343EA92
:1028200005234D6922F4405242EA05128D6923F4D2
:10283000806342EA05124260C4614968C163036271
:1028400030BD0000002C014030B5026A22F48052F5
:102850000262046A4268C3690D6823F4E64343EAEE
:1028600005238D6824F4005444EA0534064DA8423B
:1028700004D14D6922F4804242EA85124260C3616C
:1028800049680164046230BD002C014010B5036A40
:10289000046A24F001040462846924F0F00444EA28
:1028A000021423F00A020A438461026210BD10B5CB
:1028B000036A23F0100303628369046A23F47043FC
:1028C00043EA023224F0A00343EA0111826101626B
:1028D00010BD2DE9F04114461269012A04D02046AA
:1028E000BDE8F041FFF730BEFDF792FCA569064652
:1028F00001212846FDF7C4FC3146FDF78CFCE16957
:10290000FDF734FCA168FDF789FC07463146606895
:10291000FDF784FC804629463046FDF779FC2168A6
:10292000FDF77CFC4146FDF721FC3946FDF71EFC16
:102930006169FDF71BFC6061C4E90665FDF75CFD9C
:102940002062FDF732FDE168FDF7A8FD03D2E068E3
:10295000FDF752FD2062E06880F00045206AFDF737
:1029600024FD2946FDF790FD05D2E06880F0004087
:10297000FDF742FD2062BDE8F081000070B504461D
:1029800000680169E26821F4405111430161216945
:10299000A0680843616908432168CA6841F20C6372
:1029A0009A430243CA6020684169A26921F44071D8
:1029B000114341611E492068884202D1FEF762FA44
:1029C00001E0FEF74FFA00EBC00101EB0012606876
:1029D00064218000B2FBF0F3B3FBF1F36FF0180653
:1029E0007343B2FBF0F5B2FBF0F605EB830532233F
:1029F00003EB0515B5FBF1F5B6FBF1F605F0F005B7
:102A000005EB0615B2FBF0F6B2FBF0F0B0FBF1F00F
:102A10006FF01802504306EB800003EB0010B0FB90
:102A2000F1F0216800F00F002844886070BD0000BC
:102A300000380140FEE700002DE9F04114465269DC
:102A4000012A04D02046BDE8F041FFF761BDFDF743
:102A5000DFFBE769054601213846FDF711FC2946F1
:102A6000FDF7D9FB216AFDF781FBA168FDF7D6FBD5
:102A7000064629466068FDF7D1FB80463946284660
:102A8000FDF7C6FB2168FDF7C9FB4146FDF76EFB6C
:102A90003146FDF76BFBA169FDF768FBA061E168BA
:102AA000FDF7FCFC01D3A06901E0E068A06110F132
:102AB000FF4F01D30D48A061E069C4E90750A06948
:102AC000FDF79AFC6062FDF770FCE168FDF7E6FC3B
:102AD00001D3606A03E0E068FDF78EFC60620028C5
:102AE00001DA00206062BDE8F08100000000FA43D6
:102AF0000FB4084B10B504A902AA039800F0EEF831
:102B0000044602A9002000F06CFC204610BC5DF8D1
:102B100014FB0000E33300080907090E002804DB5A
:102B200000F1E02080F80014704700F00F0000F181
:102B3000E02080F8141D704702E008C8121F08C189
:102B4000002AFAD170477047002001E001C1121F2E
:102B5000002AFBD1704700002DE9FF5F82B0002101
:102B6000DDE90430020DDDF840B0034318D044F62F
:102B70001050A2F2FF3242431514119801281FD0C1
:102B8000A5EB0B00401C5FEA000A4FF000064E4F19
:102B9000DFF83891B046504615D5CAF1000413E06D
:102BA000119801244AA3012801D16FEA0B01029870
:102BB000119AC0E90031C0E9024206B0BDE8F09FB9
:102BC000CBF10000DFE704460021404A491842EB00
:102BD0000450CDE9001012E0E00707D032463B4632
:102BE00040464946FDF758FB8046894632463B46FB
:102BF00010461946FDF750FB06460F466410002CA0
:102C0000EAD1DDE90401DDE90023BAF1000F06DABB
:102C1000FDF742FB42464B46FDF73EFB05E0FDF764
:102C2000C9FD42464B46FDF7C5FD04460E4600224F
:102C3000284BFDF747FE03D84FF0FF30014607E071
:102C40000022254B20463146FDF70DFDFDF721FE04
:102C5000102409E0002C0ADB0A220023FDF73EFCC9
:102C6000039B30321A55641E50EA0102F2D1641CF3
:102C7000039AC4F111031444119A012A03D00122CA
:102C800008430DD10AE0084304D000204FF0110B97
:102C9000119072E7A3EB0B056D1E0DE05B4504DDA3
:102CA0004FF0000205F1010504E003DA4FF00002E5
:102CB000A5F10105002AECD002981199C0E9023172
:102CC000C0E9004579E70000000014400000F03F33
:102CD000300000000000F0430000E03F2DE9FF4F0E
:102CE00095B09A46884606460025EEE1252877D11C
:102CF00000242746F94A0121039400E0044316F812
:102D0000013F203B01FA03F01042F7D130782A2826
:102D100011D06FF02F033078A0F13002092A16D8B5
:102D2000039A44F0020402EB820203EB42021044D5
:102D3000761C0390EFE758F8042B0392002A03DA7D
:102D4000504244F40054039044F00204761C30785E
:102D50002E2816D116F8010F44F004042A280DD0AD
:102D60006FF02F023078A0F13003092B09D807EB60
:102D7000870302EB4303C718761CF3E758F8047B7C
:102D8000761C30786C280FD006DC4C2817D06828C9
:102D90000DD06A2814D104E0742810D07A280FD1FD
:102DA0000DE044F400140AE044F4801401E044F41B
:102DB00040147278824202D104F58014761C761C8D
:102DC000307866280BD013DC582877D009DC00282F
:102DD00075D04528F6D04628F4D047281AD193E17B
:102DE00018E0632835D0642879D0652812D18BE1AA
:102DF000702873D008DC6728F1D069286FD06E285E
:102E00000DD06F2806D1ACE073282CD0752874D073
:102E1000782853D05246179990476D1C54E1C4F35B
:102E20000250022809D003280DD0D8F80010042839
:102E30000DD00D6008F1040846E1D8F80010EA173B
:102E4000C1E90052F6E7D8F800100D80F2E70D70E6
:102E5000F0E718F8041B8DF8001000208DF8010031
:102E6000EB46012003E058F804BB4FF0FF30610748
:102E70004FF0000102D40DE009F101018946B94289
:102E80000FDA8145F8DB1BF809100029F4D108E0BE
:102E900009F1010189468142FADB1BF8091000297A
:102EA000F6D103985346A0EB090721463846179AF6
:102EB00000F080FA284400EB090507E044E008E14F
:102EC0000DE01BF8010B524617999047B9F1010923
:102ED000F7D2534621463846179AF2E039E00A21E4
:102EE000C4F302524FF0000B0091022A06D058F8AA
:102EF000040BC117032A09D00AE023E008F10700F8
:102F000020F00702F2E80201904605E000B2C11786
:102F1000042A01D140B2C117002906DA0A4600216D
:102F2000404261EB02012D2202E0220504D52B2252
:102F30008DF80420012203E0E20701D02022F7E708
:102F4000914657E00A2100E010214FF0000B00915C
:102F50000BE010214FF0000B44F00404082700910F
:102F600003E008204FF0000B0090C4F30252022A45
:102F700005D058F8040B0021032A08D008E008F116
:102F8000070020F00702F2E80201904603E080B259
:102F9000042A00D1C0B24FF0000922072AD53278A6
:102FA000702A07D0DDF800C08CF0100C5CEA0B0C26
:102FB00005D00EE040228DF80420012208E050EAFE
:102FC000010306D030238DF804308DF8052002224D
:102FD0009146009B83F0080353EA0B030AD150EAA1
:102FE000010201D1620705D530228DF804204FF08F
:102FF00001097F1E3278582A04D039A20C920CAAFB
:1030000002920BE03BA2F9E75B46009AFDF766FAF5
:103010000C9B9B5C029A521E0292137050EA0102B2
:10302000F2D1029804A9081A00F1200B600702D51A
:1030300024F4803400E001275F4502DDA7EB0B009C
:1030400000E0002000EB0B01009003984944401A77
:103050000390E00306D453462146179A039800F0E4
:10306000A9F90544002706E001A85246C05D17995A
:1030700090476D1C7F1C4F45F6DBE0030CD5534693
:103080002146179A039800F095F9054404E0302092
:103090005246179990476D1C0099481E00900029D0
:1030A000F5DC08E00298029952460078491C02912A
:1030B000179990476D1CBBF10001ABF1010BF1DCDE
:1030C0005BE100F065F90544761C307800287FF458
:1030D0000DAE19B02846BDE8F08F000009280100A8
:1030E000303132333435363738396162636465667E
:1030F0000000000030313233343536373839414240
:103100004344454600000000600700D4062708F14C
:10311000070020F00700F0E80223804603F0004C8F
:103120005FEA0C0001D097A009E0200501D596A028
:1031300005E0E00701D095A001E0AFF24C0013904C
:10314000307823F0004365280CD006DC452809D0F0
:1031500046281DD047287FD13BE0662818D0672835
:103160007AD136E00021112F01DB112000E0781C1C
:10317000CDE9000104A90CA8FFF7EEFCDDE90D0183
:103180000C9A4FF0000B07F10109109200914EE0EC
:103190004FF000400097CDE9011004A90CA8FFF7FB
:1031A000DBFCDDE90D020C9B0F994FF0000B914603
:1031B0001093009211B9791C00EB0109B7EB0900DB
:1031C00003D4C0F1FF3B07F10109A9EB070001900F
:1031D00042E0012F00DA01270021112F01DD11202B
:1031E00000E03846CDE9000104A90CA8FFF7B4FCC3
:1031F000DDE90D010C9A00914FF0000BB9461092D9
:1032000021070FD4009A4A4503DA914601E0A9F15B
:103210000109B9F1010F05DD109AA9F10101515C15
:103220003029F4D0B84202DA10F1040F03DA012198
:10323000CDE9011010E0002803DC8344A9EB000174
:1032400002E0411C494500DD8946A0EB0B00401C13
:1032500001904FF000400290200705D401984845A6
:1032600002DB4FF0FF30019000208DF84B000298F8
:103270000DF14B07B0F1004F25D002200C902B2010
:103280000D90029800280CDA404202902D200D90FB
:1032900007E00A210298FDF70BF93031029007F898
:1032A000011D0C99481E0C900029F2DC02980028A0
:1032B000EFD1791E0D980870307800F0200040F0B2
:1032C000450007F8020D11A8C01BC01D02901398FD
:1032D000007800B1012000EB0901019801EBE071D9
:1032E000029801440398401A401E0390E00306D45C
:1032F00053462146179A039800F05CF8054413984A
:10330000007818B15246179990476D1CE00323D5F9
:1033100053462146179A039800F04CF805441BE0E9
:10332000BBF1000F07DB0098584504DD1098179992
:1033300010F80B0001E01799302052469047019891
:103340000BF1010B401E05F10105019004D12E2067
:103350005246179990476D1CB9F10001A9F1010976
:10336000DEDC05E017F8010B5246179990476D1CFB
:103370000299481E02900029F4DC53462146179A10
:1033800003989EE62D0000002B00000020000000A6
:103390002DE9F041044600251E461746880404D452
:1033A00005E039462020B0476D1C641EF9D528463B
:1033B000BDE8F0812DE9F041044600251E46904607
:1033C000C80301D5302700E02027880404D505E094
:1033D00041463846B0476D1C641EF9D52846BDE805
:1033E000F0810A68531C0B601070704700224FF484
:1033F00080410148FDF7FDBB00100140012291030F
:103400000148FDF7F6BB0000001001402DE9F05F18
:103410006D4C4FF48056002531462046FDF7DCFB0D
:10342000DFF8A8B167144FF480484FF400494FF417
:10343000806AA8B939462046FDF7CEFB80B94146DF
:103440002046FDF7C9FB01280AD149462046FDF771
:10345000C3FB28B951465846FDF7BEFB002822D0D1
:1034600031462046FDF7B8FB012814D139462046E5
:10347000FDF7B2FB01280ED141462046FDF7ACFB1B
:1034800048B949462046FDF7A7FB20B951465846A2
:10349000FDF7A2FB30B131462046FDF79DFB012828
:1034A00002D015E04A4D8BE039462046FDF794FBEB
:1034B00070B941462046FDF78FFB48B94946204682
:1034C000FDF78AFB20B951465846FDF785FB28B128
:1034D00031462046FDF780FB10B116E03D4D6FE010
:1034E00039462046FDF778FB01280ED1414620469B
:1034F000FDF772FB48B949462046FDF76DFB20B940
:1035000051465846FDF768FB28B131462046FDF785
:1035100063FB18B117E04FF0404551E039462046B3
:10352000FDF75AFB78B941462046FDF755FB50B9E7
:1035300049462046FDF750FB012804D15146584624
:10354000FDF74AFB28B131462046FDF745FB10B197
:1035500016E0214D34E039462046FDF73DFB78B9B1
:1035600041462046FDF738FB50B949462046FDF755
:1035700033FB28B951465846FDF72EFB012805D0EC
:1035800031462046FDF728FB18B119E04FF0814580
:1035900016E039462046FDF71FFB88B94146204614
:1035A000FDF71AFB60B949462046FDF715FB0128D7
:1035B00006D151465846FDF70FFB012800D1074DB3
:1035C0002846BDE8F09F0000000C014000080140C3
:1035D000000090C0000080C000004040000090400B
:1035E0001CB5FDF719FBC348FEF792FFC148283010
:1035F000FEF78EFFBF485030FEF7A6FFFFF718F822
:10360000FEF728FEFEF714FCFEF798FCFEF736FDE9
:10361000FEF76AFDFEF7FEFCFEF79CFDB648FDF7DF
:10362000D1FE0021B548FEF7BDF90421B348FEF7ED
:10363000B9F90021B248FDF7FFFF0421B048FDF7BA
:10364000FBFF0021AF48FDF7F7FF0421AD48FDF770
:10365000F3FFAB480168CA6842F00102CA60A94A98
:103660001168CB6843F00103CB60006847F230512A
:10367000416210684162A44DDFF890924FF4805887
:1036800001264FF47A7A40F2DC5BD9F820004C46F0
:1036900028B9FEF7DFFD1420FDF79CF92662A0692A
:1036A000FCF7C3FECDE90001984A9248403298A148
:1036B0001438FFF71DFA8F4A00211023143A0846E8
:1036C0000096FEF7EBFE0120FDF784F9FEF740FEC1
:1036D000474641462846FDF77FFA01280BD14103B2
:1036E0002846FDF779FA012805D181032846FDF720
:1036F00073FA012812D04FF480618748FDF76CFA05
:10370000012811D1C1032846FDF766FA01280BD123
:1037100081032846FDF760FA012805D1206B18B90E
:10372000606B08B9A06B30B139462846FDF754FAF2
:1037300001282ED03AE0002211460220FEF728FD93
:10374000FFF75CFE57465046FDF744F9FFF74EFE83
:103750005846FDF73FF9FFF751FE3846FDF73AF9B5
:10376000FFF744FE5846FDF735F9FFF747FE3846A8
:10377000FDF730F9FFF73AFE40F262224FF41B7179
:103780000020FEF705FD4FF42F70FDF723F92663A7
:103790007BE74FF400512846FDF71EFA012805D1BA
:1037A00081032846FDF718FA012812D04FF48061F2
:1037B0005948FDF711FA012812D1C1032846FDF737
:1037C0000BFA01280CD181032846FDF705FA0128E0
:1037D00006D1206B012803D1606B08B9A06B30B112
:1037E00039462846FDF7F8F9012832D03EE000229C
:1037F000114602206663FEF7CBFC43F2C820FDF7BA
:10380000E9F8FFF7FBFD5046FDF7E4F8FFF7EEFDA2
:103810005F465846FDF7DEF8FFF7F0FD5046FDF72E
:10382000D9F8FFF7E3FD3846FDF7D4F8FFF7E6FDDA
:103830005046FDF7CFF8FFF7D9FD40F262210A4666
:103840000020FEF7A5FC5046FDF7C4F800202063D9
:103850001BE74FF400512846FDF7BEF9012805D1BA
:1038600081032846FDF7B8F9012812D04FF4806192
:103870002948FDF7B1F901288AD1C1032846FDF78F
:10388000ABF9012884D181032846FDF7A5F9012869
:10389000DED1206B0028DBD1606B0128D8D1A06B72
:1038A0000028D5D1002211460220A663FEF770FC45
:1038B00041F28830FDF78EF8FFF7A0FD54465046E0
:1038C000FDF788F8FFF792FD5F465846FDF782F84E
:1038D000FFF794FD2046FDF77DF8FFF787FD38469A
:1038E000FDF778F8FFF78AFD2046FDF773F8FFF73C
:1038F0007DFDCAE6F0040020AC0500206405002030
:10390000F40500203C060020000C014000000020CF
:103910002573252E32660000000801402DE9F04194
:10392000244E254CA6F12807FFF770FD0146606084
:1039300006F128020020FEF7CCFF06F12800006AFD
:10394000FCF733FD0546E060706AFCF72EFD294662
:10395000FCF75EFCFCF750FD2061786AFCF725FD62
:103960002946FCF703FCFCF747FD6061D4E901013F
:10397000FCF78AFD13D1D4E90110FCF785FD05D1D0
:103980004FF480410D48FDF727F940B1726A0020DD
:10399000796AFEF7FDFB6068A060BDE8F081D4E9BC
:1039A00004210020FEF7F4FB4FF400510448FDF71A
:1039B00018F9F0E71805002000000020000C014075
:1039C000001001400000000000000000002F000077
:1039D00000000700070000147F147F1400242A7FD2
:1039E0002A12006264081323003649552250000051
:1039F0000503000000001C224100000041221C00C1
:103A00000014083E08140008083E0808000000A042
:103A1000600000080808080800006060000000203E
:103A200010080402003E5149453E0000427F40001C
:103A3000004261514946002141454B3100181412A2
:103A40007F10002745454539003C4A49493000016F
:103A50007109050300364949493600064949291EBE
:103A60000000363600000000563600000008142220
:103A70004100001414141414000041221408000220
:103A80000151090600324959513E007C1211127C45
:103A9000007F49494936003E41414122007F414172
:103AA000221C007F49494941007F09090901003E64
:103AB0004149497A007F0808087F0000417F4100A2
:103AC000002040413F01007F08142241007F404018
:103AD0004040007F020C027F007F0408107F003E00
:103AE0004141413E007F09090906003E4151215EE6
:103AF000007F091929460046494949310001017FE3
:103B00000101003F4040403F001F2040201F003F78
:103B10004038403F0063140814630007087008072A
:103B200000615149454300007F41410000552A553D
:103B30002A55000041417F000004020102040040B8
:103B400040404040000001020400002054545478DA
:103B5000007F4844443800384444442000384444FA
:103B6000487F00385454541800087E090102001898
:103B7000A4A4A47C007F080404780000447D4000D5
:103B8000004080847D00007F102844000000417FB9
:103B90004000007C04180478007C08040478003895
:103BA0004444443800FC242424180018242418FC1D
:103BB000007C0804040800485454542000043F4486
:103BC0004020003C4040207C001C2040201C003C49
:103BD0004030403C004428102844001CA0A0A07C99
:103BE000004464544C4414141414141400000000D1
:103BF00000000000000000000000FC0000000000C9
:103C000002000000000C020C020000000000000096
:103C100090D0BCD0BC900003000300001824FE44E8
:103C20008C000302070201001824D8B04C80000366
:103C300000010201C038E438E00001020201020282
:103C4000080600000000000000000000000000F86E
:103C50000402000000010204000204F80000000455
:103C6000020100009060F860900000000100000078
:103C70002020FC20200000000100000000000000C7
:103C80000000080600000000202020202000000086
:103C90000000000000000000000000020000000022
:103CA0000080601C0200040300000000F80404040B
:103CB000F8000102020201000008FC0000000002FE
:103CC00003020000188444241800030202020200C8
:103CD00008042424D80001020202010040B088FC3C
:103CE00080000000000302003C242424C4000102E0
:103CF00002020100F824242CC0000102020201008B
:103D00000C04E41C0400000003000000D824242458
:103D1000D80001020202010038444444F8000003C4
:103D2000020201000000100000000000020000007C
:103D30000000200000000000060000000020508865
:103D4000040200000000010290909090900000009A
:103D50000000000000020488502000020100000062
:103D60001804C4241800000002000000F804E494C1
:103D7000F80001020202020000E09CF08000020351
:103D80000000030204FC2424D80002030202010004
:103D9000F80404040C0001020202010004FC040403
:103DA000F80002030202010004FC24740C00020368
:103DB0000202030004FC24740C0002030200000051
:103DC000F0080444CC4000010202010004FC202061
:103DD000FC040203000003020404FC0404000202C9
:103DE00003020200000404FC0404060404030000AF
:103DF00004FC24D00C0402030200030204FC0400AF
:103E00000000020302020203FC3CC03CFC00030071
:103E10000300030004FC30C4FC040203020003009E
:103E2000F8040404F80001020202010004FC242446
:103E30001800020302000000F8848404F800010264
:103E40000207050004FC2464980002030200030238
:103E5000182424448C000302020201000C04FC0418
:103E60000C0000020302000004FC0000FC0400013E
:103E700002020100047C80E01C040000030000003A
:103E80001CE03CE01C00000300030000049C609C5C
:103E90000400020300030200041CE01C04000002F2
:103EA000030200000C84641C0400020302020300ED
:103EB0000000FE020200000007040400000E30C0F3
:103EC0000000000000010200000202FE00000004E9
:103ED00004070000000402040000000000000000CD
:103EE00000000000000008080808080800000200A0
:103EF00000000000000000000040A0A0C000000181
:103F00000202030204FC2020C000000302020100A0
:103F100000C02020600000010202020000C0202436
:103F2000FC0000010202030200C0A0A0C0000001CA
:103F3000020202000020F82424040002030202000E
:103F40000040A0A0602000070A0A0A0404FC202008
:103F5000C0000203020003020020E400000000028F
:103F600003020000000020E4000008080807000029
:103F700004FC80E020200203020003020404FC0091
:103F80000000020203020200E020E020C000030063
:103F90000300030020E02020C0000203020003020F
:103FA00000C02020C00000010202010020E020200B
:103FB000C000080F0A02010000C02020E00000013C
:103FC000020A0F0820E04020200002030200000047
:103FD0000060A0A020000002020203000020F820E0
:103FE000000000000102020020E00020E0000001CB
:103FF0000202030220E02080602000000301000094
:104000006080E080600000030003000020608060AA
:10401000200002030003020020E020806020080846
:10402000070100000020A06020000002030202003F
:10403000000020DE0200000000070400000000FF76
:1040400000000000000F00000002DE20000000045D
:10405000070000000201020404020000000000004A
:104060000000000000000000000000000000000050
:10407000000000F8000000000000003330000000E5
:1040800000100C06100C06000000000000000000EC
:1040900040C07840C0784000043F04043F0404005E
:1040A000007088FC08300000001820FF211E00006E
:1040B000F008F000E018000000211C031E211E0083
:1040C00000F00888700000001E2123241927211009
:1040D00010160E00000000000000000000000000AC
:1040E000000000E018040200000000071820400053
:1040F00000020418E0000000004020180700000043
:10410000404080F0804040000202010F01020200A6
:10411000000000F0000000000101011F010101008A
:10412000000000000000000080B0700000000000EF
:104130000000000000000000000101010101010178
:10414000000000000000000000303000000000000F
:1041500000000000806018040060180601000000E4
:1041600000E010080810E000000F102020100F00E1
:10417000001010F8000000000020203F2020000068
:1041800000700808088870000030282422213000C0
:1041900000300888884830000018202020110E00C8
:1041A0000000C02010F8000000070424243F240071
:1041B00000F80888880808000019212020110E0046
:1041C00000E0108888180000000F112020110E0058
:1041D00000380808C83808000000003F0000000050
:1041E0000070880808887000001C222121221C0011
:1041F00000E010080810E0000000312222110F003A
:10420000000000C0C00000000000003030000000CE
:10421000000000800000000000008060000000003E
:104220000000804020100800000102040810200057
:1042300040404040404040000404040404040400A2
:104240000008102040800000002010080402010037
:10425000007048080808F000000000303601000037
:10426000C030C828E810E0000718272423140B00EA
:104270000000C038E0000000203C23020227382064
:1042800008F8888888700000203F202020110E0048
:10429000C03008080808380007182020201008003F
:1042A00008F808080810E000203F202020100F0028
:1042B00008F88888E8081000203F202023201800F4
:1042C00008F88888E8081000203F2000030000005C
:1042D000C03008080838000007182020221E0200FD
:1042E00008F808000008F808203F210101213F20BC
:1042F000000808F8080800000020203F20200000E7
:1043000000000808F8080800C08080807F000000D6
:1043100008F888C028180800203F2001263820000F
:1043200008F8080000000000203F20202020300076
:1043300008F8F800F8F80800203F003F003F200090
:1043400008F830C00008F808203F200007183F0098
:10435000E01008080810E0000F10202020100F00C7
:1043600008F808080808F000203F210101010000BA
:10437000E01008080810E0000F18242438504F00FF
:1043800008F8888888887000203F2000030C3020BF
:1043900000708808080838000038202121221C00FD
:1043A000180808F8080818000000203F2000000046
:1043B00008F808000008F808001F202020201F002F
:1043C0000878880000C83808000007380E0100008F
:1043D000F80800F80008F800033C0700073C030059
:1043E000081868808068180820302C03032C3020BF
:1043F0000838C800C83808000000203F200000002E
:1044000010080808C8380800203826212020180085
:10441000000000FE020202000000007F4040400059
:10442000000C30C000000000000000010638C00091
:1044300000020202FE000000004040407F00000039
:10444000000004020202040000000000000000005E
:10445000000000000000000080808080808080805C
:104460000002020400000000000000000000000044
:1044700000008080808000000019242222223F203A
:1044800008F8008080000000003F112020110E007D
:104490000000008080800000000E1120202011000C
:1044A000000000808088F800000E112020103F20BE
:1044B0000000808080800000001F22222222130042
:1044C000008080F0888888180020203F202000008D
:1044D0000000808080808000006B94949493600042
:1044E00008F8008080800000203F210000203F204D
:1044F00000809898000000000020203F202000004D
:10450000000000809898000000C08080807F00003C
:1045100008F8000080808000203F24022D30200019
:10452000000808F8000000000020203F20200000C4
:104530008080808080808000203F20003F20003FDE
:104540008080008080800000203F210000203F20EC
:104550000000808080800000001F202020201F009D
:10456000808000808000000080FFA12020110E00CC
:104570000000008080808000000E112020A0FF80BD
:10458000808080008080800020203F21200001006A
:1045900000008080808080000033242424241900BF
:1045A000008080E0808000000000001F20200000CC
:1045B0008080000000808000001F202020103F200D
:1045C000808080000080808000010E30080601009D
:1045D00080800080008080800F300C030C300F0042
:1045E00000808000808080000020312E0E3120006D
:1045F000808080000080808080818E70180601009D
:1046000000808080808080000021302C22213000BA
:1046100000000000807C020200000000003F4040DB
:1046200000000000FF00000000000000FF0000008C
:104630000002027C800000000040403F00000000BB
:104640000006010102020404000000000000000056
:10465000000000000000000000000000000000005A
:10466000000000000000000000000000000000004A
:10467000000000000000000000F0F0F0000000006A
:104680000000000000017F010000000000000000A9
:10469000001C1C1C0000000000008060301C8C60AE
:1046A000301C0C00000000000000000000000000B2
:1046B000000000000000000000000000000000E01A
:1046C0000000000000E000000086E69F86868686E7
:1046D000E69F860000011F01010101011F01010089
:1046E000000080C06020F820E0C000000000030748
:1046F0000C18FF70E18100000000070F10107F1000
:104700000F0700008060206080000000E0200000B3
:104710000F3020309F70DC371030C0000000100ECA
:1047200003000718101807000000C02020E0C00098
:104730000000000080E01F38E88703C43C0400004C
:10474000070F1810100B070D1010080000808C4C7C
:104750003800000000000000000000000000000021
:104760000000000000000000000000000000000049
:1047700000000000000080E030080400000000009D
:1047800000FEFF0100000000000000000000030F19
:104790001820400000040830E08000000000000005
:1047A0000000000001FFFE00000000000040201893
:1047B0000F03000000000000000000000000C00027
:1047C00000000000004266663C18FF183C66664226
:1047D00000000000000003000000000000000000D6
:1047E0000000800000000000001010101010FF10EA
:1047F0001010101000000000000003000000000076
:1048000000000000000000000000000000000000A8
:10481000000000000000000000808C4C3800000008
:104820000000000000000000000000000000000088
:1048300000101010101010101010100000000000D8
:104840000000000000000000000000000000000068
:104850000000000000000000000000000000000058
:1048600000001C1C1C0000000000000000000000F4
:1048700000000000E0380C000000000080701C0305
:10488000000000000060380E010000000000000081
:10489000000080C060202060C080000000FEFF019A
:1048A0000000000001FFFE000001070E18101018A4
:1048B0000E0701000000808080C0E00000000000C2
:1048C0000000000000FFFF000000000000001010CA
:1048D000101F1F10101000000080402020202060BA
:1048E000C080000000030300804020381F07000044
:1048F000001C1A1918181818181F00000080C02072
:10490000202060C080000000000303001010182F5A
:10491000E780000000070F10101010180F070000AC
:10492000000000000000C0E0F000000000C0B088FF
:10493000868180FFFF808000000000000010101FB3
:104940001F1010000000E0606060606060600000A8
:1049500000003F1008080818F0E0000000070B10E6
:104960001010101C0F030000000080C04020202009
:10497000E0C0000000FCFF211008080818F0E0006B
:104980000001070C18101010080F03000000C0E011
:104990006060606060E06000000003000000E018FC
:1049A0000700000000000000001F1F0000000000C2
:1049B0000080C0602020202060C080000087EF2C95
:1049C0001818303068CF830000070F08101010103F
:1049D000180F07000000C0C020202020C080000069
:1049E000001F3F604040402010FFFE0000000C1CF4
:1049F000101010080F03000000000000000000006D
:104A00000000000000000000000E0E0E000000007C
:104A100000000000001C1C1C000000000000000042
:104A2000000000000000000000000000000C0C006E
:104A300000000000000000000058380000000000E6
:104A4000000000000000008040201000000010283E
:104A5000448201000000000000000000000001028C
:104A6000040810000000000000000000000000002A
:104A7000008484848484848484848400000000000E
:104A80000000000000000000000010204080000036
:104A90000000000000000000000001824428100017
:104AA00000001008040201000000000000C02020E7
:104AB0001010101030E0C0000003030000F01008D8
:104AC0000C070300000000001C1C1C00000000007C
:104AD000000000C0406020202040C00000FCFF011A
:104AE000F00E03C1FE03807F0001070E08111110B4
:104AF000110904020000000080E0E0000000000056
:104B00000000807C4340477FF880000010181F1091
:104B100000000000131F1C1020E0E0202020206077
:104B2000C080000000FFFF10101010182FE7800059
:104B3000101F1F1010101010180F0700000080C069
:104B4000402020202060E00000FCFF010000000069
:104B5000000001000001070E1810101008040300E7
:104B600020E0E02020202040C080000000FFFF0067
:104B70000000000001FFFE00101F1F101010180899
:104B80000E07010020E0E02020202020206080008F
:104B900000FFFF101010107C00000000101F1F10FD
:104BA000101010101018060020E0E0202020202017
:104BB0006060800000FFFF101010107C00000100FA
:104BC000101F1F100000000000000000000080C047
:104BD0006020202040E0000000FCFF010000404079
:104BE000C0C140400001070E181010100F0F000048
:104BF00020E0E0200000000020E0E02000FFFF10A7
:104C00001010101010FFFF00101F1F1000000000F8
:104C1000101F1F100000202020E0E02020200000B6
:104C20000000000000FFFF00000000000000101066
:104C3000101F1F101010000000000000202020E0B6
:104C4000E020202000000000000000FFFF00000026
:104C50000060E0808080C07F3F00000020E0E02016
:104C6000000020A06020200000FFFF30187CE3C07F
:104C700000000000101F1F10000001131F1C18105F
:104C800020E0E020000000000000000000FFFF0026
:104C90000000000000000000101F1F101010101076
:104CA0001018060020E0E0E000000000E0E0E02056
:104CB00000FF013FFEC0E01E01FFFF00101F1000BB
:104CC000031F0300101F1F1020E0E0C000000000C1
:104CD0000020E02000FF0003071C78E08000FF00B8
:104CE000101F100000000000030F1F00000080C014
:104CF00060202060C080000000FEFF010000000076
:104D000000FFFE000001070E181010180C0701002C
:104D100020E0E0202020202060C0800000FFFF2055
:104D200020202020301F0F00101F1F100000000047
:104D300000000000000080C060202060C0800000F3
:104D400000FEFF010000000000FFFE000001070E52
:104D50001111133C7C67210020E0E020202020205E
:104D600060C0800000FFFF101030F0D0080F070077
:104D7000101F1F10000000030F1C10100080C060E7
:104D8000202020204040E00000070F0C1818303091
:104D900060E08100001F0C0810101010180F0700B1
:104DA0008060202020E0E0202020608001000000C2
:104DB00000FFFF000000000100000000101F1F1096
:104DC0000000000020E0E020000000000020E020C3
:104DD00000FFFF00000000000000FF0000070F18A8
:104DE00010101010100807002060E0E02000000004
:104DF00020E060200000077FF88000807C03000036
:104E000000000000071F1C070000000020E0E02059
:104E100000E0E0200020E0200007FFF8E01FFFFC9A
:104E2000E01F00000000031F0300011F030000003B
:104E3000002060E0A0000020E060200000000003EF
:104E40008F7CF8C6010000000010181E1300011727
:104E50001F1810002060E0E02000000020E060202B
:104E6000000001073EF8E0180700000000000010F5
:104E7000101F1F101000000000806020202020A0C4
:104E8000E0E0200000000000C0F03E0F0300000042
:104E900000101C1F17101010101806000000000052
:104EA00000FC0404040404000000000000FF0000F3
:104EB0000000000000000000007F40404040400033
:104EC000000010E0000000000000000000000000F2
:104ED000031C6080000000000000000000000003D0
:104EE0000C70800000000404040404FC00000000B6
:104EF00000000000000000FF000000000000404033
:104F00004040407F0000000000000010080C040C2E
:104F10000810000000000000000000000000000079
:104F20000000000000000000000000000000000081
:104F30000000000000000000000000000000000071
:104F40000000000080808080808080808080808061
:104F50000000000404080800000000000000000039
:104F60000000000000000000000000000000000041
:104F70000000000000000000000000000000000031
:104F8000000098D844642424FCF80000000F1F1887
:104F9000101010081F1F10180020E0F00000000083
:104FA000000000000000FFFF180804040CF8F000E7
:104FB00000001F0F18101010180F03000000000051
:104FC000000000000000000000E0F8180404043CA9
:104FD0003800000000030F0C10101010080600002D
:104FE0000000000000000020E0F0000000E0F81CDD
:104FF00004040408FFFF000000030F18101010083D
:105000001F0F08000000000000000000000000006A
:105010000000E0F8484444444C7870000000030F5E
:105020000C181010100804000000000080C0602060
:1050300020E0C00000040404FFFF04040404000096
:10504000000010101F1F10101000000000000000D2
:105050000000000000000000000070F88C04048CC8
:10506000F874040C007076CF8D8D8D89C87870002F
:105070000020E0F000000000000000000000FFFF42
:1050800008040404FCF8000000101F1F10000010AA
:105090001F1F100000000000006060000000000002
:1050A0000000040404FCFC000000000000001010DC
:1050B000101F1F1010100000000000000000006012
:1050C0006000000000000000040404FCFC0000007C
:1050D0000000C0C08080C07F3F0000000020E0F0E2
:1050E00000000000000000000000FFFF80C0F41C72
:1050F0000404000000101F1F1100031F1C101000EB
:105100000000202020E0F00000000000000000006F
:1051100000FFFF000000000000001010101F1F1013
:10512000101000000000000000000000000000005F
:1051300004FCFC0804FCFC0804FCFC00101F1F100D
:10514000001F1F10001F1F100000000000000000C3
:10515000000000000004FCFC08080404FCF8000047
:1051600000101F1F100000101F1F10000000000083
:10517000000000000000000000E0F0180C04040C27
:1051800018F0E00000030F0C101010100C0F0300BB
:105190000000000000000000000000000004FCFC13
:1051A000080404040CF8F0000080FFFF8890101041
:1051B0001C0F0300000000000000000000000000C1
:1051C00000E0F81C04040408F8FC000000030F18B9
:1051D00010109088FFFF8000000000000000000019
:1051E00000000000040404FCFC100804040C0C0083
:1051F0001010101F1F101010000000000000000011
:10520000000000000000000000003078CCC484845E
:10521000840C1C0000001E1810101011190F06003D
:105220000000000000C000000000000000040404B2
:10523000FFFF040404000000000000000F1F101016
:10524000100C000000000000000000000000000042
:105250000004FCFE00000004FCFE000000000F1F24
:10526000181010081F0F08000000000000000000C8
:105270000000000000040C3CFCC40000C43C0C0412
:1052800000000000010F1E0E0100000000000000E1
:105290000000000000000000043CFCC400E47CFCB2
:1052A00084807C040000071F070000071F07000020
:1052B0000000000000000000000000000004041CCA
:1052C0007CE4C0341C0404000010101C1601131FE1
:1052D0001C1810000000000000000000000000008A
:1052E00000040C3CFCC400C43C0404000000C0806A
:1052F000C1370E01000000000000000000000000A7
:105300000000000000001C0404C4F47C1C04000025
:105310000000101C1F17111010180E0000000000D4
:10532000000000F80C04000000000000001028EF4E
:1053300000000000000000000000003F604000008E
:10534000000000000000FF0000000000000000005E
:105350000000FF0000000000000000000000FF004F
:10536000000000000000040CF80000000000000035
:1053700000000000EF281000000000000000406066
:105380003F000000000000000018060202040810A0
:105390002020300800000000000000000000000095
:1053A0000000000000000000000000000000F010FD
:1053B000101010FF10101010F000000000000F047B
:1053C000040404FF040404040F0000004040405F94
:1053D000555555755555555F404040000040200FCC
:1053E000094989790909090F2040000000FE02429D
:1053F0004ACA4A4ACA4A4A4202FE000000FF4050D6
:105400004C4340404F50505C40FF00000000F88883
:10541000888888FF88888888F800000000001F08B6
:105420000808087F888888889F80F00080828282B0
:10543000828282E2A2928A8682808000000000003E
:105440000040807F0000000000000000101010FFEE
:10545000109008888888FF88888808000444827F24
:1054600001808040432C10284681800000101010DD
:1054700010D030FF30D0121C1010000010080402B1
:10548000010000FF0000010204081000040404846D
:10549000E43C2724242424E404040400040201003E
:1054A000FF0909090949897F0000000000FE225A0E
:1054B0008600FE9292929292FE00000000FF040885
:1054C0000700FF4020030C142241400000804020D0
:1054D000180680000718204080000000010020709E
:1054E000282621202024386000010100001012929B
:1054F0009292929292121202FE0000000000003F6F
:10550000101010103F0040807F000000000000C01D
:1055100080808080808080FC84808080808080C0CB
:10552000C0000000000000FF7F404040404040FFBE
:1055300040404040404040FF7F000000000000002D
:10554000000000000000007F70000000000000006C
:10555000000000000000000000000000000000004B
:10556000000000FCF8000000000000000000000047
:105570000000000000000000FFFE02020202020222
:10558000020202FFFF020202020202020202FF0303
:1055900000000000000000001F1F040404040404B5
:1055A000040404FFFF0404040404040404041F00AE
:1055B00000000000000000000000000000000000EB
:1055C0000000007F3F00000000000000000000001D
:1055D00000000000000000000000000000000000CB
:1055E00000000000000000000000000000000000BB
:1055F00000F8F8F0F070200000000000000000004B
:10560000000000000000000000000000000000009A
:10561000000000000000000000000000800000000A
:10562000000000000000000000000000000000007A
:1056300000FFFFFFFF00000000000000000000006E
:10564000000000000000000080800000000000005A
:1056500000000000000000000000000000FFFFFE4E
:1056600006060606060606060606060606060606DA
:1056700006FFFFFFFF0606060606060606060606E6
:1056800006060606060606FFFFFFFF0702000000EB
:1056900000000000000000000000000000FFFFFF0D
:1056A00000000000000000000000000000000000FA
:1056B00000FFFFFFFF0000000000000000000000EE
:1056C00000000000000000FFFFFFFF0000000000DE
:1056D00000000000000000000000000000FFFFFFCD
:1056E000181818181818181818181818181818183A
:1056F00018FFFFFFFF18181818181818181818188E
:1057000018181818181818FFFFFFFF0000000000F5
:105710000000000000000000000000000201010085
:105720000000000000000000000000000000000079
:1057300000FFFFFFFF00000000000000000000006D
:105740000000000000000001010000000000000057
:105750000000000000000000000000000000000049
:105760000000000000000000000000000000000039
:1057700000FFFFFFFF00000000000000000000002D
:105780000000000000000000000000000000000019
:105790000000000000000000000000000000000009
:1057A00000000000000000000000000000000000F9
:1057B000001F1F0F0F00000000000000000000008D
:1057C00000000000000000000000000000000000D9
:1057D00000000000000000000000000001020304BF
:1057E0000607080900000000010203040C58000825
:1057F000000000205C000000382B000868580008FA
:105800005C0000206C0C0000482B00080000000029
:105810000000000000000000000000000000000088
:10582000000000000000C84200000000000000006E
:105830000000000000000000CEFFFFFF000000009D
:1058400000000000000000000000000064697374A4
:10585000616E63653A200000010000001000000046
:08586000000000000024F40028
:04000005080000ED02
:00000001FF
